{
	"contracts/Multi-signature wallet.sol": {
		"MultiWallet": {
			"abi": [
				{
					"inputs": [
						{
							"internalType": "address[]",
							"name": "_owners",
							"type": "address[]"
						},
						{
							"internalType": "uint256",
							"name": "_required",
							"type": "uint256"
						}
					],
					"stateMutability": "nonpayable",
					"type": "constructor"
				},
				{
					"anonymous": false,
					"inputs": [
						{
							"indexed": true,
							"internalType": "address",
							"name": "owner",
							"type": "address"
						},
						{
							"indexed": true,
							"internalType": "uint256",
							"name": "txId",
							"type": "uint256"
						}
					],
					"name": "Approve",
					"type": "event"
				},
				{
					"anonymous": false,
					"inputs": [
						{
							"indexed": true,
							"internalType": "address",
							"name": "sender",
							"type": "address"
						},
						{
							"indexed": false,
							"internalType": "uint256",
							"name": "amount",
							"type": "uint256"
						}
					],
					"name": "Deposit",
					"type": "event"
				},
				{
					"anonymous": false,
					"inputs": [
						{
							"indexed": true,
							"internalType": "uint256",
							"name": "txId",
							"type": "uint256"
						}
					],
					"name": "Execute",
					"type": "event"
				},
				{
					"anonymous": false,
					"inputs": [
						{
							"indexed": true,
							"internalType": "address",
							"name": "owner",
							"type": "address"
						},
						{
							"indexed": false,
							"internalType": "uint256",
							"name": "txId",
							"type": "uint256"
						}
					],
					"name": "Revoke",
					"type": "event"
				},
				{
					"anonymous": false,
					"inputs": [
						{
							"indexed": true,
							"internalType": "uint256",
							"name": "txId",
							"type": "uint256"
						}
					],
					"name": "Submit",
					"type": "event"
				},
				{
					"inputs": [
						{
							"internalType": "uint256",
							"name": "",
							"type": "uint256"
						},
						{
							"internalType": "address",
							"name": "",
							"type": "address"
						}
					],
					"name": "approved",
					"outputs": [
						{
							"internalType": "bool",
							"name": "",
							"type": "bool"
						}
					],
					"stateMutability": "view",
					"type": "function"
				},
				{
					"inputs": [
						{
							"internalType": "address",
							"name": "",
							"type": "address"
						}
					],
					"name": "isOwner",
					"outputs": [
						{
							"internalType": "bool",
							"name": "",
							"type": "bool"
						}
					],
					"stateMutability": "view",
					"type": "function"
				},
				{
					"inputs": [
						{
							"internalType": "uint256",
							"name": "",
							"type": "uint256"
						}
					],
					"name": "owners",
					"outputs": [
						{
							"internalType": "address",
							"name": "",
							"type": "address"
						}
					],
					"stateMutability": "view",
					"type": "function"
				},
				{
					"inputs": [],
					"name": "required",
					"outputs": [
						{
							"internalType": "uint256",
							"name": "",
							"type": "uint256"
						}
					],
					"stateMutability": "view",
					"type": "function"
				},
				{
					"inputs": [
						{
							"internalType": "uint256",
							"name": "",
							"type": "uint256"
						}
					],
					"name": "transactions",
					"outputs": [
						{
							"internalType": "address",
							"name": "to",
							"type": "address"
						},
						{
							"internalType": "uint256",
							"name": "value",
							"type": "uint256"
						},
						{
							"internalType": "bytes",
							"name": "data",
							"type": "bytes"
						},
						{
							"internalType": "bool",
							"name": "exected",
							"type": "bool"
						}
					],
					"stateMutability": "view",
					"type": "function"
				},
				{
					"stateMutability": "payable",
					"type": "receive"
				}
			],
			"devdoc": {
				"kind": "dev",
				"methods": {},
				"version": 1
			},
			"evm": {
				"assembly": "    /* \"contracts/Multi-signature wallet.sol\":61:1328  contract MultiWallet {... */\n  mstore(0x40, 0x80)\n    /* \"contracts/Multi-signature wallet.sol\":687:1236  constructor(address[] memory _owners, uint256 _required) {... */\n  callvalue\n  dup1\n  iszero\n  tag_1\n  jumpi\n  0x00\n  dup1\n  revert\ntag_1:\n  pop\n  mload(0x40)\n  sub(codesize, bytecodeSize)\n  dup1\n  bytecodeSize\n  dup4\n  codecopy\n  dup2\n  dup2\n  add\n  0x40\n  mstore\n  dup2\n  add\n  swap1\n  tag_2\n  swap2\n  swap1\n  tag_3\n  jump\t// in\ntag_2:\n    /* \"contracts/Multi-signature wallet.sol\":778:779  0 */\n  0x00\n    /* \"contracts/Multi-signature wallet.sol\":763:770  _owners */\n  dup3\n    /* \"contracts/Multi-signature wallet.sol\":763:777  _owners.length */\n  mload\n    /* \"contracts/Multi-signature wallet.sol\":763:779  _owners.length>0 */\n  gt\n    /* \"contracts/Multi-signature wallet.sol\":755:801  require(_owners.length>0,\"not enough address\") */\n  tag_6\n  jumpi\n  mload(0x40)\n  0x08c379a000000000000000000000000000000000000000000000000000000000\n  dup2\n  mstore\n  0x04\n  add\n  tag_7\n  swap1\n  tag_8\n  jump\t// in\ntag_7:\n  mload(0x40)\n  dup1\n  swap2\n  sub\n  swap1\n  revert\ntag_6:\n    /* \"contracts/Multi-signature wallet.sol\":832:839  _owners */\n  dup2\n    /* \"contracts/Multi-signature wallet.sol\":832:846  _owners.length */\n  mload\n    /* \"contracts/Multi-signature wallet.sol\":820:829  _required */\n  dup2\n    /* \"contracts/Multi-signature wallet.sol\":820:846  _required <=_owners.length */\n  gt\n  iszero\n    /* \"contracts/Multi-signature wallet.sol\":820:861  _required <=_owners.length && _required>0 */\n  dup1\n  iszero\n  tag_9\n  jumpi\n  pop\n    /* \"contracts/Multi-signature wallet.sol\":860:861  0 */\n  0x00\n    /* \"contracts/Multi-signature wallet.sol\":850:859  _required */\n  dup2\n    /* \"contracts/Multi-signature wallet.sol\":850:861  _required>0 */\n  gt\n    /* \"contracts/Multi-signature wallet.sol\":820:861  _required <=_owners.length && _required>0 */\ntag_9:\n    /* \"contracts/Multi-signature wallet.sol\":812:886  require(_required <=_owners.length && _required>0,\"wrong required number\") */\n  tag_10\n  jumpi\n  mload(0x40)\n  0x08c379a000000000000000000000000000000000000000000000000000000000\n  dup2\n  mstore\n  0x04\n  add\n  tag_11\n  swap1\n  tag_12\n  jump\t// in\ntag_11:\n  mload(0x40)\n  dup1\n  swap2\n  sub\n  swap1\n  revert\ntag_10:\n    /* \"contracts/Multi-signature wallet.sol\":927:936  uint256 i */\n  0x00\n    /* \"contracts/Multi-signature wallet.sol\":922:1200  for (uint256 i;i<_owners.length;i++){... */\ntag_13:\n    /* \"contracts/Multi-signature wallet.sol\":939:946  _owners */\n  dup3\n    /* \"contracts/Multi-signature wallet.sol\":939:953  _owners.length */\n  mload\n    /* \"contracts/Multi-signature wallet.sol\":937:938  i */\n  dup2\n    /* \"contracts/Multi-signature wallet.sol\":937:953  i<_owners.length */\n  lt\n    /* \"contracts/Multi-signature wallet.sol\":922:1200  for (uint256 i;i<_owners.length;i++){... */\n  iszero\n  tag_14\n  jumpi\n    /* \"contracts/Multi-signature wallet.sol\":973:986  address owner */\n  0x00\n    /* \"contracts/Multi-signature wallet.sol\":989:996  _owners */\n  dup4\n    /* \"contracts/Multi-signature wallet.sol\":997:998  i */\n  dup3\n    /* \"contracts/Multi-signature wallet.sol\":989:999  _owners[i] */\n  dup2\n  mload\n  dup2\n  lt\n  tag_16\n  jumpi\n  tag_17\n  tag_18\n  jump\t// in\ntag_17:\ntag_16:\n  0x20\n  mul\n  0x20\n  add\n  add\n  mload\n    /* \"contracts/Multi-signature wallet.sol\":973:999  address owner = _owners[i] */\n  swap1\n  pop\n    /* \"contracts/Multi-signature wallet.sol\":1039:1040  0 */\n  0x00\n    /* \"contracts/Multi-signature wallet.sol\":1022:1041  owner != address(0) */\n  0xffffffffffffffffffffffffffffffffffffffff\n  and\n    /* \"contracts/Multi-signature wallet.sol\":1022:1027  owner */\n  dup2\n    /* \"contracts/Multi-signature wallet.sol\":1022:1041  owner != address(0) */\n  0xffffffffffffffffffffffffffffffffffffffff\n  and\n  sub\n    /* \"contracts/Multi-signature wallet.sol\":1014:1058  require(owner != address(0),\"wrong address\") */\n  tag_19\n  jumpi\n  mload(0x40)\n  0x08c379a000000000000000000000000000000000000000000000000000000000\n  dup2\n  mstore\n  0x04\n  add\n  tag_20\n  swap1\n  tag_21\n  jump\t// in\ntag_20:\n  mload(0x40)\n  dup1\n  swap2\n  sub\n  swap1\n  revert\ntag_19:\n    /* \"contracts/Multi-signature wallet.sol\":1082:1089  isOwner */\n  0x01\n    /* \"contracts/Multi-signature wallet.sol\":1082:1096  isOwner[owner] */\n  0x00\n    /* \"contracts/Multi-signature wallet.sol\":1090:1095  owner */\n  dup3\n    /* \"contracts/Multi-signature wallet.sol\":1082:1096  isOwner[owner] */\n  0xffffffffffffffffffffffffffffffffffffffff\n  and\n  0xffffffffffffffffffffffffffffffffffffffff\n  and\n  dup2\n  mstore\n  0x20\n  add\n  swap1\n  dup2\n  mstore\n  0x20\n  add\n  0x00\n  keccak256\n  0x00\n  swap1\n  sload\n  swap1\n  0x0100\n  exp\n  swap1\n  div\n  0xff\n  and\n    /* \"contracts/Multi-signature wallet.sol\":1081:1096  !isOwner[owner] */\n  iszero\n    /* \"contracts/Multi-signature wallet.sol\":1073:1119  require(!isOwner[owner],\"owner is not unique\") */\n  tag_22\n  jumpi\n  mload(0x40)\n  0x08c379a000000000000000000000000000000000000000000000000000000000\n  dup2\n  mstore\n  0x04\n  add\n  tag_23\n  swap1\n  tag_24\n  jump\t// in\ntag_23:\n  mload(0x40)\n  dup1\n  swap2\n  sub\n  swap1\n  revert\ntag_22:\n    /* \"contracts/Multi-signature wallet.sol\":1151:1155  true */\n  0x01\n    /* \"contracts/Multi-signature wallet.sol\":1134:1141  isOwner */\n  dup1\n    /* \"contracts/Multi-signature wallet.sol\":1134:1148  isOwner[owner] */\n  0x00\n    /* \"contracts/Multi-signature wallet.sol\":1142:1147  owner */\n  dup4\n    /* \"contracts/Multi-signature wallet.sol\":1134:1148  isOwner[owner] */\n  0xffffffffffffffffffffffffffffffffffffffff\n  and\n  0xffffffffffffffffffffffffffffffffffffffff\n  and\n  dup2\n  mstore\n  0x20\n  add\n  swap1\n  dup2\n  mstore\n  0x20\n  add\n  0x00\n  keccak256\n  0x00\n    /* \"contracts/Multi-signature wallet.sol\":1134:1155  isOwner[owner] = true */\n  0x0100\n  exp\n  dup2\n  sload\n  dup2\n  0xff\n  mul\n  not\n  and\n  swap1\n  dup4\n  iszero\n  iszero\n  mul\n  or\n  swap1\n  sstore\n  pop\n    /* \"contracts/Multi-signature wallet.sol\":1170:1176  owners */\n  0x00\n    /* \"contracts/Multi-signature wallet.sol\":1182:1187  owner */\n  dup2\n    /* \"contracts/Multi-signature wallet.sol\":1170:1188  owners.push(owner) */\n  swap1\n  dup1\n  0x01\n  dup2\n  sload\n  add\n  dup1\n  dup3\n  sstore\n  dup1\n  swap2\n  pop\n  pop\n  0x01\n  swap1\n  sub\n  swap1\n  0x00\n  mstore\n  keccak256(0x00, 0x20)\n  add\n  0x00\n  swap1\n  swap2\n  swap1\n  swap2\n  swap1\n  swap2\n  0x0100\n  exp\n  dup2\n  sload\n  dup2\n  0xffffffffffffffffffffffffffffffffffffffff\n  mul\n  not\n  and\n  swap1\n  dup4\n  0xffffffffffffffffffffffffffffffffffffffff\n  and\n  mul\n  or\n  swap1\n  sstore\n  pop\n    /* \"contracts/Multi-signature wallet.sol\":958:1200  {... */\n  pop\n    /* \"contracts/Multi-signature wallet.sol\":954:957  i++ */\n  dup1\n  dup1\n  0x01\n  add\n  swap2\n  pop\n  pop\n    /* \"contracts/Multi-signature wallet.sol\":922:1200  for (uint256 i;i<_owners.length;i++){... */\n  jump(tag_13)\ntag_14:\n  pop\n    /* \"contracts/Multi-signature wallet.sol\":1219:1228  _required */\n  dup1\n    /* \"contracts/Multi-signature wallet.sol\":1210:1218  required */\n  0x02\n    /* \"contracts/Multi-signature wallet.sol\":1210:1228  required=_required */\n  dup2\n  swap1\n  sstore\n  pop\n    /* \"contracts/Multi-signature wallet.sol\":687:1236  constructor(address[] memory _owners, uint256 _required) {... */\n  pop\n  pop\n    /* \"contracts/Multi-signature wallet.sol\":61:1328  contract MultiWallet {... */\n  jump(tag_26)\n    /* \"#utility.yul\":7:82   */\ntag_27:\n    /* \"#utility.yul\":40:46   */\n  0x00\n    /* \"#utility.yul\":73:75   */\n  0x40\n    /* \"#utility.yul\":67:76   */\n  mload\n    /* \"#utility.yul\":57:76   */\n  swap1\n  pop\n    /* \"#utility.yul\":7:82   */\n  swap1\n  jump\t// out\n    /* \"#utility.yul\":88:205   */\ntag_28:\n    /* \"#utility.yul\":197:198   */\n  0x00\n    /* \"#utility.yul\":194:195   */\n  dup1\n    /* \"#utility.yul\":187:199   */\n  revert\n    /* \"#utility.yul\":211:328   */\ntag_29:\n    /* \"#utility.yul\":320:321   */\n  0x00\n    /* \"#utility.yul\":317:318   */\n  dup1\n    /* \"#utility.yul\":310:322   */\n  revert\n    /* \"#utility.yul\":334:451   */\ntag_30:\n    /* \"#utility.yul\":443:444   */\n  0x00\n    /* \"#utility.yul\":440:441   */\n  dup1\n    /* \"#utility.yul\":433:445   */\n  revert\n    /* \"#utility.yul\":457:559   */\ntag_31:\n    /* \"#utility.yul\":498:504   */\n  0x00\n    /* \"#utility.yul\":549:551   */\n  0x1f\n    /* \"#utility.yul\":545:552   */\n  not\n    /* \"#utility.yul\":540:542   */\n  0x1f\n    /* \"#utility.yul\":533:538   */\n  dup4\n    /* \"#utility.yul\":529:543   */\n  add\n    /* \"#utility.yul\":525:553   */\n  and\n    /* \"#utility.yul\":515:553   */\n  swap1\n  pop\n    /* \"#utility.yul\":457:559   */\n  swap2\n  swap1\n  pop\n  jump\t// out\n    /* \"#utility.yul\":565:745   */\ntag_32:\n    /* \"#utility.yul\":613:690   */\n  0x4e487b7100000000000000000000000000000000000000000000000000000000\n    /* \"#utility.yul\":610:611   */\n  0x00\n    /* \"#utility.yul\":603:691   */\n  mstore\n    /* \"#utility.yul\":710:714   */\n  0x41\n    /* \"#utility.yul\":707:708   */\n  0x04\n    /* \"#utility.yul\":700:715   */\n  mstore\n    /* \"#utility.yul\":734:738   */\n  0x24\n    /* \"#utility.yul\":731:732   */\n  0x00\n    /* \"#utility.yul\":724:739   */\n  revert\n    /* \"#utility.yul\":751:1032   */\ntag_33:\n    /* \"#utility.yul\":834:861   */\n  tag_63\n    /* \"#utility.yul\":856:860   */\n  dup3\n    /* \"#utility.yul\":834:861   */\n  tag_31\n  jump\t// in\ntag_63:\n    /* \"#utility.yul\":826:832   */\n  dup2\n    /* \"#utility.yul\":822:862   */\n  add\n    /* \"#utility.yul\":964:970   */\n  dup2\n    /* \"#utility.yul\":952:962   */\n  dup2\n    /* \"#utility.yul\":949:971   */\n  lt\n    /* \"#utility.yul\":928:946   */\n  0xffffffffffffffff\n    /* \"#utility.yul\":916:926   */\n  dup3\n    /* \"#utility.yul\":913:947   */\n  gt\n    /* \"#utility.yul\":910:972   */\n  or\n    /* \"#utility.yul\":907:995   */\n  iszero\n  tag_64\n  jumpi\n    /* \"#utility.yul\":975:993   */\n  tag_65\n  tag_32\n  jump\t// in\ntag_65:\n    /* \"#utility.yul\":907:995   */\ntag_64:\n    /* \"#utility.yul\":1015:1025   */\n  dup1\n    /* \"#utility.yul\":1011:1013   */\n  0x40\n    /* \"#utility.yul\":1004:1026   */\n  mstore\n    /* \"#utility.yul\":794:1032   */\n  pop\n    /* \"#utility.yul\":751:1032   */\n  pop\n  pop\n  jump\t// out\n    /* \"#utility.yul\":1038:1167   */\ntag_34:\n    /* \"#utility.yul\":1072:1078   */\n  0x00\n    /* \"#utility.yul\":1099:1119   */\n  tag_67\n  tag_27\n  jump\t// in\ntag_67:\n    /* \"#utility.yul\":1089:1119   */\n  swap1\n  pop\n    /* \"#utility.yul\":1128:1161   */\n  tag_68\n    /* \"#utility.yul\":1156:1160   */\n  dup3\n    /* \"#utility.yul\":1148:1154   */\n  dup3\n    /* \"#utility.yul\":1128:1161   */\n  tag_33\n  jump\t// in\ntag_68:\n    /* \"#utility.yul\":1038:1167   */\n  swap2\n  swap1\n  pop\n  jump\t// out\n    /* \"#utility.yul\":1173:1484   */\ntag_35:\n    /* \"#utility.yul\":1250:1254   */\n  0x00\n    /* \"#utility.yul\":1340:1358   */\n  0xffffffffffffffff\n    /* \"#utility.yul\":1332:1338   */\n  dup3\n    /* \"#utility.yul\":1329:1359   */\n  gt\n    /* \"#utility.yul\":1326:1382   */\n  iszero\n  tag_70\n  jumpi\n    /* \"#utility.yul\":1362:1380   */\n  tag_71\n  tag_32\n  jump\t// in\ntag_71:\n    /* \"#utility.yul\":1326:1382   */\ntag_70:\n    /* \"#utility.yul\":1412:1416   */\n  0x20\n    /* \"#utility.yul\":1404:1410   */\n  dup3\n    /* \"#utility.yul\":1400:1417   */\n  mul\n    /* \"#utility.yul\":1392:1417   */\n  swap1\n  pop\n    /* \"#utility.yul\":1472:1476   */\n  0x20\n    /* \"#utility.yul\":1466:1470   */\n  dup2\n    /* \"#utility.yul\":1462:1477   */\n  add\n    /* \"#utility.yul\":1454:1477   */\n  swap1\n  pop\n    /* \"#utility.yul\":1173:1484   */\n  swap2\n  swap1\n  pop\n  jump\t// out\n    /* \"#utility.yul\":1490:1607   */\ntag_36:\n    /* \"#utility.yul\":1599:1600   */\n  0x00\n    /* \"#utility.yul\":1596:1597   */\n  dup1\n    /* \"#utility.yul\":1589:1601   */\n  revert\n    /* \"#utility.yul\":1613:1739   */\ntag_37:\n    /* \"#utility.yul\":1650:1657   */\n  0x00\n    /* \"#utility.yul\":1690:1732   */\n  0xffffffffffffffffffffffffffffffffffffffff\n    /* \"#utility.yul\":1683:1688   */\n  dup3\n    /* \"#utility.yul\":1679:1733   */\n  and\n    /* \"#utility.yul\":1668:1733   */\n  swap1\n  pop\n    /* \"#utility.yul\":1613:1739   */\n  swap2\n  swap1\n  pop\n  jump\t// out\n    /* \"#utility.yul\":1745:1841   */\ntag_38:\n    /* \"#utility.yul\":1782:1789   */\n  0x00\n    /* \"#utility.yul\":1811:1835   */\n  tag_75\n    /* \"#utility.yul\":1829:1834   */\n  dup3\n    /* \"#utility.yul\":1811:1835   */\n  tag_37\n  jump\t// in\ntag_75:\n    /* \"#utility.yul\":1800:1835   */\n  swap1\n  pop\n    /* \"#utility.yul\":1745:1841   */\n  swap2\n  swap1\n  pop\n  jump\t// out\n    /* \"#utility.yul\":1847:1969   */\ntag_39:\n    /* \"#utility.yul\":1920:1944   */\n  tag_77\n    /* \"#utility.yul\":1938:1943   */\n  dup2\n    /* \"#utility.yul\":1920:1944   */\n  tag_38\n  jump\t// in\ntag_77:\n    /* \"#utility.yul\":1913:1918   */\n  dup2\n    /* \"#utility.yul\":1910:1945   */\n  eq\n    /* \"#utility.yul\":1900:1963   */\n  tag_78\n  jumpi\n    /* \"#utility.yul\":1959:1960   */\n  0x00\n    /* \"#utility.yul\":1956:1957   */\n  dup1\n    /* \"#utility.yul\":1949:1961   */\n  revert\n    /* \"#utility.yul\":1900:1963   */\ntag_78:\n    /* \"#utility.yul\":1847:1969   */\n  pop\n  jump\t// out\n    /* \"#utility.yul\":1975:2118   */\ntag_40:\n    /* \"#utility.yul\":2032:2037   */\n  0x00\n    /* \"#utility.yul\":2063:2069   */\n  dup2\n    /* \"#utility.yul\":2057:2070   */\n  mload\n    /* \"#utility.yul\":2048:2070   */\n  swap1\n  pop\n    /* \"#utility.yul\":2079:2112   */\n  tag_80\n    /* \"#utility.yul\":2106:2111   */\n  dup2\n    /* \"#utility.yul\":2079:2112   */\n  tag_39\n  jump\t// in\ntag_80:\n    /* \"#utility.yul\":1975:2118   */\n  swap3\n  swap2\n  pop\n  pop\n  jump\t// out\n    /* \"#utility.yul\":2141:2873   */\ntag_41:\n    /* \"#utility.yul\":2248:2253   */\n  0x00\n    /* \"#utility.yul\":2273:2354   */\n  tag_82\n    /* \"#utility.yul\":2289:2353   */\n  tag_83\n    /* \"#utility.yul\":2346:2352   */\n  dup5\n    /* \"#utility.yul\":2289:2353   */\n  tag_35\n  jump\t// in\ntag_83:\n    /* \"#utility.yul\":2273:2354   */\n  tag_34\n  jump\t// in\ntag_82:\n    /* \"#utility.yul\":2264:2354   */\n  swap1\n  pop\n    /* \"#utility.yul\":2374:2379   */\n  dup1\n    /* \"#utility.yul\":2403:2409   */\n  dup4\n    /* \"#utility.yul\":2396:2401   */\n  dup3\n    /* \"#utility.yul\":2389:2410   */\n  mstore\n    /* \"#utility.yul\":2437:2441   */\n  0x20\n    /* \"#utility.yul\":2430:2435   */\n  dup3\n    /* \"#utility.yul\":2426:2442   */\n  add\n    /* \"#utility.yul\":2419:2442   */\n  swap1\n  pop\n    /* \"#utility.yul\":2490:2494   */\n  0x20\n    /* \"#utility.yul\":2482:2488   */\n  dup5\n    /* \"#utility.yul\":2478:2495   */\n  mul\n    /* \"#utility.yul\":2470:2476   */\n  dup4\n    /* \"#utility.yul\":2466:2496   */\n  add\n    /* \"#utility.yul\":2519:2522   */\n  dup6\n    /* \"#utility.yul\":2511:2517   */\n  dup2\n    /* \"#utility.yul\":2508:2523   */\n  gt\n    /* \"#utility.yul\":2505:2627   */\n  iszero\n  tag_84\n  jumpi\n    /* \"#utility.yul\":2538:2617   */\n  tag_85\n  tag_36\n  jump\t// in\ntag_85:\n    /* \"#utility.yul\":2505:2627   */\ntag_84:\n    /* \"#utility.yul\":2653:2659   */\n  dup4\n    /* \"#utility.yul\":2636:2867   */\ntag_86:\n    /* \"#utility.yul\":2670:2676   */\n  dup2\n    /* \"#utility.yul\":2665:2668   */\n  dup2\n    /* \"#utility.yul\":2662:2677   */\n  lt\n    /* \"#utility.yul\":2636:2867   */\n  iszero\n  tag_88\n  jumpi\n    /* \"#utility.yul\":2745:2748   */\n  dup1\n    /* \"#utility.yul\":2774:2822   */\n  tag_89\n    /* \"#utility.yul\":2818:2821   */\n  dup9\n    /* \"#utility.yul\":2806:2816   */\n  dup3\n    /* \"#utility.yul\":2774:2822   */\n  tag_40\n  jump\t// in\ntag_89:\n    /* \"#utility.yul\":2769:2772   */\n  dup5\n    /* \"#utility.yul\":2762:2823   */\n  mstore\n    /* \"#utility.yul\":2852:2856   */\n  0x20\n    /* \"#utility.yul\":2847:2850   */\n  dup5\n    /* \"#utility.yul\":2843:2857   */\n  add\n    /* \"#utility.yul\":2836:2857   */\n  swap4\n  pop\n    /* \"#utility.yul\":2712:2867   */\n  pop\n    /* \"#utility.yul\":2696:2700   */\n  0x20\n    /* \"#utility.yul\":2691:2694   */\n  dup2\n    /* \"#utility.yul\":2687:2701   */\n  add\n    /* \"#utility.yul\":2680:2701   */\n  swap1\n  pop\n    /* \"#utility.yul\":2636:2867   */\n  jump(tag_86)\ntag_88:\n    /* \"#utility.yul\":2640:2661   */\n  pop\n    /* \"#utility.yul\":2254:2873   */\n  pop\n  pop\n    /* \"#utility.yul\":2141:2873   */\n  swap4\n  swap3\n  pop\n  pop\n  pop\n  jump\t// out\n    /* \"#utility.yul\":2896:3281   */\ntag_42:\n    /* \"#utility.yul\":2978:2983   */\n  0x00\n    /* \"#utility.yul\":3027:3030   */\n  dup3\n    /* \"#utility.yul\":3020:3024   */\n  0x1f\n    /* \"#utility.yul\":3012:3018   */\n  dup4\n    /* \"#utility.yul\":3008:3025   */\n  add\n    /* \"#utility.yul\":3004:3031   */\n  slt\n    /* \"#utility.yul\":2994:3116   */\n  tag_91\n  jumpi\n    /* \"#utility.yul\":3035:3114   */\n  tag_92\n  tag_30\n  jump\t// in\ntag_92:\n    /* \"#utility.yul\":2994:3116   */\ntag_91:\n    /* \"#utility.yul\":3145:3151   */\n  dup2\n    /* \"#utility.yul\":3139:3152   */\n  mload\n    /* \"#utility.yul\":3170:3275   */\n  tag_93\n    /* \"#utility.yul\":3271:3274   */\n  dup5\n    /* \"#utility.yul\":3263:3269   */\n  dup3\n    /* \"#utility.yul\":3256:3260   */\n  0x20\n    /* \"#utility.yul\":3248:3254   */\n  dup7\n    /* \"#utility.yul\":3244:3261   */\n  add\n    /* \"#utility.yul\":3170:3275   */\n  tag_41\n  jump\t// in\ntag_93:\n    /* \"#utility.yul\":3161:3275   */\n  swap2\n  pop\n    /* \"#utility.yul\":2984:3281   */\n  pop\n    /* \"#utility.yul\":2896:3281   */\n  swap3\n  swap2\n  pop\n  pop\n  jump\t// out\n    /* \"#utility.yul\":3287:3364   */\ntag_43:\n    /* \"#utility.yul\":3324:3331   */\n  0x00\n    /* \"#utility.yul\":3353:3358   */\n  dup2\n    /* \"#utility.yul\":3342:3358   */\n  swap1\n  pop\n    /* \"#utility.yul\":3287:3364   */\n  swap2\n  swap1\n  pop\n  jump\t// out\n    /* \"#utility.yul\":3370:3492   */\ntag_44:\n    /* \"#utility.yul\":3443:3467   */\n  tag_96\n    /* \"#utility.yul\":3461:3466   */\n  dup2\n    /* \"#utility.yul\":3443:3467   */\n  tag_43\n  jump\t// in\ntag_96:\n    /* \"#utility.yul\":3436:3441   */\n  dup2\n    /* \"#utility.yul\":3433:3468   */\n  eq\n    /* \"#utility.yul\":3423:3486   */\n  tag_97\n  jumpi\n    /* \"#utility.yul\":3482:3483   */\n  0x00\n    /* \"#utility.yul\":3479:3480   */\n  dup1\n    /* \"#utility.yul\":3472:3484   */\n  revert\n    /* \"#utility.yul\":3423:3486   */\ntag_97:\n    /* \"#utility.yul\":3370:3492   */\n  pop\n  jump\t// out\n    /* \"#utility.yul\":3498:3641   */\ntag_45:\n    /* \"#utility.yul\":3555:3560   */\n  0x00\n    /* \"#utility.yul\":3586:3592   */\n  dup2\n    /* \"#utility.yul\":3580:3593   */\n  mload\n    /* \"#utility.yul\":3571:3593   */\n  swap1\n  pop\n    /* \"#utility.yul\":3602:3635   */\n  tag_99\n    /* \"#utility.yul\":3629:3634   */\n  dup2\n    /* \"#utility.yul\":3602:3635   */\n  tag_44\n  jump\t// in\ntag_99:\n    /* \"#utility.yul\":3498:3641   */\n  swap3\n  swap2\n  pop\n  pop\n  jump\t// out\n    /* \"#utility.yul\":3647:4357   */\ntag_3:\n    /* \"#utility.yul\":3751:3757   */\n  0x00\n    /* \"#utility.yul\":3759:3765   */\n  dup1\n    /* \"#utility.yul\":3808:3810   */\n  0x40\n    /* \"#utility.yul\":3796:3805   */\n  dup4\n    /* \"#utility.yul\":3787:3794   */\n  dup6\n    /* \"#utility.yul\":3783:3806   */\n  sub\n    /* \"#utility.yul\":3779:3811   */\n  slt\n    /* \"#utility.yul\":3776:3895   */\n  iszero\n  tag_101\n  jumpi\n    /* \"#utility.yul\":3814:3893   */\n  tag_102\n  tag_28\n  jump\t// in\ntag_102:\n    /* \"#utility.yul\":3776:3895   */\ntag_101:\n    /* \"#utility.yul\":3955:3956   */\n  0x00\n    /* \"#utility.yul\":3944:3953   */\n  dup4\n    /* \"#utility.yul\":3940:3957   */\n  add\n    /* \"#utility.yul\":3934:3958   */\n  mload\n    /* \"#utility.yul\":3985:4003   */\n  0xffffffffffffffff\n    /* \"#utility.yul\":3977:3983   */\n  dup2\n    /* \"#utility.yul\":3974:4004   */\n  gt\n    /* \"#utility.yul\":3971:4088   */\n  iszero\n  tag_103\n  jumpi\n    /* \"#utility.yul\":4007:4086   */\n  tag_104\n  tag_29\n  jump\t// in\ntag_104:\n    /* \"#utility.yul\":3971:4088   */\ntag_103:\n    /* \"#utility.yul\":4112:4201   */\n  tag_105\n    /* \"#utility.yul\":4193:4200   */\n  dup6\n    /* \"#utility.yul\":4184:4190   */\n  dup3\n    /* \"#utility.yul\":4173:4182   */\n  dup7\n    /* \"#utility.yul\":4169:4191   */\n  add\n    /* \"#utility.yul\":4112:4201   */\n  tag_42\n  jump\t// in\ntag_105:\n    /* \"#utility.yul\":4102:4201   */\n  swap3\n  pop\n    /* \"#utility.yul\":3905:4211   */\n  pop\n    /* \"#utility.yul\":4250:4252   */\n  0x20\n    /* \"#utility.yul\":4276:4340   */\n  tag_106\n    /* \"#utility.yul\":4332:4339   */\n  dup6\n    /* \"#utility.yul\":4323:4329   */\n  dup3\n    /* \"#utility.yul\":4312:4321   */\n  dup7\n    /* \"#utility.yul\":4308:4330   */\n  add\n    /* \"#utility.yul\":4276:4340   */\n  tag_45\n  jump\t// in\ntag_106:\n    /* \"#utility.yul\":4266:4340   */\n  swap2\n  pop\n    /* \"#utility.yul\":4221:4350   */\n  pop\n    /* \"#utility.yul\":3647:4357   */\n  swap3\n  pop\n  swap3\n  swap1\n  pop\n  jump\t// out\n    /* \"#utility.yul\":4363:4532   */\ntag_46:\n    /* \"#utility.yul\":4447:4458   */\n  0x00\n    /* \"#utility.yul\":4481:4487   */\n  dup3\n    /* \"#utility.yul\":4476:4479   */\n  dup3\n    /* \"#utility.yul\":4469:4488   */\n  mstore\n    /* \"#utility.yul\":4521:4525   */\n  0x20\n    /* \"#utility.yul\":4516:4519   */\n  dup3\n    /* \"#utility.yul\":4512:4526   */\n  add\n    /* \"#utility.yul\":4497:4526   */\n  swap1\n  pop\n    /* \"#utility.yul\":4363:4532   */\n  swap3\n  swap2\n  pop\n  pop\n  jump\t// out\n    /* \"#utility.yul\":4538:4706   */\ntag_47:\n    /* \"#utility.yul\":4678:4698   */\n  0x6e6f7420656e6f75676820616464726573730000000000000000000000000000\n    /* \"#utility.yul\":4674:4675   */\n  0x00\n    /* \"#utility.yul\":4666:4672   */\n  dup3\n    /* \"#utility.yul\":4662:4676   */\n  add\n    /* \"#utility.yul\":4655:4699   */\n  mstore\n    /* \"#utility.yul\":4538:4706   */\n  pop\n  jump\t// out\n    /* \"#utility.yul\":4712:5078   */\ntag_48:\n    /* \"#utility.yul\":4854:4857   */\n  0x00\n    /* \"#utility.yul\":4875:4942   */\n  tag_110\n    /* \"#utility.yul\":4939:4941   */\n  0x12\n    /* \"#utility.yul\":4934:4937   */\n  dup4\n    /* \"#utility.yul\":4875:4942   */\n  tag_46\n  jump\t// in\ntag_110:\n    /* \"#utility.yul\":4868:4942   */\n  swap2\n  pop\n    /* \"#utility.yul\":4951:5044   */\n  tag_111\n    /* \"#utility.yul\":5040:5043   */\n  dup3\n    /* \"#utility.yul\":4951:5044   */\n  tag_47\n  jump\t// in\ntag_111:\n    /* \"#utility.yul\":5069:5071   */\n  0x20\n    /* \"#utility.yul\":5064:5067   */\n  dup3\n    /* \"#utility.yul\":5060:5072   */\n  add\n    /* \"#utility.yul\":5053:5072   */\n  swap1\n  pop\n    /* \"#utility.yul\":4712:5078   */\n  swap2\n  swap1\n  pop\n  jump\t// out\n    /* \"#utility.yul\":5084:5503   */\ntag_8:\n    /* \"#utility.yul\":5250:5254   */\n  0x00\n    /* \"#utility.yul\":5288:5290   */\n  0x20\n    /* \"#utility.yul\":5277:5286   */\n  dup3\n    /* \"#utility.yul\":5273:5291   */\n  add\n    /* \"#utility.yul\":5265:5291   */\n  swap1\n  pop\n    /* \"#utility.yul\":5337:5346   */\n  dup2\n    /* \"#utility.yul\":5331:5335   */\n  dup2\n    /* \"#utility.yul\":5327:5347   */\n  sub\n    /* \"#utility.yul\":5323:5324   */\n  0x00\n    /* \"#utility.yul\":5312:5321   */\n  dup4\n    /* \"#utility.yul\":5308:5325   */\n  add\n    /* \"#utility.yul\":5301:5348   */\n  mstore\n    /* \"#utility.yul\":5365:5496   */\n  tag_113\n    /* \"#utility.yul\":5491:5495   */\n  dup2\n    /* \"#utility.yul\":5365:5496   */\n  tag_48\n  jump\t// in\ntag_113:\n    /* \"#utility.yul\":5357:5496   */\n  swap1\n  pop\n    /* \"#utility.yul\":5084:5503   */\n  swap2\n  swap1\n  pop\n  jump\t// out\n    /* \"#utility.yul\":5509:5680   */\ntag_49:\n    /* \"#utility.yul\":5649:5672   */\n  0x77726f6e67207265717569726564206e756d6265720000000000000000000000\n    /* \"#utility.yul\":5645:5646   */\n  0x00\n    /* \"#utility.yul\":5637:5643   */\n  dup3\n    /* \"#utility.yul\":5633:5647   */\n  add\n    /* \"#utility.yul\":5626:5673   */\n  mstore\n    /* \"#utility.yul\":5509:5680   */\n  pop\n  jump\t// out\n    /* \"#utility.yul\":5686:6052   */\ntag_50:\n    /* \"#utility.yul\":5828:5831   */\n  0x00\n    /* \"#utility.yul\":5849:5916   */\n  tag_116\n    /* \"#utility.yul\":5913:5915   */\n  0x15\n    /* \"#utility.yul\":5908:5911   */\n  dup4\n    /* \"#utility.yul\":5849:5916   */\n  tag_46\n  jump\t// in\ntag_116:\n    /* \"#utility.yul\":5842:5916   */\n  swap2\n  pop\n    /* \"#utility.yul\":5925:6018   */\n  tag_117\n    /* \"#utility.yul\":6014:6017   */\n  dup3\n    /* \"#utility.yul\":5925:6018   */\n  tag_49\n  jump\t// in\ntag_117:\n    /* \"#utility.yul\":6043:6045   */\n  0x20\n    /* \"#utility.yul\":6038:6041   */\n  dup3\n    /* \"#utility.yul\":6034:6046   */\n  add\n    /* \"#utility.yul\":6027:6046   */\n  swap1\n  pop\n    /* \"#utility.yul\":5686:6052   */\n  swap2\n  swap1\n  pop\n  jump\t// out\n    /* \"#utility.yul\":6058:6477   */\ntag_12:\n    /* \"#utility.yul\":6224:6228   */\n  0x00\n    /* \"#utility.yul\":6262:6264   */\n  0x20\n    /* \"#utility.yul\":6251:6260   */\n  dup3\n    /* \"#utility.yul\":6247:6265   */\n  add\n    /* \"#utility.yul\":6239:6265   */\n  swap1\n  pop\n    /* \"#utility.yul\":6311:6320   */\n  dup2\n    /* \"#utility.yul\":6305:6309   */\n  dup2\n    /* \"#utility.yul\":6301:6321   */\n  sub\n    /* \"#utility.yul\":6297:6298   */\n  0x00\n    /* \"#utility.yul\":6286:6295   */\n  dup4\n    /* \"#utility.yul\":6282:6299   */\n  add\n    /* \"#utility.yul\":6275:6322   */\n  mstore\n    /* \"#utility.yul\":6339:6470   */\n  tag_119\n    /* \"#utility.yul\":6465:6469   */\n  dup2\n    /* \"#utility.yul\":6339:6470   */\n  tag_50\n  jump\t// in\ntag_119:\n    /* \"#utility.yul\":6331:6470   */\n  swap1\n  pop\n    /* \"#utility.yul\":6058:6477   */\n  swap2\n  swap1\n  pop\n  jump\t// out\n    /* \"#utility.yul\":6483:6663   */\ntag_18:\n    /* \"#utility.yul\":6531:6608   */\n  0x4e487b7100000000000000000000000000000000000000000000000000000000\n    /* \"#utility.yul\":6528:6529   */\n  0x00\n    /* \"#utility.yul\":6521:6609   */\n  mstore\n    /* \"#utility.yul\":6628:6632   */\n  0x32\n    /* \"#utility.yul\":6625:6626   */\n  0x04\n    /* \"#utility.yul\":6618:6633   */\n  mstore\n    /* \"#utility.yul\":6652:6656   */\n  0x24\n    /* \"#utility.yul\":6649:6650   */\n  0x00\n    /* \"#utility.yul\":6642:6657   */\n  revert\n    /* \"#utility.yul\":6669:6832   */\ntag_51:\n    /* \"#utility.yul\":6809:6824   */\n  0x77726f6e67206164647265737300000000000000000000000000000000000000\n    /* \"#utility.yul\":6805:6806   */\n  0x00\n    /* \"#utility.yul\":6797:6803   */\n  dup3\n    /* \"#utility.yul\":6793:6807   */\n  add\n    /* \"#utility.yul\":6786:6825   */\n  mstore\n    /* \"#utility.yul\":6669:6832   */\n  pop\n  jump\t// out\n    /* \"#utility.yul\":6838:7204   */\ntag_52:\n    /* \"#utility.yul\":6980:6983   */\n  0x00\n    /* \"#utility.yul\":7001:7068   */\n  tag_123\n    /* \"#utility.yul\":7065:7067   */\n  0x0d\n    /* \"#utility.yul\":7060:7063   */\n  dup4\n    /* \"#utility.yul\":7001:7068   */\n  tag_46\n  jump\t// in\ntag_123:\n    /* \"#utility.yul\":6994:7068   */\n  swap2\n  pop\n    /* \"#utility.yul\":7077:7170   */\n  tag_124\n    /* \"#utility.yul\":7166:7169   */\n  dup3\n    /* \"#utility.yul\":7077:7170   */\n  tag_51\n  jump\t// in\ntag_124:\n    /* \"#utility.yul\":7195:7197   */\n  0x20\n    /* \"#utility.yul\":7190:7193   */\n  dup3\n    /* \"#utility.yul\":7186:7198   */\n  add\n    /* \"#utility.yul\":7179:7198   */\n  swap1\n  pop\n    /* \"#utility.yul\":6838:7204   */\n  swap2\n  swap1\n  pop\n  jump\t// out\n    /* \"#utility.yul\":7210:7629   */\ntag_21:\n    /* \"#utility.yul\":7376:7380   */\n  0x00\n    /* \"#utility.yul\":7414:7416   */\n  0x20\n    /* \"#utility.yul\":7403:7412   */\n  dup3\n    /* \"#utility.yul\":7399:7417   */\n  add\n    /* \"#utility.yul\":7391:7417   */\n  swap1\n  pop\n    /* \"#utility.yul\":7463:7472   */\n  dup2\n    /* \"#utility.yul\":7457:7461   */\n  dup2\n    /* \"#utility.yul\":7453:7473   */\n  sub\n    /* \"#utility.yul\":7449:7450   */\n  0x00\n    /* \"#utility.yul\":7438:7447   */\n  dup4\n    /* \"#utility.yul\":7434:7451   */\n  add\n    /* \"#utility.yul\":7427:7474   */\n  mstore\n    /* \"#utility.yul\":7491:7622   */\n  tag_126\n    /* \"#utility.yul\":7617:7621   */\n  dup2\n    /* \"#utility.yul\":7491:7622   */\n  tag_52\n  jump\t// in\ntag_126:\n    /* \"#utility.yul\":7483:7622   */\n  swap1\n  pop\n    /* \"#utility.yul\":7210:7629   */\n  swap2\n  swap1\n  pop\n  jump\t// out\n    /* \"#utility.yul\":7635:7804   */\ntag_53:\n    /* \"#utility.yul\":7775:7796   */\n  0x6f776e6572206973206e6f7420756e6971756500000000000000000000000000\n    /* \"#utility.yul\":7771:7772   */\n  0x00\n    /* \"#utility.yul\":7763:7769   */\n  dup3\n    /* \"#utility.yul\":7759:7773   */\n  add\n    /* \"#utility.yul\":7752:7797   */\n  mstore\n    /* \"#utility.yul\":7635:7804   */\n  pop\n  jump\t// out\n    /* \"#utility.yul\":7810:8176   */\ntag_54:\n    /* \"#utility.yul\":7952:7955   */\n  0x00\n    /* \"#utility.yul\":7973:8040   */\n  tag_129\n    /* \"#utility.yul\":8037:8039   */\n  0x13\n    /* \"#utility.yul\":8032:8035   */\n  dup4\n    /* \"#utility.yul\":7973:8040   */\n  tag_46\n  jump\t// in\ntag_129:\n    /* \"#utility.yul\":7966:8040   */\n  swap2\n  pop\n    /* \"#utility.yul\":8049:8142   */\n  tag_130\n    /* \"#utility.yul\":8138:8141   */\n  dup3\n    /* \"#utility.yul\":8049:8142   */\n  tag_53\n  jump\t// in\ntag_130:\n    /* \"#utility.yul\":8167:8169   */\n  0x20\n    /* \"#utility.yul\":8162:8165   */\n  dup3\n    /* \"#utility.yul\":8158:8170   */\n  add\n    /* \"#utility.yul\":8151:8170   */\n  swap1\n  pop\n    /* \"#utility.yul\":7810:8176   */\n  swap2\n  swap1\n  pop\n  jump\t// out\n    /* \"#utility.yul\":8182:8601   */\ntag_24:\n    /* \"#utility.yul\":8348:8352   */\n  0x00\n    /* \"#utility.yul\":8386:8388   */\n  0x20\n    /* \"#utility.yul\":8375:8384   */\n  dup3\n    /* \"#utility.yul\":8371:8389   */\n  add\n    /* \"#utility.yul\":8363:8389   */\n  swap1\n  pop\n    /* \"#utility.yul\":8435:8444   */\n  dup2\n    /* \"#utility.yul\":8429:8433   */\n  dup2\n    /* \"#utility.yul\":8425:8445   */\n  sub\n    /* \"#utility.yul\":8421:8422   */\n  0x00\n    /* \"#utility.yul\":8410:8419   */\n  dup4\n    /* \"#utility.yul\":8406:8423   */\n  add\n    /* \"#utility.yul\":8399:8446   */\n  mstore\n    /* \"#utility.yul\":8463:8594   */\n  tag_132\n    /* \"#utility.yul\":8589:8593   */\n  dup2\n    /* \"#utility.yul\":8463:8594   */\n  tag_54\n  jump\t// in\ntag_132:\n    /* \"#utility.yul\":8455:8594   */\n  swap1\n  pop\n    /* \"#utility.yul\":8182:8601   */\n  swap2\n  swap1\n  pop\n  jump\t// out\n    /* \"contracts/Multi-signature wallet.sol\":61:1328  contract MultiWallet {... */\ntag_26:\n  dataSize(sub_0)\n  dup1\n  dataOffset(sub_0)\n  0x00\n  codecopy\n  0x00\n  return\nstop\n\nsub_0: assembly {\n        /* \"contracts/Multi-signature wallet.sol\":61:1328  contract MultiWallet {... */\n      mstore(0x40, 0x80)\n      jumpi(tag_1, lt(calldatasize, 0x04))\n      shr(0xe0, calldataload(0x00))\n      dup1\n      0x025e7c27\n      eq\n      tag_3\n      jumpi\n      dup1\n      0x2f54bf6e\n      eq\n      tag_4\n      jumpi\n      dup1\n      0x8253951a\n      eq\n      tag_5\n      jumpi\n      dup1\n      0x9ace38c2\n      eq\n      tag_6\n      jumpi\n      dup1\n      0xdc8452cd\n      eq\n      tag_7\n      jumpi\n      jump(tag_2)\n    tag_1:\n      jumpi(tag_2, calldatasize)\n        /* \"contracts/Multi-signature wallet.sol\":1295:1305  msg.sender */\n      caller\n        /* \"contracts/Multi-signature wallet.sol\":1287:1316  Deposit(msg.sender,msg.value) */\n      0xffffffffffffffffffffffffffffffffffffffff\n      and\n      0xe1fffcc4923d04b559f4d29a8bfc6cda04eb5b0d3c460751c2402c5c5cc9109c\n        /* \"contracts/Multi-signature wallet.sol\":1306:1315  msg.value */\n      callvalue\n        /* \"contracts/Multi-signature wallet.sol\":1287:1316  Deposit(msg.sender,msg.value) */\n      mload(0x40)\n      tag_10\n      swap2\n      swap1\n      tag_11\n      jump\t// in\n    tag_10:\n      mload(0x40)\n      dup1\n      swap2\n      sub\n      swap1\n      log2\n        /* \"contracts/Multi-signature wallet.sol\":61:1328  contract MultiWallet {... */\n      stop\n    tag_2:\n      0x00\n      dup1\n      revert\n        /* \"contracts/Multi-signature wallet.sol\":89:112  address[] public owners */\n    tag_3:\n      callvalue\n      dup1\n      iszero\n      tag_12\n      jumpi\n      0x00\n      dup1\n      revert\n    tag_12:\n      pop\n      tag_13\n      0x04\n      dup1\n      calldatasize\n      sub\n      dup2\n      add\n      swap1\n      tag_14\n      swap2\n      swap1\n      tag_15\n      jump\t// in\n    tag_14:\n      tag_16\n      jump\t// in\n    tag_13:\n      mload(0x40)\n      tag_17\n      swap2\n      swap1\n      tag_18\n      jump\t// in\n    tag_17:\n      mload(0x40)\n      dup1\n      swap2\n      sub\n      swap1\n      return\n        /* \"contracts/Multi-signature wallet.sol\":119:156  mapping(address=>bool) public isOwner */\n    tag_4:\n      callvalue\n      dup1\n      iszero\n      tag_19\n      jumpi\n      0x00\n      dup1\n      revert\n    tag_19:\n      pop\n      tag_20\n      0x04\n      dup1\n      calldatasize\n      sub\n      dup2\n      add\n      swap1\n      tag_21\n      swap2\n      swap1\n      tag_22\n      jump\t// in\n    tag_21:\n      tag_23\n      jump\t// in\n    tag_20:\n      mload(0x40)\n      tag_24\n      swap2\n      swap1\n      tag_25\n      jump\t// in\n    tag_24:\n      mload(0x40)\n      dup1\n      swap2\n      sub\n      swap1\n      return\n        /* \"contracts/Multi-signature wallet.sol\":357:415  mapping (uint256=>mapping (address=>bool)) public approved */\n    tag_5:\n      callvalue\n      dup1\n      iszero\n      tag_26\n      jumpi\n      0x00\n      dup1\n      revert\n    tag_26:\n      pop\n      tag_27\n      0x04\n      dup1\n      calldatasize\n      sub\n      dup2\n      add\n      swap1\n      tag_28\n      swap2\n      swap1\n      tag_29\n      jump\t// in\n    tag_28:\n      tag_30\n      jump\t// in\n    tag_27:\n      mload(0x40)\n      tag_31\n      swap2\n      swap1\n      tag_25\n      jump\t// in\n    tag_31:\n      mload(0x40)\n      dup1\n      swap2\n      sub\n      swap1\n      return\n        /* \"contracts/Multi-signature wallet.sol\":317:350  Transaction[] public transactions */\n    tag_6:\n      callvalue\n      dup1\n      iszero\n      tag_32\n      jumpi\n      0x00\n      dup1\n      revert\n    tag_32:\n      pop\n      tag_33\n      0x04\n      dup1\n      calldatasize\n      sub\n      dup2\n      add\n      swap1\n      tag_34\n      swap2\n      swap1\n      tag_15\n      jump\t// in\n    tag_34:\n      tag_35\n      jump\t// in\n    tag_33:\n      mload(0x40)\n      tag_36\n      swap5\n      swap4\n      swap3\n      swap2\n      swap1\n      tag_37\n      jump\t// in\n    tag_36:\n      mload(0x40)\n      dup1\n      swap2\n      sub\n      swap1\n      return\n        /* \"contracts/Multi-signature wallet.sol\":163:186  uint256 public required */\n    tag_7:\n      callvalue\n      dup1\n      iszero\n      tag_38\n      jumpi\n      0x00\n      dup1\n      revert\n    tag_38:\n      pop\n      tag_39\n      tag_40\n      jump\t// in\n    tag_39:\n      mload(0x40)\n      tag_41\n      swap2\n      swap1\n      tag_11\n      jump\t// in\n    tag_41:\n      mload(0x40)\n      dup1\n      swap2\n      sub\n      swap1\n      return\n        /* \"contracts/Multi-signature wallet.sol\":89:112  address[] public owners */\n    tag_16:\n      0x00\n      dup2\n      dup2\n      sload\n      dup2\n      lt\n      tag_42\n      jumpi\n      0x00\n      dup1\n      revert\n    tag_42:\n      swap1\n      0x00\n      mstore\n      keccak256(0x00, 0x20)\n      add\n      0x00\n      swap2\n      pop\n      sload\n      swap1\n      0x0100\n      exp\n      swap1\n      div\n      0xffffffffffffffffffffffffffffffffffffffff\n      and\n      dup2\n      jump\t// out\n        /* \"contracts/Multi-signature wallet.sol\":119:156  mapping(address=>bool) public isOwner */\n    tag_23:\n      mstore(0x20, 0x01)\n      dup1\n      0x00\n      mstore\n      keccak256(0x00, 0x40)\n      0x00\n      swap2\n      pop\n      sload\n      swap1\n      0x0100\n      exp\n      swap1\n      div\n      0xff\n      and\n      dup2\n      jump\t// out\n        /* \"contracts/Multi-signature wallet.sol\":357:415  mapping (uint256=>mapping (address=>bool)) public approved */\n    tag_30:\n      mstore(0x20, 0x04)\n      dup2\n      0x00\n      mstore\n      mstore(0x20, keccak256(0x00, 0x40))\n      dup1\n      0x00\n      mstore\n      keccak256(0x00, 0x40)\n      0x00\n      swap2\n      pop\n      swap2\n      pop\n      swap1\n      sload\n      swap1\n      0x0100\n      exp\n      swap1\n      div\n      0xff\n      and\n      dup2\n      jump\t// out\n        /* \"contracts/Multi-signature wallet.sol\":317:350  Transaction[] public transactions */\n    tag_35:\n      0x03\n      dup2\n      dup2\n      sload\n      dup2\n      lt\n      tag_44\n      jumpi\n      0x00\n      dup1\n      revert\n    tag_44:\n      swap1\n      0x00\n      mstore\n      keccak256(0x00, 0x20)\n      swap1\n      0x04\n      mul\n      add\n      0x00\n      swap2\n      pop\n      swap1\n      pop\n      dup1\n      0x00\n      add\n      0x00\n      swap1\n      sload\n      swap1\n      0x0100\n      exp\n      swap1\n      div\n      0xffffffffffffffffffffffffffffffffffffffff\n      and\n      swap1\n      dup1\n      0x01\n      add\n      sload\n      swap1\n      dup1\n      0x02\n      add\n      dup1\n      sload\n      tag_46\n      swap1\n      tag_47\n      jump\t// in\n    tag_46:\n      dup1\n      0x1f\n      add\n      0x20\n      dup1\n      swap2\n      div\n      mul\n      0x20\n      add\n      mload(0x40)\n      swap1\n      dup2\n      add\n      0x40\n      mstore\n      dup1\n      swap3\n      swap2\n      swap1\n      dup2\n      dup2\n      mstore\n      0x20\n      add\n      dup3\n      dup1\n      sload\n      tag_48\n      swap1\n      tag_47\n      jump\t// in\n    tag_48:\n      dup1\n      iszero\n      tag_49\n      jumpi\n      dup1\n      0x1f\n      lt\n      tag_50\n      jumpi\n      0x0100\n      dup1\n      dup4\n      sload\n      div\n      mul\n      dup4\n      mstore\n      swap2\n      0x20\n      add\n      swap2\n      jump(tag_49)\n    tag_50:\n      dup3\n      add\n      swap2\n      swap1\n      0x00\n      mstore\n      keccak256(0x00, 0x20)\n      swap1\n    tag_51:\n      dup2\n      sload\n      dup2\n      mstore\n      swap1\n      0x01\n      add\n      swap1\n      0x20\n      add\n      dup1\n      dup4\n      gt\n      tag_51\n      jumpi\n      dup3\n      swap1\n      sub\n      0x1f\n      and\n      dup3\n      add\n      swap2\n    tag_49:\n      pop\n      pop\n      pop\n      pop\n      pop\n      swap1\n      dup1\n      0x03\n      add\n      0x00\n      swap1\n      sload\n      swap1\n      0x0100\n      exp\n      swap1\n      div\n      0xff\n      and\n      swap1\n      pop\n      dup5\n      jump\t// out\n        /* \"contracts/Multi-signature wallet.sol\":163:186  uint256 public required */\n    tag_40:\n      sload(0x02)\n      dup2\n      jump\t// out\n        /* \"#utility.yul\":7:84   */\n    tag_52:\n        /* \"#utility.yul\":44:51   */\n      0x00\n        /* \"#utility.yul\":73:78   */\n      dup2\n        /* \"#utility.yul\":62:78   */\n      swap1\n      pop\n        /* \"#utility.yul\":7:84   */\n      swap2\n      swap1\n      pop\n      jump\t// out\n        /* \"#utility.yul\":90:208   */\n    tag_53:\n        /* \"#utility.yul\":177:201   */\n      tag_75\n        /* \"#utility.yul\":195:200   */\n      dup2\n        /* \"#utility.yul\":177:201   */\n      tag_52\n      jump\t// in\n    tag_75:\n        /* \"#utility.yul\":172:175   */\n      dup3\n        /* \"#utility.yul\":165:202   */\n      mstore\n        /* \"#utility.yul\":90:208   */\n      pop\n      pop\n      jump\t// out\n        /* \"#utility.yul\":214:436   */\n    tag_11:\n        /* \"#utility.yul\":307:311   */\n      0x00\n        /* \"#utility.yul\":345:347   */\n      0x20\n        /* \"#utility.yul\":334:343   */\n      dup3\n        /* \"#utility.yul\":330:348   */\n      add\n        /* \"#utility.yul\":322:348   */\n      swap1\n      pop\n        /* \"#utility.yul\":358:429   */\n      tag_77\n        /* \"#utility.yul\":426:427   */\n      0x00\n        /* \"#utility.yul\":415:424   */\n      dup4\n        /* \"#utility.yul\":411:428   */\n      add\n        /* \"#utility.yul\":402:408   */\n      dup5\n        /* \"#utility.yul\":358:429   */\n      tag_53\n      jump\t// in\n    tag_77:\n        /* \"#utility.yul\":214:436   */\n      swap3\n      swap2\n      pop\n      pop\n      jump\t// out\n        /* \"#utility.yul\":523:640   */\n    tag_55:\n        /* \"#utility.yul\":632:633   */\n      0x00\n        /* \"#utility.yul\":629:630   */\n      dup1\n        /* \"#utility.yul\":622:634   */\n      revert\n        /* \"#utility.yul\":769:891   */\n    tag_57:\n        /* \"#utility.yul\":842:866   */\n      tag_82\n        /* \"#utility.yul\":860:865   */\n      dup2\n        /* \"#utility.yul\":842:866   */\n      tag_52\n      jump\t// in\n    tag_82:\n        /* \"#utility.yul\":835:840   */\n      dup2\n        /* \"#utility.yul\":832:867   */\n      eq\n        /* \"#utility.yul\":822:885   */\n      tag_83\n      jumpi\n        /* \"#utility.yul\":881:882   */\n      0x00\n        /* \"#utility.yul\":878:879   */\n      dup1\n        /* \"#utility.yul\":871:883   */\n      revert\n        /* \"#utility.yul\":822:885   */\n    tag_83:\n        /* \"#utility.yul\":769:891   */\n      pop\n      jump\t// out\n        /* \"#utility.yul\":897:1036   */\n    tag_58:\n        /* \"#utility.yul\":943:948   */\n      0x00\n        /* \"#utility.yul\":981:987   */\n      dup2\n        /* \"#utility.yul\":968:988   */\n      calldataload\n        /* \"#utility.yul\":959:988   */\n      swap1\n      pop\n        /* \"#utility.yul\":997:1030   */\n      tag_85\n        /* \"#utility.yul\":1024:1029   */\n      dup2\n        /* \"#utility.yul\":997:1030   */\n      tag_57\n      jump\t// in\n    tag_85:\n        /* \"#utility.yul\":897:1036   */\n      swap3\n      swap2\n      pop\n      pop\n      jump\t// out\n        /* \"#utility.yul\":1042:1371   */\n    tag_15:\n        /* \"#utility.yul\":1101:1107   */\n      0x00\n        /* \"#utility.yul\":1150:1152   */\n      0x20\n        /* \"#utility.yul\":1138:1147   */\n      dup3\n        /* \"#utility.yul\":1129:1136   */\n      dup5\n        /* \"#utility.yul\":1125:1148   */\n      sub\n        /* \"#utility.yul\":1121:1153   */\n      slt\n        /* \"#utility.yul\":1118:1237   */\n      iszero\n      tag_87\n      jumpi\n        /* \"#utility.yul\":1156:1235   */\n      tag_88\n      tag_55\n      jump\t// in\n    tag_88:\n        /* \"#utility.yul\":1118:1237   */\n    tag_87:\n        /* \"#utility.yul\":1276:1277   */\n      0x00\n        /* \"#utility.yul\":1301:1354   */\n      tag_89\n        /* \"#utility.yul\":1346:1353   */\n      dup5\n        /* \"#utility.yul\":1337:1343   */\n      dup3\n        /* \"#utility.yul\":1326:1335   */\n      dup6\n        /* \"#utility.yul\":1322:1344   */\n      add\n        /* \"#utility.yul\":1301:1354   */\n      tag_58\n      jump\t// in\n    tag_89:\n        /* \"#utility.yul\":1291:1354   */\n      swap2\n      pop\n        /* \"#utility.yul\":1247:1364   */\n      pop\n        /* \"#utility.yul\":1042:1371   */\n      swap3\n      swap2\n      pop\n      pop\n      jump\t// out\n        /* \"#utility.yul\":1377:1503   */\n    tag_59:\n        /* \"#utility.yul\":1414:1421   */\n      0x00\n        /* \"#utility.yul\":1454:1496   */\n      0xffffffffffffffffffffffffffffffffffffffff\n        /* \"#utility.yul\":1447:1452   */\n      dup3\n        /* \"#utility.yul\":1443:1497   */\n      and\n        /* \"#utility.yul\":1432:1497   */\n      swap1\n      pop\n        /* \"#utility.yul\":1377:1503   */\n      swap2\n      swap1\n      pop\n      jump\t// out\n        /* \"#utility.yul\":1509:1605   */\n    tag_60:\n        /* \"#utility.yul\":1546:1553   */\n      0x00\n        /* \"#utility.yul\":1575:1599   */\n      tag_92\n        /* \"#utility.yul\":1593:1598   */\n      dup3\n        /* \"#utility.yul\":1575:1599   */\n      tag_59\n      jump\t// in\n    tag_92:\n        /* \"#utility.yul\":1564:1599   */\n      swap1\n      pop\n        /* \"#utility.yul\":1509:1605   */\n      swap2\n      swap1\n      pop\n      jump\t// out\n        /* \"#utility.yul\":1611:1729   */\n    tag_61:\n        /* \"#utility.yul\":1698:1722   */\n      tag_94\n        /* \"#utility.yul\":1716:1721   */\n      dup2\n        /* \"#utility.yul\":1698:1722   */\n      tag_60\n      jump\t// in\n    tag_94:\n        /* \"#utility.yul\":1693:1696   */\n      dup3\n        /* \"#utility.yul\":1686:1723   */\n      mstore\n        /* \"#utility.yul\":1611:1729   */\n      pop\n      pop\n      jump\t// out\n        /* \"#utility.yul\":1735:1957   */\n    tag_18:\n        /* \"#utility.yul\":1828:1832   */\n      0x00\n        /* \"#utility.yul\":1866:1868   */\n      0x20\n        /* \"#utility.yul\":1855:1864   */\n      dup3\n        /* \"#utility.yul\":1851:1869   */\n      add\n        /* \"#utility.yul\":1843:1869   */\n      swap1\n      pop\n        /* \"#utility.yul\":1879:1950   */\n      tag_96\n        /* \"#utility.yul\":1947:1948   */\n      0x00\n        /* \"#utility.yul\":1936:1945   */\n      dup4\n        /* \"#utility.yul\":1932:1949   */\n      add\n        /* \"#utility.yul\":1923:1929   */\n      dup5\n        /* \"#utility.yul\":1879:1950   */\n      tag_61\n      jump\t// in\n    tag_96:\n        /* \"#utility.yul\":1735:1957   */\n      swap3\n      swap2\n      pop\n      pop\n      jump\t// out\n        /* \"#utility.yul\":1963:2085   */\n    tag_62:\n        /* \"#utility.yul\":2036:2060   */\n      tag_98\n        /* \"#utility.yul\":2054:2059   */\n      dup2\n        /* \"#utility.yul\":2036:2060   */\n      tag_60\n      jump\t// in\n    tag_98:\n        /* \"#utility.yul\":2029:2034   */\n      dup2\n        /* \"#utility.yul\":2026:2061   */\n      eq\n        /* \"#utility.yul\":2016:2079   */\n      tag_99\n      jumpi\n        /* \"#utility.yul\":2075:2076   */\n      0x00\n        /* \"#utility.yul\":2072:2073   */\n      dup1\n        /* \"#utility.yul\":2065:2077   */\n      revert\n        /* \"#utility.yul\":2016:2079   */\n    tag_99:\n        /* \"#utility.yul\":1963:2085   */\n      pop\n      jump\t// out\n        /* \"#utility.yul\":2091:2230   */\n    tag_63:\n        /* \"#utility.yul\":2137:2142   */\n      0x00\n        /* \"#utility.yul\":2175:2181   */\n      dup2\n        /* \"#utility.yul\":2162:2182   */\n      calldataload\n        /* \"#utility.yul\":2153:2182   */\n      swap1\n      pop\n        /* \"#utility.yul\":2191:2224   */\n      tag_101\n        /* \"#utility.yul\":2218:2223   */\n      dup2\n        /* \"#utility.yul\":2191:2224   */\n      tag_62\n      jump\t// in\n    tag_101:\n        /* \"#utility.yul\":2091:2230   */\n      swap3\n      swap2\n      pop\n      pop\n      jump\t// out\n        /* \"#utility.yul\":2236:2565   */\n    tag_22:\n        /* \"#utility.yul\":2295:2301   */\n      0x00\n        /* \"#utility.yul\":2344:2346   */\n      0x20\n        /* \"#utility.yul\":2332:2341   */\n      dup3\n        /* \"#utility.yul\":2323:2330   */\n      dup5\n        /* \"#utility.yul\":2319:2342   */\n      sub\n        /* \"#utility.yul\":2315:2347   */\n      slt\n        /* \"#utility.yul\":2312:2431   */\n      iszero\n      tag_103\n      jumpi\n        /* \"#utility.yul\":2350:2429   */\n      tag_104\n      tag_55\n      jump\t// in\n    tag_104:\n        /* \"#utility.yul\":2312:2431   */\n    tag_103:\n        /* \"#utility.yul\":2470:2471   */\n      0x00\n        /* \"#utility.yul\":2495:2548   */\n      tag_105\n        /* \"#utility.yul\":2540:2547   */\n      dup5\n        /* \"#utility.yul\":2531:2537   */\n      dup3\n        /* \"#utility.yul\":2520:2529   */\n      dup6\n        /* \"#utility.yul\":2516:2538   */\n      add\n        /* \"#utility.yul\":2495:2548   */\n      tag_63\n      jump\t// in\n    tag_105:\n        /* \"#utility.yul\":2485:2548   */\n      swap2\n      pop\n        /* \"#utility.yul\":2441:2558   */\n      pop\n        /* \"#utility.yul\":2236:2565   */\n      swap3\n      swap2\n      pop\n      pop\n      jump\t// out\n        /* \"#utility.yul\":2571:2661   */\n    tag_64:\n        /* \"#utility.yul\":2605:2612   */\n      0x00\n        /* \"#utility.yul\":2648:2653   */\n      dup2\n        /* \"#utility.yul\":2641:2654   */\n      iszero\n        /* \"#utility.yul\":2634:2655   */\n      iszero\n        /* \"#utility.yul\":2623:2655   */\n      swap1\n      pop\n        /* \"#utility.yul\":2571:2661   */\n      swap2\n      swap1\n      pop\n      jump\t// out\n        /* \"#utility.yul\":2667:2776   */\n    tag_65:\n        /* \"#utility.yul\":2748:2769   */\n      tag_108\n        /* \"#utility.yul\":2763:2768   */\n      dup2\n        /* \"#utility.yul\":2748:2769   */\n      tag_64\n      jump\t// in\n    tag_108:\n        /* \"#utility.yul\":2743:2746   */\n      dup3\n        /* \"#utility.yul\":2736:2770   */\n      mstore\n        /* \"#utility.yul\":2667:2776   */\n      pop\n      pop\n      jump\t// out\n        /* \"#utility.yul\":2782:2992   */\n    tag_25:\n        /* \"#utility.yul\":2869:2873   */\n      0x00\n        /* \"#utility.yul\":2907:2909   */\n      0x20\n        /* \"#utility.yul\":2896:2905   */\n      dup3\n        /* \"#utility.yul\":2892:2910   */\n      add\n        /* \"#utility.yul\":2884:2910   */\n      swap1\n      pop\n        /* \"#utility.yul\":2920:2985   */\n      tag_110\n        /* \"#utility.yul\":2982:2983   */\n      0x00\n        /* \"#utility.yul\":2971:2980   */\n      dup4\n        /* \"#utility.yul\":2967:2984   */\n      add\n        /* \"#utility.yul\":2958:2964   */\n      dup5\n        /* \"#utility.yul\":2920:2985   */\n      tag_65\n      jump\t// in\n    tag_110:\n        /* \"#utility.yul\":2782:2992   */\n      swap3\n      swap2\n      pop\n      pop\n      jump\t// out\n        /* \"#utility.yul\":2998:3472   */\n    tag_29:\n        /* \"#utility.yul\":3066:3072   */\n      0x00\n        /* \"#utility.yul\":3074:3080   */\n      dup1\n        /* \"#utility.yul\":3123:3125   */\n      0x40\n        /* \"#utility.yul\":3111:3120   */\n      dup4\n        /* \"#utility.yul\":3102:3109   */\n      dup6\n        /* \"#utility.yul\":3098:3121   */\n      sub\n        /* \"#utility.yul\":3094:3126   */\n      slt\n        /* \"#utility.yul\":3091:3210   */\n      iszero\n      tag_112\n      jumpi\n        /* \"#utility.yul\":3129:3208   */\n      tag_113\n      tag_55\n      jump\t// in\n    tag_113:\n        /* \"#utility.yul\":3091:3210   */\n    tag_112:\n        /* \"#utility.yul\":3249:3250   */\n      0x00\n        /* \"#utility.yul\":3274:3327   */\n      tag_114\n        /* \"#utility.yul\":3319:3326   */\n      dup6\n        /* \"#utility.yul\":3310:3316   */\n      dup3\n        /* \"#utility.yul\":3299:3308   */\n      dup7\n        /* \"#utility.yul\":3295:3317   */\n      add\n        /* \"#utility.yul\":3274:3327   */\n      tag_58\n      jump\t// in\n    tag_114:\n        /* \"#utility.yul\":3264:3327   */\n      swap3\n      pop\n        /* \"#utility.yul\":3220:3337   */\n      pop\n        /* \"#utility.yul\":3376:3378   */\n      0x20\n        /* \"#utility.yul\":3402:3455   */\n      tag_115\n        /* \"#utility.yul\":3447:3454   */\n      dup6\n        /* \"#utility.yul\":3438:3444   */\n      dup3\n        /* \"#utility.yul\":3427:3436   */\n      dup7\n        /* \"#utility.yul\":3423:3445   */\n      add\n        /* \"#utility.yul\":3402:3455   */\n      tag_63\n      jump\t// in\n    tag_115:\n        /* \"#utility.yul\":3392:3455   */\n      swap2\n      pop\n        /* \"#utility.yul\":3347:3465   */\n      pop\n        /* \"#utility.yul\":2998:3472   */\n      swap3\n      pop\n      swap3\n      swap1\n      pop\n      jump\t// out\n        /* \"#utility.yul\":3478:3576   */\n    tag_66:\n        /* \"#utility.yul\":3529:3535   */\n      0x00\n        /* \"#utility.yul\":3563:3568   */\n      dup2\n        /* \"#utility.yul\":3557:3569   */\n      mload\n        /* \"#utility.yul\":3547:3569   */\n      swap1\n      pop\n        /* \"#utility.yul\":3478:3576   */\n      swap2\n      swap1\n      pop\n      jump\t// out\n        /* \"#utility.yul\":3582:3750   */\n    tag_67:\n        /* \"#utility.yul\":3665:3676   */\n      0x00\n        /* \"#utility.yul\":3699:3705   */\n      dup3\n        /* \"#utility.yul\":3694:3697   */\n      dup3\n        /* \"#utility.yul\":3687:3706   */\n      mstore\n        /* \"#utility.yul\":3739:3743   */\n      0x20\n        /* \"#utility.yul\":3734:3737   */\n      dup3\n        /* \"#utility.yul\":3730:3744   */\n      add\n        /* \"#utility.yul\":3715:3744   */\n      swap1\n      pop\n        /* \"#utility.yul\":3582:3750   */\n      swap3\n      swap2\n      pop\n      pop\n      jump\t// out\n        /* \"#utility.yul\":3756:3895   */\n    tag_68:\n        /* \"#utility.yul\":3845:3851   */\n      dup3\n        /* \"#utility.yul\":3840:3843   */\n      dup2\n        /* \"#utility.yul\":3835:3838   */\n      dup4\n        /* \"#utility.yul\":3829:3852   */\n      mcopy\n        /* \"#utility.yul\":3886:3887   */\n      0x00\n        /* \"#utility.yul\":3877:3883   */\n      dup4\n        /* \"#utility.yul\":3872:3875   */\n      dup4\n        /* \"#utility.yul\":3868:3884   */\n      add\n        /* \"#utility.yul\":3861:3888   */\n      mstore\n        /* \"#utility.yul\":3756:3895   */\n      pop\n      pop\n      pop\n      jump\t// out\n        /* \"#utility.yul\":3901:4003   */\n    tag_69:\n        /* \"#utility.yul\":3942:3948   */\n      0x00\n        /* \"#utility.yul\":3993:3995   */\n      0x1f\n        /* \"#utility.yul\":3989:3996   */\n      not\n        /* \"#utility.yul\":3984:3986   */\n      0x1f\n        /* \"#utility.yul\":3977:3982   */\n      dup4\n        /* \"#utility.yul\":3973:3987   */\n      add\n        /* \"#utility.yul\":3969:3997   */\n      and\n        /* \"#utility.yul\":3959:3997   */\n      swap1\n      pop\n        /* \"#utility.yul\":3901:4003   */\n      swap2\n      swap1\n      pop\n      jump\t// out\n        /* \"#utility.yul\":4009:4382   */\n    tag_70:\n        /* \"#utility.yul\":4095:4098   */\n      0x00\n        /* \"#utility.yul\":4123:4161   */\n      tag_121\n        /* \"#utility.yul\":4155:4160   */\n      dup3\n        /* \"#utility.yul\":4123:4161   */\n      tag_66\n      jump\t// in\n    tag_121:\n        /* \"#utility.yul\":4177:4247   */\n      tag_122\n        /* \"#utility.yul\":4240:4246   */\n      dup2\n        /* \"#utility.yul\":4235:4238   */\n      dup6\n        /* \"#utility.yul\":4177:4247   */\n      tag_67\n      jump\t// in\n    tag_122:\n        /* \"#utility.yul\":4170:4247   */\n      swap4\n      pop\n        /* \"#utility.yul\":4256:4321   */\n      tag_123\n        /* \"#utility.yul\":4314:4320   */\n      dup2\n        /* \"#utility.yul\":4309:4312   */\n      dup6\n        /* \"#utility.yul\":4302:4306   */\n      0x20\n        /* \"#utility.yul\":4295:4300   */\n      dup7\n        /* \"#utility.yul\":4291:4307   */\n      add\n        /* \"#utility.yul\":4256:4321   */\n      tag_68\n      jump\t// in\n    tag_123:\n        /* \"#utility.yul\":4346:4375   */\n      tag_124\n        /* \"#utility.yul\":4368:4374   */\n      dup2\n        /* \"#utility.yul\":4346:4375   */\n      tag_69\n      jump\t// in\n    tag_124:\n        /* \"#utility.yul\":4341:4344   */\n      dup5\n        /* \"#utility.yul\":4337:4376   */\n      add\n        /* \"#utility.yul\":4330:4376   */\n      swap2\n      pop\n        /* \"#utility.yul\":4099:4382   */\n      pop\n        /* \"#utility.yul\":4009:4382   */\n      swap3\n      swap2\n      pop\n      pop\n      jump\t// out\n        /* \"#utility.yul\":4388:5016   */\n    tag_37:\n        /* \"#utility.yul\":4577:4581   */\n      0x00\n        /* \"#utility.yul\":4615:4618   */\n      0x80\n        /* \"#utility.yul\":4604:4613   */\n      dup3\n        /* \"#utility.yul\":4600:4619   */\n      add\n        /* \"#utility.yul\":4592:4619   */\n      swap1\n      pop\n        /* \"#utility.yul\":4629:4700   */\n      tag_126\n        /* \"#utility.yul\":4697:4698   */\n      0x00\n        /* \"#utility.yul\":4686:4695   */\n      dup4\n        /* \"#utility.yul\":4682:4699   */\n      add\n        /* \"#utility.yul\":4673:4679   */\n      dup8\n        /* \"#utility.yul\":4629:4700   */\n      tag_61\n      jump\t// in\n    tag_126:\n        /* \"#utility.yul\":4710:4782   */\n      tag_127\n        /* \"#utility.yul\":4778:4780   */\n      0x20\n        /* \"#utility.yul\":4767:4776   */\n      dup4\n        /* \"#utility.yul\":4763:4781   */\n      add\n        /* \"#utility.yul\":4754:4760   */\n      dup7\n        /* \"#utility.yul\":4710:4782   */\n      tag_53\n      jump\t// in\n    tag_127:\n        /* \"#utility.yul\":4829:4838   */\n      dup2\n        /* \"#utility.yul\":4823:4827   */\n      dup2\n        /* \"#utility.yul\":4819:4839   */\n      sub\n        /* \"#utility.yul\":4814:4816   */\n      0x40\n        /* \"#utility.yul\":4803:4812   */\n      dup4\n        /* \"#utility.yul\":4799:4817   */\n      add\n        /* \"#utility.yul\":4792:4840   */\n      mstore\n        /* \"#utility.yul\":4857:4933   */\n      tag_128\n        /* \"#utility.yul\":4928:4932   */\n      dup2\n        /* \"#utility.yul\":4919:4925   */\n      dup6\n        /* \"#utility.yul\":4857:4933   */\n      tag_70\n      jump\t// in\n    tag_128:\n        /* \"#utility.yul\":4849:4933   */\n      swap1\n      pop\n        /* \"#utility.yul\":4943:5009   */\n      tag_129\n        /* \"#utility.yul\":5005:5007   */\n      0x60\n        /* \"#utility.yul\":4994:5003   */\n      dup4\n        /* \"#utility.yul\":4990:5008   */\n      add\n        /* \"#utility.yul\":4981:4987   */\n      dup5\n        /* \"#utility.yul\":4943:5009   */\n      tag_65\n      jump\t// in\n    tag_129:\n        /* \"#utility.yul\":4388:5016   */\n      swap6\n      swap5\n      pop\n      pop\n      pop\n      pop\n      pop\n      jump\t// out\n        /* \"#utility.yul\":5022:5202   */\n    tag_71:\n        /* \"#utility.yul\":5070:5147   */\n      0x4e487b7100000000000000000000000000000000000000000000000000000000\n        /* \"#utility.yul\":5067:5068   */\n      0x00\n        /* \"#utility.yul\":5060:5148   */\n      mstore\n        /* \"#utility.yul\":5167:5171   */\n      0x22\n        /* \"#utility.yul\":5164:5165   */\n      0x04\n        /* \"#utility.yul\":5157:5172   */\n      mstore\n        /* \"#utility.yul\":5191:5195   */\n      0x24\n        /* \"#utility.yul\":5188:5189   */\n      0x00\n        /* \"#utility.yul\":5181:5196   */\n      revert\n        /* \"#utility.yul\":5208:5528   */\n    tag_47:\n        /* \"#utility.yul\":5252:5258   */\n      0x00\n        /* \"#utility.yul\":5289:5290   */\n      0x02\n        /* \"#utility.yul\":5283:5287   */\n      dup3\n        /* \"#utility.yul\":5279:5291   */\n      div\n        /* \"#utility.yul\":5269:5291   */\n      swap1\n      pop\n        /* \"#utility.yul\":5336:5337   */\n      0x01\n        /* \"#utility.yul\":5330:5334   */\n      dup3\n        /* \"#utility.yul\":5326:5338   */\n      and\n        /* \"#utility.yul\":5357:5375   */\n      dup1\n        /* \"#utility.yul\":5347:5428   */\n      tag_132\n      jumpi\n        /* \"#utility.yul\":5413:5417   */\n      0x7f\n        /* \"#utility.yul\":5405:5411   */\n      dup3\n        /* \"#utility.yul\":5401:5418   */\n      and\n        /* \"#utility.yul\":5391:5418   */\n      swap2\n      pop\n        /* \"#utility.yul\":5347:5428   */\n    tag_132:\n        /* \"#utility.yul\":5475:5477   */\n      0x20\n        /* \"#utility.yul\":5467:5473   */\n      dup3\n        /* \"#utility.yul\":5464:5478   */\n      lt\n        /* \"#utility.yul\":5444:5462   */\n      dup2\n        /* \"#utility.yul\":5441:5479   */\n      sub\n        /* \"#utility.yul\":5438:5522   */\n      tag_133\n      jumpi\n        /* \"#utility.yul\":5494:5512   */\n      tag_134\n      tag_71\n      jump\t// in\n    tag_134:\n        /* \"#utility.yul\":5438:5522   */\n    tag_133:\n        /* \"#utility.yul\":5259:5528   */\n      pop\n        /* \"#utility.yul\":5208:5528   */\n      swap2\n      swap1\n      pop\n      jump\t// out\n\n    auxdata: 0xa2646970667358221220544510fbf5761a9fee0409be5e3f6cc8163439bb13d5ab4bf07d020d7e570d7864736f6c634300081a0033\n}\n",
				"bytecode": {
					"linkReferences": {},
					"object": "608060405234801561000f575f80fd5b50604051610d11380380610d11833981810160405281019061003191906104a2565b5f825111610074576040517f08c379a000000000000000000000000000000000000000000000000000000000815260040161006b90610556565b60405180910390fd5b8151811115801561008457505f81115b6100c3576040517f08c379a00000000000000000000000000000000000000000000000000000000081526004016100ba906105be565b60405180910390fd5b5f5b82518110156102a5575f8382815181106100e2576100e16105dc565b5b602002602001015190505f73ffffffffffffffffffffffffffffffffffffffff168173ffffffffffffffffffffffffffffffffffffffff160361015a576040517f08c379a000000000000000000000000000000000000000000000000000000000815260040161015190610653565b60405180910390fd5b60015f8273ffffffffffffffffffffffffffffffffffffffff1673ffffffffffffffffffffffffffffffffffffffff1681526020019081526020015f205f9054906101000a900460ff16156101e4576040517f08c379a00000000000000000000000000000000000000000000000000000000081526004016101db906106bb565b60405180910390fd5b6001805f8373ffffffffffffffffffffffffffffffffffffffff1673ffffffffffffffffffffffffffffffffffffffff1681526020019081526020015f205f6101000a81548160ff0219169083151502179055505f81908060018154018082558091505060019003905f5260205f20015f9091909190916101000a81548173ffffffffffffffffffffffffffffffffffffffff021916908373ffffffffffffffffffffffffffffffffffffffff1602179055505080806001019150506100c5565b508060028190555050506106d9565b5f604051905090565b5f80fd5b5f80fd5b5f80fd5b5f601f19601f8301169050919050565b7f4e487b71000000000000000000000000000000000000000000000000000000005f52604160045260245ffd5b61030f826102c9565b810181811067ffffffffffffffff8211171561032e5761032d6102d9565b5b80604052505050565b5f6103406102b4565b905061034c8282610306565b919050565b5f67ffffffffffffffff82111561036b5761036a6102d9565b5b602082029050602081019050919050565b5f80fd5b5f73ffffffffffffffffffffffffffffffffffffffff82169050919050565b5f6103a982610380565b9050919050565b6103b98161039f565b81146103c3575f80fd5b50565b5f815190506103d4816103b0565b92915050565b5f6103ec6103e784610351565b610337565b9050808382526020820190506020840283018581111561040f5761040e61037c565b5b835b81811015610438578061042488826103c6565b845260208401935050602081019050610411565b5050509392505050565b5f82601f830112610456576104556102c5565b5b81516104668482602086016103da565b91505092915050565b5f819050919050565b6104818161046f565b811461048b575f80fd5b50565b5f8151905061049c81610478565b92915050565b5f80604083850312156104b8576104b76102bd565b5b5f83015167ffffffffffffffff8111156104d5576104d46102c1565b5b6104e185828601610442565b92505060206104f28582860161048e565b9150509250929050565b5f82825260208201905092915050565b7f6e6f7420656e6f756768206164647265737300000000000000000000000000005f82015250565b5f6105406012836104fc565b915061054b8261050c565b602082019050919050565b5f6020820190508181035f83015261056d81610534565b9050919050565b7f77726f6e67207265717569726564206e756d62657200000000000000000000005f82015250565b5f6105a86015836104fc565b91506105b382610574565b602082019050919050565b5f6020820190508181035f8301526105d58161059c565b9050919050565b7f4e487b71000000000000000000000000000000000000000000000000000000005f52603260045260245ffd5b7f77726f6e672061646472657373000000000000000000000000000000000000005f82015250565b5f61063d600d836104fc565b915061064882610609565b602082019050919050565b5f6020820190508181035f83015261066a81610631565b9050919050565b7f6f776e6572206973206e6f7420756e69717565000000000000000000000000005f82015250565b5f6106a56013836104fc565b91506106b082610671565b602082019050919050565b5f6020820190508181035f8301526106d281610699565b9050919050565b61062b806106e65f395ff3fe60806040526004361061004d575f3560e01c8063025e7c27146100a65780632f54bf6e146100e25780638253951a1461011e5780639ace38c21461015a578063dc8452cd14610199576100a2565b366100a2573373ffffffffffffffffffffffffffffffffffffffff167fe1fffcc4923d04b559f4d29a8bfc6cda04eb5b0d3c460751c2402c5c5cc9109c34604051610098919061034e565b60405180910390a2005b5f80fd5b3480156100b1575f80fd5b506100cc60048036038101906100c79190610395565b6101c3565b6040516100d991906103ff565b60405180910390f35b3480156100ed575f80fd5b5061010860048036038101906101039190610442565b6101fd565b6040516101159190610487565b60405180910390f35b348015610129575f80fd5b50610144600480360381019061013f91906104a0565b61021a565b6040516101519190610487565b60405180910390f35b348015610165575f80fd5b50610180600480360381019061017b9190610395565b610244565b604051610190949392919061054e565b60405180910390f35b3480156101a4575f80fd5b506101ad610330565b6040516101ba919061034e565b60405180910390f35b5f81815481106101d1575f80fd5b905f5260205f20015f915054906101000a900473ffffffffffffffffffffffffffffffffffffffff1681565b6001602052805f5260405f205f915054906101000a900460ff1681565b6004602052815f5260405f20602052805f5260405f205f915091509054906101000a900460ff1681565b60038181548110610253575f80fd5b905f5260205f2090600402015f91509050805f015f9054906101000a900473ffffffffffffffffffffffffffffffffffffffff169080600101549080600201805461029d906105c5565b80601f01602080910402602001604051908101604052809291908181526020018280546102c9906105c5565b80156103145780601f106102eb57610100808354040283529160200191610314565b820191905f5260205f20905b8154815290600101906020018083116102f757829003601f168201915b505050505090806003015f9054906101000a900460ff16905084565b60025481565b5f819050919050565b61034881610336565b82525050565b5f6020820190506103615f83018461033f565b92915050565b5f80fd5b61037481610336565b811461037e575f80fd5b50565b5f8135905061038f8161036b565b92915050565b5f602082840312156103aa576103a9610367565b5b5f6103b784828501610381565b91505092915050565b5f73ffffffffffffffffffffffffffffffffffffffff82169050919050565b5f6103e9826103c0565b9050919050565b6103f9816103df565b82525050565b5f6020820190506104125f8301846103f0565b92915050565b610421816103df565b811461042b575f80fd5b50565b5f8135905061043c81610418565b92915050565b5f6020828403121561045757610456610367565b5b5f6104648482850161042e565b91505092915050565b5f8115159050919050565b6104818161046d565b82525050565b5f60208201905061049a5f830184610478565b92915050565b5f80604083850312156104b6576104b5610367565b5b5f6104c385828601610381565b92505060206104d48582860161042e565b9150509250929050565b5f81519050919050565b5f82825260208201905092915050565b8281835e5f83830152505050565b5f601f19601f8301169050919050565b5f610520826104de565b61052a81856104e8565b935061053a8185602086016104f8565b61054381610506565b840191505092915050565b5f6080820190506105615f8301876103f0565b61056e602083018661033f565b81810360408301526105808185610516565b905061058f6060830184610478565b95945050505050565b7f4e487b71000000000000000000000000000000000000000000000000000000005f52602260045260245ffd5b5f60028204905060018216806105dc57607f821691505b6020821081036105ef576105ee610598565b5b5091905056fea2646970667358221220544510fbf5761a9fee0409be5e3f6cc8163439bb13d5ab4bf07d020d7e570d7864736f6c634300081a0033",
					"opcodes": "PUSH1 0x80 PUSH1 0x40 MSTORE CALLVALUE DUP1 ISZERO PUSH2 0xF JUMPI PUSH0 DUP1 REVERT JUMPDEST POP PUSH1 0x40 MLOAD PUSH2 0xD11 CODESIZE SUB DUP1 PUSH2 0xD11 DUP4 CODECOPY DUP2 DUP2 ADD PUSH1 0x40 MSTORE DUP2 ADD SWAP1 PUSH2 0x31 SWAP2 SWAP1 PUSH2 0x4A2 JUMP JUMPDEST PUSH0 DUP3 MLOAD GT PUSH2 0x74 JUMPI PUSH1 0x40 MLOAD PUSH32 0x8C379A000000000000000000000000000000000000000000000000000000000 DUP2 MSTORE PUSH1 0x4 ADD PUSH2 0x6B SWAP1 PUSH2 0x556 JUMP JUMPDEST PUSH1 0x40 MLOAD DUP1 SWAP2 SUB SWAP1 REVERT JUMPDEST DUP2 MLOAD DUP2 GT ISZERO DUP1 ISZERO PUSH2 0x84 JUMPI POP PUSH0 DUP2 GT JUMPDEST PUSH2 0xC3 JUMPI PUSH1 0x40 MLOAD PUSH32 0x8C379A000000000000000000000000000000000000000000000000000000000 DUP2 MSTORE PUSH1 0x4 ADD PUSH2 0xBA SWAP1 PUSH2 0x5BE JUMP JUMPDEST PUSH1 0x40 MLOAD DUP1 SWAP2 SUB SWAP1 REVERT JUMPDEST PUSH0 JUMPDEST DUP3 MLOAD DUP2 LT ISZERO PUSH2 0x2A5 JUMPI PUSH0 DUP4 DUP3 DUP2 MLOAD DUP2 LT PUSH2 0xE2 JUMPI PUSH2 0xE1 PUSH2 0x5DC JUMP JUMPDEST JUMPDEST PUSH1 0x20 MUL PUSH1 0x20 ADD ADD MLOAD SWAP1 POP PUSH0 PUSH20 0xFFFFFFFFFFFFFFFFFFFFFFFFFFFFFFFFFFFFFFFF AND DUP2 PUSH20 0xFFFFFFFFFFFFFFFFFFFFFFFFFFFFFFFFFFFFFFFF AND SUB PUSH2 0x15A JUMPI PUSH1 0x40 MLOAD PUSH32 0x8C379A000000000000000000000000000000000000000000000000000000000 DUP2 MSTORE PUSH1 0x4 ADD PUSH2 0x151 SWAP1 PUSH2 0x653 JUMP JUMPDEST PUSH1 0x40 MLOAD DUP1 SWAP2 SUB SWAP1 REVERT JUMPDEST PUSH1 0x1 PUSH0 DUP3 PUSH20 0xFFFFFFFFFFFFFFFFFFFFFFFFFFFFFFFFFFFFFFFF AND PUSH20 0xFFFFFFFFFFFFFFFFFFFFFFFFFFFFFFFFFFFFFFFF AND DUP2 MSTORE PUSH1 0x20 ADD SWAP1 DUP2 MSTORE PUSH1 0x20 ADD PUSH0 KECCAK256 PUSH0 SWAP1 SLOAD SWAP1 PUSH2 0x100 EXP SWAP1 DIV PUSH1 0xFF AND ISZERO PUSH2 0x1E4 JUMPI PUSH1 0x40 MLOAD PUSH32 0x8C379A000000000000000000000000000000000000000000000000000000000 DUP2 MSTORE PUSH1 0x4 ADD PUSH2 0x1DB SWAP1 PUSH2 0x6BB JUMP JUMPDEST PUSH1 0x40 MLOAD DUP1 SWAP2 SUB SWAP1 REVERT JUMPDEST PUSH1 0x1 DUP1 PUSH0 DUP4 PUSH20 0xFFFFFFFFFFFFFFFFFFFFFFFFFFFFFFFFFFFFFFFF AND PUSH20 0xFFFFFFFFFFFFFFFFFFFFFFFFFFFFFFFFFFFFFFFF AND DUP2 MSTORE PUSH1 0x20 ADD SWAP1 DUP2 MSTORE PUSH1 0x20 ADD PUSH0 KECCAK256 PUSH0 PUSH2 0x100 EXP DUP2 SLOAD DUP2 PUSH1 0xFF MUL NOT AND SWAP1 DUP4 ISZERO ISZERO MUL OR SWAP1 SSTORE POP PUSH0 DUP2 SWAP1 DUP1 PUSH1 0x1 DUP2 SLOAD ADD DUP1 DUP3 SSTORE DUP1 SWAP2 POP POP PUSH1 0x1 SWAP1 SUB SWAP1 PUSH0 MSTORE PUSH1 0x20 PUSH0 KECCAK256 ADD PUSH0 SWAP1 SWAP2 SWAP1 SWAP2 SWAP1 SWAP2 PUSH2 0x100 EXP DUP2 SLOAD DUP2 PUSH20 0xFFFFFFFFFFFFFFFFFFFFFFFFFFFFFFFFFFFFFFFF MUL NOT AND SWAP1 DUP4 PUSH20 0xFFFFFFFFFFFFFFFFFFFFFFFFFFFFFFFFFFFFFFFF AND MUL OR SWAP1 SSTORE POP POP DUP1 DUP1 PUSH1 0x1 ADD SWAP2 POP POP PUSH2 0xC5 JUMP JUMPDEST POP DUP1 PUSH1 0x2 DUP2 SWAP1 SSTORE POP POP POP PUSH2 0x6D9 JUMP JUMPDEST PUSH0 PUSH1 0x40 MLOAD SWAP1 POP SWAP1 JUMP JUMPDEST PUSH0 DUP1 REVERT JUMPDEST PUSH0 DUP1 REVERT JUMPDEST PUSH0 DUP1 REVERT JUMPDEST PUSH0 PUSH1 0x1F NOT PUSH1 0x1F DUP4 ADD AND SWAP1 POP SWAP2 SWAP1 POP JUMP JUMPDEST PUSH32 0x4E487B7100000000000000000000000000000000000000000000000000000000 PUSH0 MSTORE PUSH1 0x41 PUSH1 0x4 MSTORE PUSH1 0x24 PUSH0 REVERT JUMPDEST PUSH2 0x30F DUP3 PUSH2 0x2C9 JUMP JUMPDEST DUP2 ADD DUP2 DUP2 LT PUSH8 0xFFFFFFFFFFFFFFFF DUP3 GT OR ISZERO PUSH2 0x32E JUMPI PUSH2 0x32D PUSH2 0x2D9 JUMP JUMPDEST JUMPDEST DUP1 PUSH1 0x40 MSTORE POP POP POP JUMP JUMPDEST PUSH0 PUSH2 0x340 PUSH2 0x2B4 JUMP JUMPDEST SWAP1 POP PUSH2 0x34C DUP3 DUP3 PUSH2 0x306 JUMP JUMPDEST SWAP2 SWAP1 POP JUMP JUMPDEST PUSH0 PUSH8 0xFFFFFFFFFFFFFFFF DUP3 GT ISZERO PUSH2 0x36B JUMPI PUSH2 0x36A PUSH2 0x2D9 JUMP JUMPDEST JUMPDEST PUSH1 0x20 DUP3 MUL SWAP1 POP PUSH1 0x20 DUP2 ADD SWAP1 POP SWAP2 SWAP1 POP JUMP JUMPDEST PUSH0 DUP1 REVERT JUMPDEST PUSH0 PUSH20 0xFFFFFFFFFFFFFFFFFFFFFFFFFFFFFFFFFFFFFFFF DUP3 AND SWAP1 POP SWAP2 SWAP1 POP JUMP JUMPDEST PUSH0 PUSH2 0x3A9 DUP3 PUSH2 0x380 JUMP JUMPDEST SWAP1 POP SWAP2 SWAP1 POP JUMP JUMPDEST PUSH2 0x3B9 DUP2 PUSH2 0x39F JUMP JUMPDEST DUP2 EQ PUSH2 0x3C3 JUMPI PUSH0 DUP1 REVERT JUMPDEST POP JUMP JUMPDEST PUSH0 DUP2 MLOAD SWAP1 POP PUSH2 0x3D4 DUP2 PUSH2 0x3B0 JUMP JUMPDEST SWAP3 SWAP2 POP POP JUMP JUMPDEST PUSH0 PUSH2 0x3EC PUSH2 0x3E7 DUP5 PUSH2 0x351 JUMP JUMPDEST PUSH2 0x337 JUMP JUMPDEST SWAP1 POP DUP1 DUP4 DUP3 MSTORE PUSH1 0x20 DUP3 ADD SWAP1 POP PUSH1 0x20 DUP5 MUL DUP4 ADD DUP6 DUP2 GT ISZERO PUSH2 0x40F JUMPI PUSH2 0x40E PUSH2 0x37C JUMP JUMPDEST JUMPDEST DUP4 JUMPDEST DUP2 DUP2 LT ISZERO PUSH2 0x438 JUMPI DUP1 PUSH2 0x424 DUP9 DUP3 PUSH2 0x3C6 JUMP JUMPDEST DUP5 MSTORE PUSH1 0x20 DUP5 ADD SWAP4 POP POP PUSH1 0x20 DUP2 ADD SWAP1 POP PUSH2 0x411 JUMP JUMPDEST POP POP POP SWAP4 SWAP3 POP POP POP JUMP JUMPDEST PUSH0 DUP3 PUSH1 0x1F DUP4 ADD SLT PUSH2 0x456 JUMPI PUSH2 0x455 PUSH2 0x2C5 JUMP JUMPDEST JUMPDEST DUP2 MLOAD PUSH2 0x466 DUP5 DUP3 PUSH1 0x20 DUP7 ADD PUSH2 0x3DA JUMP JUMPDEST SWAP2 POP POP SWAP3 SWAP2 POP POP JUMP JUMPDEST PUSH0 DUP2 SWAP1 POP SWAP2 SWAP1 POP JUMP JUMPDEST PUSH2 0x481 DUP2 PUSH2 0x46F JUMP JUMPDEST DUP2 EQ PUSH2 0x48B JUMPI PUSH0 DUP1 REVERT JUMPDEST POP JUMP JUMPDEST PUSH0 DUP2 MLOAD SWAP1 POP PUSH2 0x49C DUP2 PUSH2 0x478 JUMP JUMPDEST SWAP3 SWAP2 POP POP JUMP JUMPDEST PUSH0 DUP1 PUSH1 0x40 DUP4 DUP6 SUB SLT ISZERO PUSH2 0x4B8 JUMPI PUSH2 0x4B7 PUSH2 0x2BD JUMP JUMPDEST JUMPDEST PUSH0 DUP4 ADD MLOAD PUSH8 0xFFFFFFFFFFFFFFFF DUP2 GT ISZERO PUSH2 0x4D5 JUMPI PUSH2 0x4D4 PUSH2 0x2C1 JUMP JUMPDEST JUMPDEST PUSH2 0x4E1 DUP6 DUP3 DUP7 ADD PUSH2 0x442 JUMP JUMPDEST SWAP3 POP POP PUSH1 0x20 PUSH2 0x4F2 DUP6 DUP3 DUP7 ADD PUSH2 0x48E JUMP JUMPDEST SWAP2 POP POP SWAP3 POP SWAP3 SWAP1 POP JUMP JUMPDEST PUSH0 DUP3 DUP3 MSTORE PUSH1 0x20 DUP3 ADD SWAP1 POP SWAP3 SWAP2 POP POP JUMP JUMPDEST PUSH32 0x6E6F7420656E6F75676820616464726573730000000000000000000000000000 PUSH0 DUP3 ADD MSTORE POP JUMP JUMPDEST PUSH0 PUSH2 0x540 PUSH1 0x12 DUP4 PUSH2 0x4FC JUMP JUMPDEST SWAP2 POP PUSH2 0x54B DUP3 PUSH2 0x50C JUMP JUMPDEST PUSH1 0x20 DUP3 ADD SWAP1 POP SWAP2 SWAP1 POP JUMP JUMPDEST PUSH0 PUSH1 0x20 DUP3 ADD SWAP1 POP DUP2 DUP2 SUB PUSH0 DUP4 ADD MSTORE PUSH2 0x56D DUP2 PUSH2 0x534 JUMP JUMPDEST SWAP1 POP SWAP2 SWAP1 POP JUMP JUMPDEST PUSH32 0x77726F6E67207265717569726564206E756D6265720000000000000000000000 PUSH0 DUP3 ADD MSTORE POP JUMP JUMPDEST PUSH0 PUSH2 0x5A8 PUSH1 0x15 DUP4 PUSH2 0x4FC JUMP JUMPDEST SWAP2 POP PUSH2 0x5B3 DUP3 PUSH2 0x574 JUMP JUMPDEST PUSH1 0x20 DUP3 ADD SWAP1 POP SWAP2 SWAP1 POP JUMP JUMPDEST PUSH0 PUSH1 0x20 DUP3 ADD SWAP1 POP DUP2 DUP2 SUB PUSH0 DUP4 ADD MSTORE PUSH2 0x5D5 DUP2 PUSH2 0x59C JUMP JUMPDEST SWAP1 POP SWAP2 SWAP1 POP JUMP JUMPDEST PUSH32 0x4E487B7100000000000000000000000000000000000000000000000000000000 PUSH0 MSTORE PUSH1 0x32 PUSH1 0x4 MSTORE PUSH1 0x24 PUSH0 REVERT JUMPDEST PUSH32 0x77726F6E67206164647265737300000000000000000000000000000000000000 PUSH0 DUP3 ADD MSTORE POP JUMP JUMPDEST PUSH0 PUSH2 0x63D PUSH1 0xD DUP4 PUSH2 0x4FC JUMP JUMPDEST SWAP2 POP PUSH2 0x648 DUP3 PUSH2 0x609 JUMP JUMPDEST PUSH1 0x20 DUP3 ADD SWAP1 POP SWAP2 SWAP1 POP JUMP JUMPDEST PUSH0 PUSH1 0x20 DUP3 ADD SWAP1 POP DUP2 DUP2 SUB PUSH0 DUP4 ADD MSTORE PUSH2 0x66A DUP2 PUSH2 0x631 JUMP JUMPDEST SWAP1 POP SWAP2 SWAP1 POP JUMP JUMPDEST PUSH32 0x6F776E6572206973206E6F7420756E6971756500000000000000000000000000 PUSH0 DUP3 ADD MSTORE POP JUMP JUMPDEST PUSH0 PUSH2 0x6A5 PUSH1 0x13 DUP4 PUSH2 0x4FC JUMP JUMPDEST SWAP2 POP PUSH2 0x6B0 DUP3 PUSH2 0x671 JUMP JUMPDEST PUSH1 0x20 DUP3 ADD SWAP1 POP SWAP2 SWAP1 POP JUMP JUMPDEST PUSH0 PUSH1 0x20 DUP3 ADD SWAP1 POP DUP2 DUP2 SUB PUSH0 DUP4 ADD MSTORE PUSH2 0x6D2 DUP2 PUSH2 0x699 JUMP JUMPDEST SWAP1 POP SWAP2 SWAP1 POP JUMP JUMPDEST PUSH2 0x62B DUP1 PUSH2 0x6E6 PUSH0 CODECOPY PUSH0 RETURN INVALID PUSH1 0x80 PUSH1 0x40 MSTORE PUSH1 0x4 CALLDATASIZE LT PUSH2 0x4D JUMPI PUSH0 CALLDATALOAD PUSH1 0xE0 SHR DUP1 PUSH4 0x25E7C27 EQ PUSH2 0xA6 JUMPI DUP1 PUSH4 0x2F54BF6E EQ PUSH2 0xE2 JUMPI DUP1 PUSH4 0x8253951A EQ PUSH2 0x11E JUMPI DUP1 PUSH4 0x9ACE38C2 EQ PUSH2 0x15A JUMPI DUP1 PUSH4 0xDC8452CD EQ PUSH2 0x199 JUMPI PUSH2 0xA2 JUMP JUMPDEST CALLDATASIZE PUSH2 0xA2 JUMPI CALLER PUSH20 0xFFFFFFFFFFFFFFFFFFFFFFFFFFFFFFFFFFFFFFFF AND PUSH32 0xE1FFFCC4923D04B559F4D29A8BFC6CDA04EB5B0D3C460751C2402C5C5CC9109C CALLVALUE PUSH1 0x40 MLOAD PUSH2 0x98 SWAP2 SWAP1 PUSH2 0x34E JUMP JUMPDEST PUSH1 0x40 MLOAD DUP1 SWAP2 SUB SWAP1 LOG2 STOP JUMPDEST PUSH0 DUP1 REVERT JUMPDEST CALLVALUE DUP1 ISZERO PUSH2 0xB1 JUMPI PUSH0 DUP1 REVERT JUMPDEST POP PUSH2 0xCC PUSH1 0x4 DUP1 CALLDATASIZE SUB DUP2 ADD SWAP1 PUSH2 0xC7 SWAP2 SWAP1 PUSH2 0x395 JUMP JUMPDEST PUSH2 0x1C3 JUMP JUMPDEST PUSH1 0x40 MLOAD PUSH2 0xD9 SWAP2 SWAP1 PUSH2 0x3FF JUMP JUMPDEST PUSH1 0x40 MLOAD DUP1 SWAP2 SUB SWAP1 RETURN JUMPDEST CALLVALUE DUP1 ISZERO PUSH2 0xED JUMPI PUSH0 DUP1 REVERT JUMPDEST POP PUSH2 0x108 PUSH1 0x4 DUP1 CALLDATASIZE SUB DUP2 ADD SWAP1 PUSH2 0x103 SWAP2 SWAP1 PUSH2 0x442 JUMP JUMPDEST PUSH2 0x1FD JUMP JUMPDEST PUSH1 0x40 MLOAD PUSH2 0x115 SWAP2 SWAP1 PUSH2 0x487 JUMP JUMPDEST PUSH1 0x40 MLOAD DUP1 SWAP2 SUB SWAP1 RETURN JUMPDEST CALLVALUE DUP1 ISZERO PUSH2 0x129 JUMPI PUSH0 DUP1 REVERT JUMPDEST POP PUSH2 0x144 PUSH1 0x4 DUP1 CALLDATASIZE SUB DUP2 ADD SWAP1 PUSH2 0x13F SWAP2 SWAP1 PUSH2 0x4A0 JUMP JUMPDEST PUSH2 0x21A JUMP JUMPDEST PUSH1 0x40 MLOAD PUSH2 0x151 SWAP2 SWAP1 PUSH2 0x487 JUMP JUMPDEST PUSH1 0x40 MLOAD DUP1 SWAP2 SUB SWAP1 RETURN JUMPDEST CALLVALUE DUP1 ISZERO PUSH2 0x165 JUMPI PUSH0 DUP1 REVERT JUMPDEST POP PUSH2 0x180 PUSH1 0x4 DUP1 CALLDATASIZE SUB DUP2 ADD SWAP1 PUSH2 0x17B SWAP2 SWAP1 PUSH2 0x395 JUMP JUMPDEST PUSH2 0x244 JUMP JUMPDEST PUSH1 0x40 MLOAD PUSH2 0x190 SWAP5 SWAP4 SWAP3 SWAP2 SWAP1 PUSH2 0x54E JUMP JUMPDEST PUSH1 0x40 MLOAD DUP1 SWAP2 SUB SWAP1 RETURN JUMPDEST CALLVALUE DUP1 ISZERO PUSH2 0x1A4 JUMPI PUSH0 DUP1 REVERT JUMPDEST POP PUSH2 0x1AD PUSH2 0x330 JUMP JUMPDEST PUSH1 0x40 MLOAD PUSH2 0x1BA SWAP2 SWAP1 PUSH2 0x34E JUMP JUMPDEST PUSH1 0x40 MLOAD DUP1 SWAP2 SUB SWAP1 RETURN JUMPDEST PUSH0 DUP2 DUP2 SLOAD DUP2 LT PUSH2 0x1D1 JUMPI PUSH0 DUP1 REVERT JUMPDEST SWAP1 PUSH0 MSTORE PUSH1 0x20 PUSH0 KECCAK256 ADD PUSH0 SWAP2 POP SLOAD SWAP1 PUSH2 0x100 EXP SWAP1 DIV PUSH20 0xFFFFFFFFFFFFFFFFFFFFFFFFFFFFFFFFFFFFFFFF AND DUP2 JUMP JUMPDEST PUSH1 0x1 PUSH1 0x20 MSTORE DUP1 PUSH0 MSTORE PUSH1 0x40 PUSH0 KECCAK256 PUSH0 SWAP2 POP SLOAD SWAP1 PUSH2 0x100 EXP SWAP1 DIV PUSH1 0xFF AND DUP2 JUMP JUMPDEST PUSH1 0x4 PUSH1 0x20 MSTORE DUP2 PUSH0 MSTORE PUSH1 0x40 PUSH0 KECCAK256 PUSH1 0x20 MSTORE DUP1 PUSH0 MSTORE PUSH1 0x40 PUSH0 KECCAK256 PUSH0 SWAP2 POP SWAP2 POP SWAP1 SLOAD SWAP1 PUSH2 0x100 EXP SWAP1 DIV PUSH1 0xFF AND DUP2 JUMP JUMPDEST PUSH1 0x3 DUP2 DUP2 SLOAD DUP2 LT PUSH2 0x253 JUMPI PUSH0 DUP1 REVERT JUMPDEST SWAP1 PUSH0 MSTORE PUSH1 0x20 PUSH0 KECCAK256 SWAP1 PUSH1 0x4 MUL ADD PUSH0 SWAP2 POP SWAP1 POP DUP1 PUSH0 ADD PUSH0 SWAP1 SLOAD SWAP1 PUSH2 0x100 EXP SWAP1 DIV PUSH20 0xFFFFFFFFFFFFFFFFFFFFFFFFFFFFFFFFFFFFFFFF AND SWAP1 DUP1 PUSH1 0x1 ADD SLOAD SWAP1 DUP1 PUSH1 0x2 ADD DUP1 SLOAD PUSH2 0x29D SWAP1 PUSH2 0x5C5 JUMP JUMPDEST DUP1 PUSH1 0x1F ADD PUSH1 0x20 DUP1 SWAP2 DIV MUL PUSH1 0x20 ADD PUSH1 0x40 MLOAD SWAP1 DUP2 ADD PUSH1 0x40 MSTORE DUP1 SWAP3 SWAP2 SWAP1 DUP2 DUP2 MSTORE PUSH1 0x20 ADD DUP3 DUP1 SLOAD PUSH2 0x2C9 SWAP1 PUSH2 0x5C5 JUMP JUMPDEST DUP1 ISZERO PUSH2 0x314 JUMPI DUP1 PUSH1 0x1F LT PUSH2 0x2EB JUMPI PUSH2 0x100 DUP1 DUP4 SLOAD DIV MUL DUP4 MSTORE SWAP2 PUSH1 0x20 ADD SWAP2 PUSH2 0x314 JUMP JUMPDEST DUP3 ADD SWAP2 SWAP1 PUSH0 MSTORE PUSH1 0x20 PUSH0 KECCAK256 SWAP1 JUMPDEST DUP2 SLOAD DUP2 MSTORE SWAP1 PUSH1 0x1 ADD SWAP1 PUSH1 0x20 ADD DUP1 DUP4 GT PUSH2 0x2F7 JUMPI DUP3 SWAP1 SUB PUSH1 0x1F AND DUP3 ADD SWAP2 JUMPDEST POP POP POP POP POP SWAP1 DUP1 PUSH1 0x3 ADD PUSH0 SWAP1 SLOAD SWAP1 PUSH2 0x100 EXP SWAP1 DIV PUSH1 0xFF AND SWAP1 POP DUP5 JUMP JUMPDEST PUSH1 0x2 SLOAD DUP2 JUMP JUMPDEST PUSH0 DUP2 SWAP1 POP SWAP2 SWAP1 POP JUMP JUMPDEST PUSH2 0x348 DUP2 PUSH2 0x336 JUMP JUMPDEST DUP3 MSTORE POP POP JUMP JUMPDEST PUSH0 PUSH1 0x20 DUP3 ADD SWAP1 POP PUSH2 0x361 PUSH0 DUP4 ADD DUP5 PUSH2 0x33F JUMP JUMPDEST SWAP3 SWAP2 POP POP JUMP JUMPDEST PUSH0 DUP1 REVERT JUMPDEST PUSH2 0x374 DUP2 PUSH2 0x336 JUMP JUMPDEST DUP2 EQ PUSH2 0x37E JUMPI PUSH0 DUP1 REVERT JUMPDEST POP JUMP JUMPDEST PUSH0 DUP2 CALLDATALOAD SWAP1 POP PUSH2 0x38F DUP2 PUSH2 0x36B JUMP JUMPDEST SWAP3 SWAP2 POP POP JUMP JUMPDEST PUSH0 PUSH1 0x20 DUP3 DUP5 SUB SLT ISZERO PUSH2 0x3AA JUMPI PUSH2 0x3A9 PUSH2 0x367 JUMP JUMPDEST JUMPDEST PUSH0 PUSH2 0x3B7 DUP5 DUP3 DUP6 ADD PUSH2 0x381 JUMP JUMPDEST SWAP2 POP POP SWAP3 SWAP2 POP POP JUMP JUMPDEST PUSH0 PUSH20 0xFFFFFFFFFFFFFFFFFFFFFFFFFFFFFFFFFFFFFFFF DUP3 AND SWAP1 POP SWAP2 SWAP1 POP JUMP JUMPDEST PUSH0 PUSH2 0x3E9 DUP3 PUSH2 0x3C0 JUMP JUMPDEST SWAP1 POP SWAP2 SWAP1 POP JUMP JUMPDEST PUSH2 0x3F9 DUP2 PUSH2 0x3DF JUMP JUMPDEST DUP3 MSTORE POP POP JUMP JUMPDEST PUSH0 PUSH1 0x20 DUP3 ADD SWAP1 POP PUSH2 0x412 PUSH0 DUP4 ADD DUP5 PUSH2 0x3F0 JUMP JUMPDEST SWAP3 SWAP2 POP POP JUMP JUMPDEST PUSH2 0x421 DUP2 PUSH2 0x3DF JUMP JUMPDEST DUP2 EQ PUSH2 0x42B JUMPI PUSH0 DUP1 REVERT JUMPDEST POP JUMP JUMPDEST PUSH0 DUP2 CALLDATALOAD SWAP1 POP PUSH2 0x43C DUP2 PUSH2 0x418 JUMP JUMPDEST SWAP3 SWAP2 POP POP JUMP JUMPDEST PUSH0 PUSH1 0x20 DUP3 DUP5 SUB SLT ISZERO PUSH2 0x457 JUMPI PUSH2 0x456 PUSH2 0x367 JUMP JUMPDEST JUMPDEST PUSH0 PUSH2 0x464 DUP5 DUP3 DUP6 ADD PUSH2 0x42E JUMP JUMPDEST SWAP2 POP POP SWAP3 SWAP2 POP POP JUMP JUMPDEST PUSH0 DUP2 ISZERO ISZERO SWAP1 POP SWAP2 SWAP1 POP JUMP JUMPDEST PUSH2 0x481 DUP2 PUSH2 0x46D JUMP JUMPDEST DUP3 MSTORE POP POP JUMP JUMPDEST PUSH0 PUSH1 0x20 DUP3 ADD SWAP1 POP PUSH2 0x49A PUSH0 DUP4 ADD DUP5 PUSH2 0x478 JUMP JUMPDEST SWAP3 SWAP2 POP POP JUMP JUMPDEST PUSH0 DUP1 PUSH1 0x40 DUP4 DUP6 SUB SLT ISZERO PUSH2 0x4B6 JUMPI PUSH2 0x4B5 PUSH2 0x367 JUMP JUMPDEST JUMPDEST PUSH0 PUSH2 0x4C3 DUP6 DUP3 DUP7 ADD PUSH2 0x381 JUMP JUMPDEST SWAP3 POP POP PUSH1 0x20 PUSH2 0x4D4 DUP6 DUP3 DUP7 ADD PUSH2 0x42E JUMP JUMPDEST SWAP2 POP POP SWAP3 POP SWAP3 SWAP1 POP JUMP JUMPDEST PUSH0 DUP2 MLOAD SWAP1 POP SWAP2 SWAP1 POP JUMP JUMPDEST PUSH0 DUP3 DUP3 MSTORE PUSH1 0x20 DUP3 ADD SWAP1 POP SWAP3 SWAP2 POP POP JUMP JUMPDEST DUP3 DUP2 DUP4 MCOPY PUSH0 DUP4 DUP4 ADD MSTORE POP POP POP JUMP JUMPDEST PUSH0 PUSH1 0x1F NOT PUSH1 0x1F DUP4 ADD AND SWAP1 POP SWAP2 SWAP1 POP JUMP JUMPDEST PUSH0 PUSH2 0x520 DUP3 PUSH2 0x4DE JUMP JUMPDEST PUSH2 0x52A DUP2 DUP6 PUSH2 0x4E8 JUMP JUMPDEST SWAP4 POP PUSH2 0x53A DUP2 DUP6 PUSH1 0x20 DUP7 ADD PUSH2 0x4F8 JUMP JUMPDEST PUSH2 0x543 DUP2 PUSH2 0x506 JUMP JUMPDEST DUP5 ADD SWAP2 POP POP SWAP3 SWAP2 POP POP JUMP JUMPDEST PUSH0 PUSH1 0x80 DUP3 ADD SWAP1 POP PUSH2 0x561 PUSH0 DUP4 ADD DUP8 PUSH2 0x3F0 JUMP JUMPDEST PUSH2 0x56E PUSH1 0x20 DUP4 ADD DUP7 PUSH2 0x33F JUMP JUMPDEST DUP2 DUP2 SUB PUSH1 0x40 DUP4 ADD MSTORE PUSH2 0x580 DUP2 DUP6 PUSH2 0x516 JUMP JUMPDEST SWAP1 POP PUSH2 0x58F PUSH1 0x60 DUP4 ADD DUP5 PUSH2 0x478 JUMP JUMPDEST SWAP6 SWAP5 POP POP POP POP POP JUMP JUMPDEST PUSH32 0x4E487B7100000000000000000000000000000000000000000000000000000000 PUSH0 MSTORE PUSH1 0x22 PUSH1 0x4 MSTORE PUSH1 0x24 PUSH0 REVERT JUMPDEST PUSH0 PUSH1 0x2 DUP3 DIV SWAP1 POP PUSH1 0x1 DUP3 AND DUP1 PUSH2 0x5DC JUMPI PUSH1 0x7F DUP3 AND SWAP2 POP JUMPDEST PUSH1 0x20 DUP3 LT DUP2 SUB PUSH2 0x5EF JUMPI PUSH2 0x5EE PUSH2 0x598 JUMP JUMPDEST JUMPDEST POP SWAP2 SWAP1 POP JUMP INVALID LOG2 PUSH5 0x6970667358 0x22 SLT KECCAK256 SLOAD GASLIMIT LT 0xFB CREATE2 PUSH23 0x1A9FEE0409BE5E3F6CC8163439BB13D5AB4BF07D020D7E JUMPI 0xD PUSH25 0x64736F6C634300081A00330000000000000000000000000000 "
				},
				"gasEstimates": {
					"creation": {
						"codeDepositCost": "315800",
						"executionCost": "infinite",
						"totalCost": "infinite"
					},
					"external": {
						"approved(uint256,address)": "3093",
						"isOwner(address)": "2833",
						"owners(uint256)": "4921",
						"required()": "2491",
						"transactions(uint256)": "infinite"
					}
				},
				"methodIdentifiers": {
					"approved(uint256,address)": "8253951a",
					"isOwner(address)": "2f54bf6e",
					"owners(uint256)": "025e7c27",
					"required()": "dc8452cd",
					"transactions(uint256)": "9ace38c2"
				}
			},
			"storageLayout": {
				"storage": [
					{
						"astId": 4,
						"contract": "contracts/Multi-signature wallet.sol:MultiWallet",
						"label": "owners",
						"offset": 0,
						"slot": "0",
						"type": "t_array(t_address)dyn_storage"
					},
					{
						"astId": 8,
						"contract": "contracts/Multi-signature wallet.sol:MultiWallet",
						"label": "isOwner",
						"offset": 0,
						"slot": "1",
						"type": "t_mapping(t_address,t_bool)"
					},
					{
						"astId": 10,
						"contract": "contracts/Multi-signature wallet.sol:MultiWallet",
						"label": "required",
						"offset": 0,
						"slot": "2",
						"type": "t_uint256"
					},
					{
						"astId": 23,
						"contract": "contracts/Multi-signature wallet.sol:MultiWallet",
						"label": "transactions",
						"offset": 0,
						"slot": "3",
						"type": "t_array(t_struct(Transaction)19_storage)dyn_storage"
					},
					{
						"astId": 29,
						"contract": "contracts/Multi-signature wallet.sol:MultiWallet",
						"label": "approved",
						"offset": 0,
						"slot": "4",
						"type": "t_mapping(t_uint256,t_mapping(t_address,t_bool))"
					}
				],
				"types": {
					"t_address": {
						"encoding": "inplace",
						"label": "address",
						"numberOfBytes": "20"
					},
					"t_array(t_address)dyn_storage": {
						"base": "t_address",
						"encoding": "dynamic_array",
						"label": "address[]",
						"numberOfBytes": "32"
					},
					"t_array(t_struct(Transaction)19_storage)dyn_storage": {
						"base": "t_struct(Transaction)19_storage",
						"encoding": "dynamic_array",
						"label": "struct MultiWallet.Transaction[]",
						"numberOfBytes": "32"
					},
					"t_bool": {
						"encoding": "inplace",
						"label": "bool",
						"numberOfBytes": "1"
					},
					"t_bytes_storage": {
						"encoding": "bytes",
						"label": "bytes",
						"numberOfBytes": "32"
					},
					"t_mapping(t_address,t_bool)": {
						"encoding": "mapping",
						"key": "t_address",
						"label": "mapping(address => bool)",
						"numberOfBytes": "32",
						"value": "t_bool"
					},
					"t_mapping(t_uint256,t_mapping(t_address,t_bool))": {
						"encoding": "mapping",
						"key": "t_uint256",
						"label": "mapping(uint256 => mapping(address => bool))",
						"numberOfBytes": "32",
						"value": "t_mapping(t_address,t_bool)"
					},
					"t_struct(Transaction)19_storage": {
						"encoding": "inplace",
						"label": "struct MultiWallet.Transaction",
						"members": [
							{
								"astId": 12,
								"contract": "contracts/Multi-signature wallet.sol:MultiWallet",
								"label": "to",
								"offset": 0,
								"slot": "0",
								"type": "t_address"
							},
							{
								"astId": 14,
								"contract": "contracts/Multi-signature wallet.sol:MultiWallet",
								"label": "value",
								"offset": 0,
								"slot": "1",
								"type": "t_uint256"
							},
							{
								"astId": 16,
								"contract": "contracts/Multi-signature wallet.sol:MultiWallet",
								"label": "data",
								"offset": 0,
								"slot": "2",
								"type": "t_bytes_storage"
							},
							{
								"astId": 18,
								"contract": "contracts/Multi-signature wallet.sol:MultiWallet",
								"label": "exected",
								"offset": 0,
								"slot": "3",
								"type": "t_bool"
							}
						],
						"numberOfBytes": "128"
					},
					"t_uint256": {
						"encoding": "inplace",
						"label": "uint256",
						"numberOfBytes": "32"
					}
				}
			},
			"userdoc": {
				"kind": "user",
				"methods": {},
				"version": 1
			}
		}
	}
}